:10000000802600202D0100002901000029010000A8
:1000100000000000000000000000000000000000E0
:1000200000000000000000000000000029010000A6
:10003000000000000000000029010000290100006C
:100040002901000029010000290100002901000008
:1000500029010000290100002901000029010000F8
:1000600029010000290100002901000029010000E8
:1000700029010000890A000029010000290100006F
:1000800029010000290100002901000029010000C8
:1000900029010000290100002901000029010000B8
:1000A00029010000290100002901000029010000A8
:1000B00029010000290100002901000010B5064CAB
:1000C0002378002B07D1054B002B02D0044800E019
:1000D00000BF0123237010BD0405002000000000B4
:1000E000F40F0000084B10B5002B03D00749084857
:1000F00000E000BF07480368002B00D110BD064B8D
:10010000002BFBD09847F9E700000000080500200D
:10011000F40F0000F40F00000000000010B5014BC8
:10012000984710BD65020000FEE7000010B5174AB1
:10013000174B9A4211D01A00164B9A420DD2164A0A
:1001400003339B1A9B0801339B00002210480F4980
:100150008C58845004329A42FAD1104A104B9A4279
:100160000AD2D3430E495B1803218B4304339B18F7
:10017000002102C29342FCD10A4AFF210A4B8B4361
:1001800093600A4B98470A4B9847FEE7F40F00002C
:1001900000000020040500200400002004050020C9
:1001A0007C06002000ED00E000000000A10C000033
:1001B000D90B0000064B4021DC2299500331143A40
:1001C0009950044AD36923390B43D3617047C04621
:1001D000001C00400008004030B58223DB05C82227
:1001E000995C0125A94301242143C9B29954B42043
:1001F000195CB93A91430C3A11431954C9215A5C1C
:10020000AA432243D2B25A541A5CBA390A40213165
:100210000A431A5430BD000010B582B0064B98470F
:10022000002300931033054A05490648064CA047B1
:10023000064B984702B010BDB50100002005002014
:100240000014004208060020B1050000D90100009A
:1002500010B50248024B984710BDC04610E000E0C0
:1002600071030000F0B5C64600B5304B9847C02278
:10027000D20580231B05536193608223DB05802414
:10028000E4059C622A4999625B25595D01208143FE
:10029000595580214905516191609C6225499962B7
:1002A0000135595D814359558421884604275750AB
:1002B0002431214D5D50214DAC465D50C2255E5D1F
:1002C000BE435E555E5D86435E55BA3D46469551DA
:1002D0001B4D5D5065465D50C3255E5DBE435E555A
:1002E0005E5D86435E5590378025ED03D5518826A7
:1002F000B04695515C50134D5D50D625AC465D5DC2
:10030000854366469D5580252D04D5514646955119
:100310005C500D4A5A502F315A5C82435A540B4B51
:1003200098470B4B984704BC9046F0BDF50700007A
:10033000000800C0001000C004000240000002C01D
:1003400008000240400000C0800000C01902000008
:1003500051020000EFF31083036072B6BFF35F8FAA
:100360007047BFF35F8F036883F310887047000006
:1003700010B5024B1860024B984710BD30050020A5
:10038000F50A000070B506000C00150000280DD01D
:100390000800431E9841C0B234220549054B9847D6
:1003A00033682A0021003000984770BD0020F3E731
:1003B000580F0000ED06000070B506000C00150097
:1003C00000280DD00800431E9841C0B23D220549C7
:1003D000054B984773682A0021003000984770BD8C
:1003E0000020F3E7580F0000ED06000010B50838B4
:1003F00000230363436A002B00D0984710BD10B55B
:10040000083800230363C36A002B00D0984710BD4F
:1004100010B504002C30044B9847236A083C002B8D
:1004200001D02000984710BD9107000070B504006E
:100430000E00150000281DD000291DD01000431EFD
:1004400098413C22FF320F490F4B98474423E25A10
:100450000833E35A9A4211D1A6644C23E552002294
:10046000083BE252433B236320000830074B984788
:10047000280070BD0020E4E70020E2E71C20404295
:10048000F7E7C0466C0F0000ED060000050A00000B
:1004900070B5040001000839838F4C228A5A9A42B1
:1004A0000CD00A00896C5D1C44201552C95C2000E8
:1004B000044B98472000044B984770BD034B984766
:1004C000FBE7C046FD090000050A00000D0A000018
:1004D000F0B5CE46474680B585B005000E00170042
:1004E000002815D0002913D0002A2AD1AC225200AE
:1004F00029490020294B984703A8294B98472800F1
:100500003430284B984703A8274B984700253CE0F8
:10051000AC22520020490020204B984703A8204BD2
:1005200098473435280001951E4B9847804603A80C
:100530001D4B984700254346002B26D0002F16D18F
:1005400023E0AC22520014490120144B984703A821
:10055000134B9847343528000195124B9847804635
:1005600003A8114B984743460025002B0DD00024CB
:100570000E4B9946651CADB231190198C84701343C
:10058000444502D2A3B29F42F4D8280005B00CBC67
:1005900090469946F0BDC0466C0F0000ED06000085
:1005A00055030000D1070000630300004907000065
:1005B000F8B504000D0016001F00002826D0002901
:1005C00026D0002A26D01800431E98413A2214490A
:1005D000144B9847200034303A003100124B9847B2
:1005E000002819D1200008302900104B9847002816
:1005F0000BD10F4B63600F4B23600F4BA3600F4B6E
:10060000E3600F4B23610F4B6361F8BD0020DDE712
:100610000020DBE70020D9E70D204042F5E7C04687
:100620006C0F0000ED060000F50600006D090000EB
:10063000D10400002D04000091040000110400000A
:10064000ED030000FF03000010B50400431E9841B5
:10065000C0B261220449054B984720000830044B82
:100660009847002010BDC0466C0F0000ED0600004A
:10067000E909000070B505000E001400431E984102
:10068000C0B283221649174B9847012E11D0002E75
:1006900004D0022E18D00D20404209E0AC62621E48
:1006A0009441E2B22800083001210F4B9847002006
:1006B00070BD6C62621E9441E2B2280008300221D3
:1006C000094B98470020F3E7EC62621E9441E2B2C6
:1006D000280008300321044B98470020E8E7C04673
:1006E0006C0F0000ED060000150A0000002800D184
:1006F00000BE704770B504000E00150000280BD036
:10070000002918D00120002A07D128220C490020F6
:100710000C4B98476B1E07E0002028220849094B24
:1007200098476B1E2B4208D163600023A360E360EF
:100730002660002070BD0020EFE70D204042F9E761
:100740008C0F0000ED06000070B504000D000028BD
:1007500015D00800431E9841C0B240220A490B4BF5
:100760009847A368E2689A420BD0626813402268F7
:10077000D35C2B70A3680133A360002070BD002000
:10078000EBE70A204042F9E78C0F0000ED0600007D
:1007900070B504000D00431E9841C0B251220A49B1
:1007A0000A4B98476368E26813402268D554E368AF
:1007B0006168A2689A1A8A4201D9591AA160013364
:1007C000E360002070BDC0468C0F0000ED06000005
:1007D00010B50400431E9841C0B267220349044B80
:1007E0009847E068A368C01A10BDC0468C0F00008F
:1007F000ED06000010B5084B5A685A60074B984741
:10080000074B9847074B9847074B9847FF20074BE4
:100810009847074B984710BD0040004175080000FD
:100820008D08000069080000CD08000045080000A0
:10083000350800009022D205137802218B431370F3
:1008400070470000C30707D5044A054B1A62190018
:10085000044A4B681342FCD17047C04606010100B0
:10086000001C0040FD0700000122014B1A71704777
:1008700000080040044BDA69F82149010A40DA61B6
:1008800001221A617047C046001400400E4B02223C
:100890001A7509325A751900073A8B691A42FCD148
:1008A000094904228B691A42FCD10722064B9A752A
:1008B00019000932CB681A42FCD0034A137D80210B
:1008C0000B4313757047C04600100040704700008E
:1008D00010B504001F4BC3189B0ADBB2042B04D0D5
:1008E0001D4A1E4900201E4B9847E369DB0718D4B8
:1008F0000322E3691A42FCD123689B070BD52368C6
:100900000222934323600132E3691A42FCD102229E
:10091000E3691A42FCD1052323600322E3691A42EA
:10092000FCD10122E3691A42FCD10E4B2360032261
:10093000E3691A42FCD1C0239B0263600722E3698A
:100940001A42FCD1084BA3810023A3733022A35485
:10095000002010BD00FCFFBD5E020000B00F0000D3
:10096000ED060000040010402BF6FFFF70B50500F7
:100970000C00431E9841C0B2C4221449144B98473E
:100980002000144B9847002800D070BDAC61124B7A
:100990009C4217D0114B9C466444A40A0934E3B22C
:1009A0002206F2D41F221A40012393400C4A8021D0
:1009B0005350BFF34F8FBFF36F8F0131FF3153504F
:1009C0001360E2E7074B1D600D23EBE7B00F00005B
:1009D000ED060000D10800000014004200FCFFBD3D
:1009E00000E100E0340500208269136802210B4316
:1009F00013600131D3691942FCD17047836989B210
:100A000019857047836901229A75704783690222AC
:100A10009A75704770B504000D001600431E98418A
:100A2000C0B2164A1649174B984702232A009A4328
:100A30000ED1A369002E05D101221A75A3690132D6
:100A40001A7570BD01229A75A36901329A75F8E78B
:100A5000012D07D0032DF4D1A369002E0BD08022E5
:100A60009A75EEE7A369002E02D104221A75E8E711
:100A700004229A75E5E780221A75E2E71E0200005B
:100A8000B00F0000ED06000010B5194B186884691E
:100A9000237EDB0702D5A37DDB070FD4237E9B07D4
:100AA00002D5A37D9B070ED4237E5B0715D5628BF1
:100AB00037231A420CD04833638310BD01232375BA
:100AC00003689847F9E70223237583689847F4E79A
:100AD000218DC9B243689847EFE7237EDB09ECD04C
:100AE00080232376C3689847638B9BB26383E4E7D4
:100AF00034050020024B034A5A6005221A607047F1
:100B000010E000E0FFFFFF007047000010B582B06A
:100B100001226B46D91D1F481F4B9847C1B21F4B7E
:100B20001B78002B12D16B46DA790D2A24D00A2AC1
:100B300022D01A4B012018700020587058781818CD
:100B4000027158784018C0B2587015E0134B5A78AB
:100B50006846C4799A18147158784018C0B2587011
:100B60000D2C0BD00A2C09D00C4B5B78DBB2C72BB9
:100B700002D90022094B5A7002B010BD084A012167
:100B80004C23D154054B5B78023BDBB24C315354C0
:100B9000EAE7C04608060020B90300003805002037
:100BA000B805002070B5074C074A01212000074D09
:100BB000A847074A00212000A8472000054B984776
:100BC00070BDC04608060020090B00007506000035
:100BD0000D0B000049060000F8B5284B9847284B3C
:100BE0009847284F284D294E0E363C1D1CE0254BBA
:100BF0005B796E2B2ED1802109042A33C022D205C5
:100C0000D15027E0C82221003000214B98474D23C6
:100C10001D4AD25C10321D491E481F4B9847C822FE
:100C2000002120001D4B98474C223B78012BFCD122
:100C3000AB5C012BF9D1134B00221A704C211248E6
:100C400042548020C0039832C021C90588501B79C6
:100C50006F2BCCD00B4B1B796F2BD3D1094B5B790E
:100C6000662BCFD1074B9B79662BCBD18021090412
:100C70002E33C022D205D150C4E7C0461D0100006A
:100C8000A50B000038050020B8050020000000205A
:100C9000E90C000008060020850300006D0D00002F
:100CA00070B50D4E0D4D0024AD1BAD1005D0A30049
:100CB000F35801349847A542F9D100F089F9084E5C
:100CC000084D0024AD1BAD1005D0A300F35801342E
:100CD0009847A542F9D170BDDC0F0000DC0F000081
:100CE000DC0F0000E40F0000F0B505000F2A2FD93B
:100CF0000B0003439B0734D116000C000300103E89
:100D0000350901352D01451927681F6067685F6047
:100D1000A7689F60E7681034DF6010339D42F3D10D
:100D20000F239E431036851989191340032B1AD9B6
:100D30001E1F0023B4080134A400CF58EF50043321
:100D4000A342FAD10324A643331D2240C918ED184B
:100D5000002A05D00023CC5CEC5401339342FAD135
:100D6000F0BD0500F6E71A00F2E7C046F0B58307CC
:100D700043D0541E002A3FD0CEB20200032502E029
:100D80001A00013C38D3531C16702B42F8D1032CA7
:100D90002AD9FF220A40150215432A0415430F2CB5
:100DA00014D927001A00103F3E09013636019E195A
:100DB000156055609560D56010329642F8D10F22CB
:100DC00097431037DB191440032C0DD91A00271F45
:100DD000BE080136B6009E1920C2B242FCD10322E1
:100DE00097430437DB191440002C05D0C9B21C19F5
:100DF000197001339C42FBD1F0BD14000300C6E71B
:100E0000034B10B5002B02D0024800F005F810BDCE
:100E100000000000290E000010B501000023002290
:100E2000002000F01FF810BD70B5094B094CE41A02
:100E3000A41009D0084AA518AD00ED182B68013C94
:100E40009847043D002CF9D100F0CCF870BDC046A5
:100E5000F00F0000F40F0000FFFFFF3F7047C04697
:100E60007047C046F0B54E464546DE465746E0B5AB
:100E7000364D83B00600286898460F009146FFF76C
:100E8000EDFF334B1C68A4235B00E058002852D0D0
:100E900043681F2B13DC5A1C0192002E28D1019AA3
:100EA00002339B0042601F502868FFF7D9FF0020E3
:100EB00003B03CBC90469946A246AB46F0BD254BDC
:100EC000002B3DD0C820400000E000BF002837D0F4
:100ED000A42200235200A15843600160A050403278
:100EE000835004328350013301930023002ED6D067
:100EF0009A00924682444A46882154466250C4224F
:100F00005200914681444A468739994012688B467F
:100F10000A4394464A466146116084224146520083
:100F2000A150022EBBD102005C468D32FF32116807
:100F30000C431460B3E720004D30FF30E050A7E7CA
:100F40002868FFF78DFF01204042B1E7000500202F
:100F5000CC0F0000000000002E2E2F68616C2F7354
:100F600072632F68616C5F696F2E63002E2E2F688D
:100F7000616C2F7372632F68616C5F75736172743B
:100F80005F6173796E632E63000000002E2E2F6860
:100F9000616C2F7574696C732F7372632F7574692C
:100FA0006C735F72696E676275666665722E630048
:100FB0002E2E2F68706C2F736572636F6D2F6870A3
:100FC0006C5F736572636F6D2E630000D800002044
:100FD000F8B5C046F8BC08BC9E467047010E00003C
:100FE000E5000000F8B5C046F8BC08BC9E46704756
:040FF000BD00000040
:100FF400596F7572206D657373616765203A2000BF
:1010040000000000000000000000000000000000DC
:1010140000000000000000000000000000000000CC
:1010240000000000000000000000000000000000BC
:1010340000000000000000000000000000000000AC
:10104400000000000000000000000000000000009C
:10105400000000000000000000000000000000008C
:10106400000000000000000000000000000000007C
:10107400000000000000000000000000000000006C
:10108400000000000000000000000000000000005C
:10109400000000000000000000000000000000004C
:1010A400000000000000000000000000000000003C
:1010B400000000000000000000000000000000002C
:1010C400000000000000000000000000C403002035
:1010D4002C04002094040020000000000000000004
:1010E40000000000000000000000000000000000FC
:1010F40000000000000000000000000000000000EC
:1011040000000000000000000000000000000000DB
:1011140000000000000000000000000000000000CB
:1011240000000000000000000000000000000000BB
:1011340000000000000000000000000000000000AB
:10114400000000000000000000000000000000009B
:10115400000000000000000000000000000000008B
:10116400000000000000000000000000000000007B
:1011740001000000000000000E33CDAB34126DE618
:10118400ECDE05000B000000000000000000000081
:10119400000000000000000000000000000000004B
:1011A400000000000000000000000000000000003B
:1011B400000000000000000000000000000000002B
:1011C400000000000000000000000000000000001B
:0414F4005806002076
:00000001FF
