:10000000282000202D010000290100002901000006
:1000100000000000000000000000000000000000E0
:1000200000000000000000000000000029010000A6
:10003000000000000000000029010000290100006C
:100040002901000029010000290100002901000008
:1000500029010000290100002901000029010000F8
:1000600029010000290100002901000029010000E8
:1000700029010000290100002901000029010000D8
:1000800029010000290100002901000029010000C8
:1000900029010000290100002901000029010000B8
:1000A00029010000290100002901000029010000A8
:1000B00029010000290100002901000010B5064CAB
:1000C0002378002B07D1054B002B02D0044800E019
:1000D00000BF0123237010BD0000002000000000BD
:1000E000A0040000084B10B5002B03D007490848B6
:1000F00000E000BF07480368002B00D110BD064B8D
:10010000002BFBD09847F9E7000000000400002016
:10011000A0040000A00400000000000010B5014B86
:10012000984710BDC9010000FEE7000010B5174A4E
:10013000174B9A4211D01A00164B9A420DD2164A0A
:1001400003339B1A9B0801339B00002210480F4980
:100150008C58845004329A42FAD1104A104B9A4279
:100160000AD2D3430E495B1803218B4304339B18F7
:10017000002102C29342FCD10A4AFF210A4B8B4361
:1001800093600A4B98470A4B9847FEE7A00400008B
:1001900000000020000000200400002000000020DB
:1001A0002400002000ED00E0000000003904000001
:1001B000D103000010B50248024B984710BDC0465D
:1001C00010E000E0CD020000F0B5C64600B52F4BB0
:1001D0009847C022D20580231B0553619360822378
:1001E000DB058024E4059C62294999625B25595D01
:1001F00001208143595580214905516191609C62DC
:10020000244999620135595D8143595584218846B5
:10021000042757502431204D5D50204DAC465D5091
:10022000C2255E5DBE435E555E5D86435E55BA3D4A
:10023000464695511A4D5D5065465D50C3255E5D3D
:10024000BE435E555E5D86435E5590378025ED0367
:10025000D5518826B04695515C50124D5D50D6253B
:10026000AC465D5D854366469D5580252D04D55180
:10027000464695515C500C4A5A502F315A5C824385
:100280005A540A4B984704BC9046F0BDE102000066
:10029000000800C0001000C004000240000002C0BE
:1002A00008000240400000C0800000C0B50100000E
:1002B000EFF31083036072B6BFF35F8F7047BFF335
:1002C0005F8F036883F310887047000010B5024BFE
:1002D0001860024B984710BD1C000020BD030000B1
:1002E00010B5084B5A685A60074B9847074B984718
:1002F000074B9847074B9847FF20074B9847074BFA
:10030000984710BD004000416103000079030000E0
:1003100055030000B9030000310300002103000071
:100320009022D205137802218B431370704700008E
:10033000C30707D5044A054B1A621900044A4B68E3
:100340001342FCD17047C04606010100001C00406A
:10035000FD0700000122014B1A71704700080040A0
:10036000044BDA69F82149010A40DA6101221A6175
:100370007047C046001400400E4B02221A75093225
:100380005A751900073A8B691A42FCD109490422AF
:100390008B691A42FCD10722064B9A751900093263
:1003A000CB681A42FCD0034A137D80210B4313759E
:1003B0007047C0460010004070470000024B034ADF
:1003C0005A6005221A60704710E000E0FFFFFF004E
:1003D000F0B583B0134B9847134F144E144D01E002
:1003E000144A137001A8B847C023DB0580229C582B
:1003F00020328221C9058A5890215B5853401C4005
:10040000544001A8B0476307DB0F2B70094A1278EC
:100410009A42E5D28020C0039C22C021C9058850A1
:10042000DEE7C0461D010000B1020000BF0200006F
:10043000210000202000002070B500260C4D0D4C3E
:10044000641BA410A64209D1002600F019F80A4D39
:100450000A4C641BA410A64205D170BDB300EB5832
:1004600098470136EEE7B300EB5898470136F2E7BC
:100470008C0400008C0400008C0400009004000038
:10048000F8B5C046F8BC08BC9E467047E5000000C1
:10049000F8B5C046F8BC08BC9E467047BD000000D9
:00000001FF
