S01A00006C65645F627574746F6E5F756172742831292E737265633D
S1130000C020002031010000B5010000B50100004E
S113001000000000000000000000000000000000DC
S1130020000000000000000000000000B501000016
S11300300000000000000000B5010000B501000050
S1130040B5010000B5010000B5010000B5010000D4
S1130050B5010000B5010000B5010000B5010000C4
S1130060B5010000B5010000B5010000B5010000B4
S1130070B5010000C11F0000B5010000B50100007A
S1130080B5010000B5010000B5010000B501000094
S1130090B5010000B5010000B5010000B501000084
S11300A0B5010000B5010000B5010000B501000074
S11300B0B5010000B5010000B501000010B5064C03
S11300C02378002B07D1054B002B02D0044800E015
S11300D000BF0123237010BD1400002000000000A5
S11300E094220000084B10B5002B03D007490848A0
S11300F000E000BF07480368002B00D110BD064B89
S1130100002BFBD09847F9E70000000018000020FE
S113011094220000942200000000000080B500AF8B
S1130120024B9847C046BD4680BDC046E909000061
S113013080B582B000AF164B7B60164B3B607A688B
S11301403B689A420CD007E03B681A1D3A607A6813
S1130150111D796012681A603A680F4B9A42F3D302
S11301600E4B3B6004E03B681A1D3A6000221A60A3
S11301703A680B4B9A42F6D30A4B7B600A4B7A6877
S1130180FF218A439A60094B9847094B9847FEE739
S1130190942200000000002014000020140000201D
S11301A0C00000200000000000ED00E0512100002C
S11301B02921000080B500AFFEE780B584B000AF10
S11301C0F8607A600B23FB180A1C1A700B23FB18C7
S11301D01A78FB68203292007968D150C046BD4637
S11301E004B080BD80B582B000AF78607B68DB6905
S11301F020221A437B68DA61C046BD4602B080BD46
S113020080B584B000AFF8607A600B23FB180A1C39
S11302101A700B23FB181B78FA68DB01D318083318
S11302207A681A60C046BD4604B080BD80B584B00B
S113023000AFF8607A600B23FB180A1C1A700B23BA
S1130240FB181B78FA68DB01D31804337A681A6048
S1130250C046BD4604B080BD80B584B000AFF86030
S11302607A600B23FB180A1C1A700B23FB181B78EB
S1130270FA68DB01D31818337A681A60C046BD46A1
S113028004B080BD80B584B000AFF8607A600B2301
S1130290FB180A1C1A700B23FB181B78FA68DB0185
S11302A0D31814337A681A60C046BD4604B080BDC2
S11302B090B585B000AF78600C0010001900FB1CED
S11302C0221C1A70BB1C021C1A707B1C0A1C1A709C
S11302D0FB1C1978BB1C1A780F23FB187868302490
S11302E0C90141188A18121912781A700F23FB18C1
S11302F00F22BA1812780F218A431A707B1C1B78BC
S11303000F221340D9B20F23FB180F22BA18127808
S11303100A431A70FB1C1A78BB1C1B7879683020BE
S1130320D2018A18D3181B180F22BA1812781A701F
S1130330C046BD4605B090BD90B585B000AF7860AD
S11303400C0010001900FB1C221C1A70BB1C021CA0
S11303501A707B1C0A1C1A70FB1C1978BB1C1A78B7
S11303600F23FB1878683024C90141188A18121920
S113037012781A700F23FB180F22BA1812780F2163
S11303800A401A707B1C1B781B01D9B20F23FB187F
S11303900F22BA1812780A431A70FB1C1A78BB1C75
S11303A01B7879683020D2018A18D3181B180F22C1
S11303B0BA1812781A70C046BD4605B090BD90B503
S11303C085B000AF78600C0010001900FB1C221CE3
S11303D01A70BB1C021C1A707B1C0A1C1A70FB1CB2
S11303E01978BB1C1A780F23FB1878684024C901BC
S11303F041188A18121912781A700F23FB180F2249
S1130400BA18127801218A431A707B1C19780F23B9
S1130410FB180F22BA1812780A431A70FB1C1A78B8
S1130420BB1C1B7879684020D2018A18D3181B188A
S11304300F22BA1812781A70C046BD4605B090BD96
S1130440B0B582B000AF786008001100FB1C021C3C
S11304501A70BB1C0A1C1A70FB1C1A78BB1C1B7874
S1130460F91C0878B91C09787C684025C00120185B
S1130470411849190978C9B204200143CCB27968FA
S11304804020D2018A18D3181B18221C1A70C046A7
S1130490BD4602B0B0BDB0B582B000AF7860080010
S11304A01100FB1C021C1A70BB1C0A1C1A70FB1CDA
S11304B01A78BB1C1B78F91C0878B91C09787C686D
S11304C04025C0012018411849190978C9B20420EF
S11304D08143CCB279684020D2018A18D3181B1802
S11304E0221C1A70C046BD4602B0B0BD80B584B0AF
S11304F000AFF8607A600B23FB180A1C1A700B23F8
S1130500FB181B78FA68DB01D31828337A681A6061
S1130510C046BD4604B080BD80B582B000AF39602E
S11305201100FB1D021C1A70BB1D0A1C1A70BB1D96
S11305301B78012B25D0022B43D0002B63D13A68C2
S1130540FB1D1978C023DB051800344B98473B6822
S11305501B041B0C8022D2051A43FB1D197882232D
S1130560DB0518002E4B98473B681B0CC022120673
S11305701A43FB1D19788223DB051800284B984782
S113058047E03A68FB1D1978C023DB051800234BAC
S113059098473B681B041B0C224A1A43FB1D19781D
S11305A08223DB0518001E4B98473B681B0C1E4A30
S11305B01A43FB1D19788223DB051800184B984752
S11305C027E03A68FB1D1978C023DB051800174B98
S11305D098473B681B041B0C8022D2051A43FB1D61
S11305E019788223DB0518000D4B98473B681B0CD8
S11305F0C02212061A43FB1D19788223DB0518005A
S1130600074B984705E00A4B462219000020094B86
S11306109847C046BD4602B080BDC0462D020000CA
S1130620ED04000000000240000002C001020000CE
S113063098210000B30E000080B582B000AF39608D
S11306401100FB1D021C1A70BB1D0A1C1A70BB1D75
S11306501B78002B08D03A68FB1D1978C023DB05F2
S11306601800074B984707E03A68FB1D1978C02328
S1130670DB051800034B9847C046BD4602B080BD59
S1130680590200008502000090B583B000AF040059
S113069008001100FB1D221C1A70BB1D021C1A70DD
S11306A07B1D0A1C1A707B1D1B78012B0DD0022B9D
S11306B02BD0002B49D1BB1D1A78FB1D197882233E
S11306C0DB051800264B984746E0BB1D1B7801222A
S11306D09A40FB1D1978C023DB051800214B98476D
S11306E0BB1D1A78FB1D19788223DB0518001E4BED
S11306F09847BB1D1B7801229A40FB1D1978C02323
S1130700DB051800194B984726E0BB1D1B78012216
S11307109A40FB1D1978C023DB051800114B98473C
S1130720BB1D1A78FB1D19788223DB0518000E4BBC
S11307309847BB1D1B7801229A40FB1D1978C023E2
S1130740DB0518000A4B984706E00A4B892219007A
S11307500020094B9847C046C046BD4603B090BD33
S1130760970400002D02000041040000590200001B
S11307708502000098210000B30E000090B585B0FA
S113078000AF786039607B685A090F23FB181A7030
S11307907B68DAB20E23FB181F210A401A703B68EB
S11307A001330BD10E23FB181A780F23FB18197889
S11307B08223D80500231B4CA0472FE00E23FB18EF
S11307C01A780F23FB1819788223D8050123154CB6
S11307D0A0470E23FB181B78012213400FD00E23D1
S11307E0FB181B785B08DAB23B68DCB20F23FB18FA
S11307F019788223D80523000B4CA0470EE00E2362
S1130800FB181B785B08DAB23B68DCB20F23FB18D9
S113081019788223D8052300044CA047C046BD465E
S113082005B090BDBF03000039030000B102000011
S113083080B582B000AF0200FB1D1A70BB1D0A1CFC
S11308401A70FB1D1B785B09D8B2FB1D1B781F2295
S11308501340D9B2BB1D1B781A00034B9847C046FE
S1130860BD4602B080BDC0468906000080B582B096
S113087000AF786039603A687B6811001800034B58
S11308809847C046BD4602B080BDC0467D07000003
S113089080B582B000AF0200FB1D1A70BB1D0A1C9C
S11308A01A70FB1D1B785B09D8B2FB1D1B781F2235
S11308B0134001229A401100BB1D1B781A00034B00
S11308C09847C046BD4602B080BDC0461905000029
S11308D080B582B000AF0200FB1D1A70BB1D0A1C5C
S11308E01A70FB1D1B785B09D8B2FB1D1B781F22F5
S11308F0134001229A401100BB1D1B781A00034BC0
S11309009847C046BD4602B080BDC04639060000C7
S113091080B500AF024B9847C046BD4680BDC04677
S1130920B112000080B500AF094B40221721180016
S1130930084B9847064B402212211800054B984754
S1130940054B1800054B9847C046BD4680BDC046C0
S1130950001C0040BB01000000080040E50100004D
S113096080B500AF064B19002820064B9847064B6C
S113097019002920034B9847C046BD4680BDC04698
S1130980030028006D0800000300290090B583B01F
S113099002AF084B9847084A0849094800230093C6
S11309A01023084CA047084B9847C046BD4601B0E9
S11309B090BDC0462509000030000020001400420C
S11309C070000020690B00006109000080B500AFD1
S11309D0034B1800034B9847C046BD4680BDC04634
S11309E010E000E0090B000080B500AF2E4B9847E3
S11309F000211B202D4B984702211B202C4B98478C
S1130A0001235B4219001B202A4B984700211C201C
S1130A10264B984702211C20254B984701235B4213
S1130A2019001C20234B984701212220204B984772
S1130A3000212220204B984701235B4219002220E9
S1130A401C4B984701212320194B98470021232050
S1130A50194B984701235B4219002320154B9847F3
S1130A6000213620114B984702213620104B98471D
S1130A7001235B42190036200E4B98470021372092
S1130A800A4B984702213720094B984701235B42C0
S1130A9019003720074B9847084B9847084B98474D
S1130AA0C046BD4680BDC04611090000D108000003
S1130AB0910800006D080000310800008D09000055
S1130AC0CD09000080B584B000AF7860EFF31083E7
S1130AD0FB60FA687B681A6072B6BFF35F8FC0462A
S1130AE0BD4604B080BD80B584B000AF7860BFF36C
S1130AF05F8F7B681B68FB60FB6883F31088C046CC
S1130B00BD4604B080BD000080B582B000AF7860FF
S1130B10054B7A681A60044B1B681800034B98470E
S1130B20C046BD4602B080BD400000200120000048
S1130B3090B583B000AF0200BB1D1A80074B1C6840
S1130B40BB1D1B881800064B9847030019002000A2
S1130B50044B9847C046BD4603B090BD40000020FA
S1130B60611200001D20000080B586B000AFF8605F
S1130B70B9607A601A00BB1C1A80FB68002B0BD08A
S1130B80BB68002B08D07B68002B05D0BB1C1B88DE
S1130B90002B01D0012300E000231A1C0123134081
S1130BA0DBB21C493A2218001B4B9847FB683433CC
S1130BB01800BB1C1A887B681900184B9847031E41
S1130BC002D00D235B4220E0FB680833BA681100B1
S1130BD01800134B984703007B617B69002B01D0FD
S1130BE07B6912E0FB680F4A5A60FB680E4A1A6080
S1130BF0FB680E4A9A60FB680D4ADA60FB680D4A8E
S1130C001A61FB680C4A5A6100231800BD4606B0FD
S1130C1080BDC046B4210000B30E0000E10E000008
S1130C20A91A0000D50C00003D0C0000A10D000025
S1130C30410E0000110E0000850E000080B586B044
S1130C4000AFF860B960BB1D1A80FB687B617B69EB
S1130C50002B08D0BB68002B05D0BB1D1B88002BC4
S1130C6001D0012300E000231A1C01231340D8B251
S1130C703C23FF331A00144B1900144B98477B692B
S1130C8044229A5A7B694C215B5A9A4202D01C2313
S1130C905B4215E07B69BA689A647B69BA1D4C2192
S1130CA012885A527B694422002199527B6901229D
S1130CB01A637B6908331800054B9847BB1D1B88D2
S1130CC01800BD4606B080BDB4210000B30E00007C
S1130CD0791B000080B588B000AFF860B960BB1D17
S1130CE01A801E23FB1800221A80FB68BB61BB69B3
S1130CF0002B08D0BB68002B05D0BB1D1B88002B24
S1130D0001D0012300E000231A1C01231340D8B2B0
S1130D10AC235A001C4B19001C4B98471023FB189A
S1130D2018001B4B9847BB6934331800194B98477C
S1130D3003007B611023FB181800174B98470FE042
S1130D40BB69343318001E23FB181B881E22BA18F3
S1130D50591C11801A00BB689B1819000F4B984747
S1130D601E23FB181A887B699A4206D21E23FA189E
S1130D70BB1D12881B889A42E2D31E23FB181B88D2
S1130D801800BD4608B080BDB4210000B30E0000B9
S1130D90C50A00003D100000E70A0000550F0000DE
S1130DA0B0B584B000AF78607B68083BFB60FB683B
S1130DB044229A5AFB684C215B5A9A4218D0FB6829
S1130DC008331C00FB689A6CFB6844215B5A591C6D
S1130DD08DB2F96844200D52D3181B7819002000F5
S1130DE0084B9847FB6808331800074B984704E002
S1130DF0FB6808331800054B9847C046BD4604B04D
S1130E00B0BDC0464D1B0000791B0000991B0000BB
S1130E1080B584B000AF78607B68083BFB60FB68FA
S1130E2000221A63FB685B6A002B04D0FB685B6AD0
S1130E30FA6810009847C046BD4604B080BD000063
S1130E4080B584B000AF78600A00FB1C1A707B6820
S1130E50083BFB60FB6834331A00FB1C1B78190049
S1130E601000074B9847FB689B6A002B04D0FB6873
S1130E709B6AFA6810009847C046BD4604B080BD1E
S1130E80C90F000080B584B000AF78607B68083B70
S1130E90FB60FB6800221A63FB68DB6A002B04D04A
S1130EA0FB68DB6AFA6810009847C046BD4604B088
S1130EB080BD80B584B000AFB9607A600F23FB18A1
S1130EC0021C1A700F23FB181B7801225340DBB25B
S1130ED0002B00D000BEC046BD4604B080BD00005B
S1130EE080B584B000AFF860B9607A60FB68002B0D
S1130EF007D0BB68002B04D07B68002B01D00123F2
S1130F0000E000231A1C01231340DBB20F492822FE
S1130F1018000F4B98477B68013B7A68134002D056
S1130F200D235B420EE07B685A1EFB685A60FB6827
S1130F3000229A60FB689A68FB68DA60FB68BA680A
S1130F401A6000231800BD4604B080BDD4210000FF
S1130F50B30E000080B582B000AF786039607B6862
S1130F60002B04D03B68002B01D0012300E00023B8
S1130F701A1C01231340DBB2114940221800114B03
S1130F8098477B68DA687B689B689A4211D07B68D3
S1130F901A687B6899687B685B680B40D3181A7879
S1130FA03B681A707B689B685A1C7B689A600023B4
S1130FB001E00A235B421800BD4602B080BDC04672
S1130FC0D4210000B30E000080B582B000AF786079
S1130FD00A00FB1C1A707B685A1E9341DBB2154948
S1130FE051221800144B98477B681A687B68D968AB
S1130FF07B685B680B40D318FA1C12781A707B6804
S1131000DA687B689B68D21A7B685B689A4206D967
S11310107B68DA687B685B68D21A7B689A607B6855
S1131020DB685A1C7B68DA6000231800BD4602B0F6
S113103080BDC046D4210000B30E000080B582B04C
S113104000AF78607B685A1E9341DBB20649672281
S11310501800064B98477B68DA687B689B68D31A4C
S11310601800BD4602B080BDD4210000B30E0000BC
S113107090B583B000AF39601100BB1D021C1A800B
S11310807B1D0A1C1A707B1D1B78043B042B59D84A
S11310909A00344BD3181B689F46BB1D1C883A68C2
S11310A0314B324910009847030063435A1E2E4BBC
S11310B00A2110009847030001334EE0BB1D1C8831
S11310C03A68294B2A4910009847030063435A1E83
S11310D0254B642110009847030001333DE0BB1DFC
S11310E01C883868204BFA22910098470300634318
S11310F0581E1D4BFA2291009847030001332CE03F
S1131100BB1D1C883A68184B6421100098470300E3
S113111063435A1E144B16491000984703000133C9
S11311201BE0BB1D1C883A680F4B0A21100098472E
S1131130030063435A1E0C4B0C49100098470300EC
S113114001330AE0BB1D1B883A6853435A1E064B01
S1131150084910009847030001331800BD4603B046
S113116090BDC0461C220000D1130000A0860100DF
S11311701027000040420F0090B583B000AF3960E3
S11311801100BB1D021C1A807B1D0A1C1A707B1DDA
S11311901B78043B042B4BD89A002D4BD3181B68A7
S11311A09F46BB1D1C883A682A4B2B491000984760
S11311B0030063436422534345E0BB1D1C883A6823
S11311C0244B264910009847030063431A00130078
S11311D09B009B185B0036E0BB1D1C8838681D4BC8
S11311E0FA2291009847030063432CE0BB1D1C883E
S11311F03A68184B642110009847030063435A1E51
S1131200144B0A2110009847030001331BE0BB1D57
S11312101C883A680F4B0A21100098470300634367
S11312205A1E0C4B642110009847030001330AE056
S1131230BB1D1B883A685343581E064BFA22910083
S11312409847030001331800BD4603B090BDC04663
S113125030220000D1130000A086010010270000F6
S113126080B582B000AF0200BB1D1A800549BB1DCA
S11312701B8808221800044B984703001800BD4639
S113128002B080BD006CDC027911000080B582B030
S113129000AF786039607B685A683B685B001E2148
S11312A00B401A437B685A60C046BD4602B080BDFD
S11312B080B500AF0A4B002118000A4B98470A4B2F
S11312C098470A4B98470A4B98470A4B9847FF2080
S11312D0094B9847094B9847C046BD4680BDC04658
S11312E0004000418D1200003D15000081160000F1
S11312F0C5140000FD16000075140000B5130000AD
S113130080B584B000AF78600A00FB1C1A700F230C
S1131310FB187A6812781A700F23FB180F22BA1878
S1131320127802218A431A70FB1C1B785B005AB2A4
S11313300F23FB181B785BB213435AB20F23FB181D
S11313401A707B680F22BA1812781A70C046BD460C
S113135004B080BD80B584B000AFB9607A600F235B
S1131360FB18021C1A709023DA050F23FB181B7854
S113137001210B40D9B213780120084001218B438D
S1131380191C031C0B4313709023DB05BA689A6085
S11313909023DB057A68DA60C0469023DB051B796D
S11313A0DB07DB0FDBB2002BF7D1C046BD4604B030
S11313B080BD000080B500AF9023DB05002118003C
S11313C0024B9847C046BD4680BDC046011300008D
S11313D080B586B000AF78603960EFF31083FB60AE
S11313E0FB68BB6072B63A687B6819000020084B42
S11313F098479023DB051B697B61BB683B613B69B4
S113140083F310887B691800BD4606B080BDC046D2
S11314105513000080B582B000AF78603960C046D3
S11314207B685B683A681340FAD1C046BD4602B097
S113143080BD000080B584B000AFF8607A600B23F3
S1131440FB180A1C1A700B23FB181A78FB68083265
S113145092007968D150054AFB6811001800044BCA
S11314609847C046BD4604B080BDC046FD07000095
S11314701514000080B582B000AF78607B6801224B
S1131480134005D0044A054B00211800044B98472B
S1131490C046BD4602B080BD06010100001C0040EC
S11314A03514000080B582B000AF78600A00FB1CE0
S11314B01A707B68FA1C12781A71C046BD4602B0D5
S11314C080BD000080B582B000AF054B7B607B68B7
S11314D001211800034B9847C046BD4602B080BDA9
S11314E000080040A514000080B582B000AF786009
S11314F039607B683A681A61C046BD4602B080BD57
S113150080B584B000AF78607B68DB69FB60FB6802
S11315101B0A1F221340FB60FB681800BD4604B081
S113152080BD80B582B000AF786039607B683A686E
S1131530DA61C046BD4602B080BD000080B582B00D
S113154000AF104B7B60BB1C00221A807B68180024
S11315500D4B98470200BB1C1A80BB1C1B881B0246
S11315601A00F8235B011A407B6811001800074B2E
S113157098477B6801211800054B9847C046BD4633
S113158002B080BD001400400115000023150000C6
S1131590E914000080B582B000AF78603960C046BD
S11315A07B689B693A681340FAD1C046BD4602B0D5
S11315B080BD80B582B000AF78607B68DB681B09B2
S11315C0012213405A1E9341DBB21800BD4602B0FB
S11315D080BD80B582B000AF78607B689B699B0852
S11315E0012213405A1E9341DBB21800BD4602B0DB
S11315F080BD80B582B000AF78607B681B7DDBB2B4
S1131600802252421343DAB27B681A75C046BD4643
S113161002B080BD80B582B000AF78600A00FB1CC8
S11316201A707B68FA1C12781A75C046BD4602B05F
S113163080BD000080B582B000AF78600A00FB1C5A
S11316401A707B68FA1C12785A757B68042118009A
S1131650024B9847C046BD4602B080BD95150000B8
S113166080B582B000AF78600A00FB1C1A707B68FA
S1131670FA1C12789A75C046BD4602B080BD0000BF
S113168080B582B000AF164B7B607B6802211800E6
S1131690144B98477B6800211800134B9847C046A9
S11316A07B681800114B9847031EF9D17B6807210A
S11316B018000F4B9847C0467B6818000D4B98479D
S11316C003001A0001235340DBB2002BF4D17B68E2
S11316D01800094B9847C046BD4602B080BDC046BD
S11316E0001000401516000035160000D315000048
S11316F061160000B3150000F315000080B582B038
S113170000AF034B7B60C046BD4602B080BDC046FF
S11317100010004080B582B000AF0200FB1D1A70BB
S1131720FB1D1B787F2B09D8064BFA1D127811007C
S11317301F220A40012191400A001A60C046BD469A
S113174002B080BD00E100E080B582B000AF0200CD
S1131750FB1D1A70FB1D1B787F2B0ED80949FB1D3E
S11317601B781A001F23134001229A401300802281
S11317708B50BFF34F8FBFF36F8FC046BD4602B08F
S113178080BDC04600E100E080B582B000AF020039
S1131790FB1D1A70FB1D1B787F2B0AD80749FB1D04
S11317A01B781A001F23134001229A40C0235B00B8
S11317B0CA50C046BD4602B080BDC04600E100E04C
S11317C080B582B000AF78603960C0467B68DB6961
S11317D03A681340FAD1C046BD4602B080BD80B518
S11317E082B000AF786039607B68DB693A68134087
S11317F05A1E9341DBB21800BD4602B080BD80B5CD
S113180082B000AF78607B681B7EDBB21A000123D4
S113181013405A1E9341DBB21800BD4602B080BD8E
S113182080B582B000AF78607B681B7EDBB25B085A
S1131830012213405A1E9341DBB21800BD4602B088
S113184080BD80B582B000AF78607B681B7EDBB260
S11318509B08012213405A1E9341DBB21800BD4677
S113186002B080BD80B582B000AF78607B681B7E1B
S1131870DBB2DB09012213405A1E9341DBB218008C
S1131880BD4602B080BD80B582B000AF78607B6891
S113189080221A76C046BD4602B080BD80B582B0B3
S11318A000AF78607B6801229A75C046BD4602B0DD
S11318B080BD80B582B000AF78607B689B7DDBB271
S11318C01A00012313405A1E9341DBB21800BD468F
S11318D002B080BD80B582B000AF78607B68012221
S11318E01A75C046BD4602B080BD80B582B000AF57
S11318F078607B6802229A75C046BD4602B080BDFE
S113190080B582B000AF78607B689B7DDBB25B08FA
S1131910012213405A1E9341DBB21800BD4602B0A7
S113192080BD80B582B000AF78607B6802221A75F2
S1131930C046BD4602B080BD80B582B000AF7860BD
S11319407B681B68022293431A007B681A607B68D9
S113195003211800024B9847C046BD4602B080BD23
S1131960C117000080B584B000AF786039607B682F
S113197003211800064B98477B681B68FB60FB68D3
S11319803A681340FB60FB681800BD4604B080BD94
S1131990C117000080B582B000AF786039607B6801
S11319A03A681A607B6803211800034B9847C046C5
S11319B0BD4602B080BDC046C117000080B582B0EC
S11319C000AF786039607B683A685A607B680721A9
S11319D01800034B9847C046BD4602B080BDC046C0
S11319E0C117000080B582B000AF78600A00BB1C4C
S11319F01A807B68BA1C12889A81C046BD4602B020
S1131A0080BD80B582B000AF78600A00FB1C1A70FC
S1131A107B68FA1C12789A73C046BD4602B080BD3A
S1131A2080B582B000AF78600A00BB1C1A807B6866
S1131A30BA1C12881A85C046BD4602B080BD80B566
S1131A4082B000AF78607B681B8D9BB21800BD46E6
S1131A5002B080BD80B582B000AF78600A00FB1C84
S1131A601A707B68FA1C302112785A54C046BD465D
S1131A7002B080BD80B582B000AF78600A00BB1CA4
S1131A801A807B68BA1C12885A83C046BD4602B0CD
S1131A9080BD80B582B000AF78607B685B8B9BB201
S1131AA01800BD4602B080BD80B584B000AF786038
S1131AB039607B685A1E9341DBB21C49C42218006A
S1131AC01B4B98473B6818001A4B98470300FB6070
S1131AD0FB68002B01D0FB6824E07B683A689A61BC
S1131AE07A683B6811001800134B98473B6818004C
S1131AF0124B984703005BB21800114B98473B68A0
S1131B0018000E4B984703005BB218000D4B984722
S1131B103B681800094B984703005BB218000A4B56
S1131B20984700231800BD4604B080BD442200003D
S1131B30B30E0000A11D0000791D00009D1F0000D0
S1131B4049170000891700001517000080B582B0FE
S1131B5000AF78600A00FB1C1A707B689A69FB1C52
S1131B601B789BB219001000024B9847C046BD4633
S1131B7002B080BD211A000080B582B000AF786049
S1131B807B689B691800034B9847C046BD4602B06A
S1131B9080BDC0469D18000080B582B000AF78605B
S1131BA07B689B691800034B9847C046BD4602B04A
S1131BB080BDC046EB18000080B582B000AF7860ED
S1131BC07B68044A944663449B0ADBB21800BD4612
S1131BD002B080BD00FCFFBD90B585B000AF786059
S1131BE07B689B69FB60FB681800354B9847031EB4
S1131BF00FD0FB681800334B9847031E09D0FB68CD
S1131C001800314B98477B681B687A681000984726
S1131C1053E0FB6818002D4B9847031E0FD0FB6858
S1131C2018002B4B9847031E09D0FB681800294B5A
S1131C3098477B689B687A68100098473DE0FB688A
S1131C401800254B9847031E1BD0FB681800234B34
S1131C50984703001A003723134005D0FB687F21FF
S1131C6018001F4B984728E07B685C68FB681800E5
S1131C701C4B98470300DAB27B6811001800A04798
S1131C801BE0FB681800184B9847031E15D0FB682F
S1131C901800164B98477B68DB687A6810009847F1
S1131CA0FB6818000D4B98470300BB60BB689AB2F1
S1131CB0FB68110018000A4B9847BD4605B090BD5B
S1131CC0FF170000B3180000D51800002118000009
S1131CD0011900002319000043180000931A0000A2
S1131CE0751A00003F1A00006518000087180000EC
S1131CF090B585B000AF78600E23FC187B6818009F
S1131D00184B9847030023700F23FB1800221A7006
S1131D1018E00F23FB181A78134913009B009B1833
S1131D209B005B5C0E22BA1812789A4203D10F23EF
S1131D30FB181B7812E00F23FB181A780F23FB18EB
S1131D4001321A700F23FB181B78002BE1D0074ACD
S1131D50074B19000020074B984700231800BD4685
S1131D6005B090BDB91B0000000000205E02000019
S1131D7044220000B30E000080B582B000AF78604A
S1131D8039607B68044A934202D1044B3A681A6072
S1131D90C046BD4602B080BD00140042440000208D
S1131DA090B585B000AF78600F23FC187B681800ED
S1131DB06F4B9847030023707B68012118006D4B1B
S1131DC0984703001A0001235340DBB2002B25D0AF
S1131DD00F23FB181A78684913009B009B189B007B
S1131DE0CB1804331B681C221340BB607B680221A0
S1131DF01800624B9847031E08D07B681800604B9C
S1131E0098477B68022118005E4B9847BB68012203
S1131E101A437B68110018005B4B98477B680121CB
S1131E201800584B98470F23FB181A78524913008F
S1131E309B009B189B00CB1804331A687B68110025
S1131E401800514B98470F23FB181A784A4913007E
S1131E509B009B189B00CB1808331A687B68110001
S1131E6018004A4B98470F23FB181A78424913006D
S1131E709B009B189B00CB1804331A6880239B019A
S1131E8013400ED10F23FB181A783B4913009B0013
S1131E909B189B00CB1804331A68C023DB01134042
S1131EA030D00F23FB181A78334913009B009B187A
S1131EB09B00CB180C331B88DB04DB0C99B27A68CB
S1131EC09389C904C80C5B0B5B03191C031C0B43EB
S1131ED093810F23FB181A78274913009B009B1842
S1131EE09B00CB180E331B781A1C07231340D9B25E
S1131EF07A6893894803DB04DB0C191C031C0B432D
S1131F0093810FE00F23FB181A781B4913009B00E1
S1131F109B189B00CB180C331A887B68110018009F
S1131F201B4B98470F23FB181A78134913009B0087
S1131F309B189B00CB180F331A787B68110018008C
S1131F40144B98470F23FB181A780B4913009B0076
S1131F509B189B00CB1810331A787B68110018006B
S1131F600D4B984700231800BD4605B090BDC046F0
S1131F70F11C0000DF1700000000002065190000BC
S1131F8039190000C117000095190000BD1900009F
S1131F90E5190000031A0000551A000080B582B04C
S1131FA000AF78607B681800044B9847030009333E
S1131FB0DBB21800BD4602B080BDC046B91B0000AC
S1131FC080B500AF034B1B681800034B9847C0460D
S1131FD0BD4680BD44000020D91B000080B582B0FE
S1131FE000AF7860044B054A5A60034B05221A601F
S1131FF0C046BD4602B080BD10E000E0FFFFFF0018
S113200080B582B000AF78607B681800024B9847B7
S1132010C046BD4602B080BDDD1F000080B584B05F
S113202000AF786039603B681A0E0F23FB181A70F2
S11320303B68BB6011E0164B164A5A60144B154AB4
S11320409A60C046124B1A6880235B021340F9D091
S1132050BB68114A94466344BB600F23FB181B788A
S11320600F22BA18591E1170002BE4D1084BBA681C
S11320705A60074BBA689A60C046054B1A688023B9
S11320805B021340F9D0C046BD4604B080BDC046D3
S113209010E000E0FFFFFF00010000FF80B584B006
S11320A000AFF8607A600B23FB180A1C1A700B232C
S11320B0FB181B78FA68DB01D3181C337A681A60A2
S11320C0C046BD4604B080BD80B582B000AF0200FA
S11320D03960FB1D1A703A68FB1D1978C023DB05B3
S11320E01800034B9847C046BD4602B080BDC046A9
S11320F09D20000080B582B000AF0200FB1D1A7065
S1132100FB1D1B785B09D8B2FB1D1B781F221340F3
S113211001229A4013001900024B9847C046BD465D
S113212002B080BDC920000080B500AF054B9847C0
S11321303620054B9847FA239B001800034B984719
S1132140F9E7C0461D010000F5200000310B000036
S113215070B500260C4D0D4C641BA410A64209D189
S1132160002600F087F80A4D0A4C641BA410A6420E
S113217005D170BDB300EB5898470136EEE7B300C4
S1132180EB5898470136F2E78022000080220000D5
S113219080220000842200002E2E2F68706C2F7085
S11321A06F72742F68706C5F6770696F5F626173C0
S11321B0652E68002E2E2F68616C2F7372632F6852
S11321C0616C5F75736172745F6173796E632E63A2
S11321D0000000002E2E2F68616C2F7574696C73DB
S11321E02F7372632F7574696C735F72696E6762A3
S11321F075666665722E63002E2E2F68706C2F63D1
S11322006F72652F68706C5F636F72655F6D30709D
S11322106C75735F626173652E63000022110000A8
S113222000110000DE100000BC1000009A10000035
S11322300E120000EC110000D8110000BA110000C9
S1132240A21100002E2E2F68706C2F736572636FBD
S11322506D2F68706C5F736572636F6D2E63000021
S1132260000000000000000000000000000000006A
S113227000000000F8B5C046F8BC08BC9E46704794
S1132280E5000000F8B5C046F8BC08BC9E4670479F
S1072290BD00000089
S11322940400000004001040000003002EFF0000AE
S10722A40000000032
S9030000FC
