:1000000068240020AD040000290500002905000037
:1000100000000000000000000000000000000000E0
:1000200000000000000000000000000029050000A2
:100030000000000000000000290500002905000064
:1000400029050000290500002905000029050000F8
:1000500029050000290500002905000029050000E8
:1000600029050000290500002905000029050000D8
:1000700029050000718200002905000029410000C7
:1000800029050000290500002905000029050000B8
:1000900029050000290500002905000029050000A8
:1000A0002905000029050000290500002905000098
:1000B00029050000290500002905000010B5064C9F
:1000C0002378002B07D1054B002B02D0044800E019
:1000D00000BF0123237010BD680100200000000054
:1000E000A0D40000084B10B5002B03D007490848E6
:1000F00000E000BF07480368002B00D110BD064B8D
:10010000002BFBD09847F9E7000000006C010020AD
:10011000A0D40000A0D400000000000080B500AF13
:1001200000F0F4FEC046BD4680BD000080B584B03E
:1001300000AFF8607A600B23FB180A1C1A700B23BF
:10014000FB181B78FA68DB01D31818337A681A6039
:10015000C046BD4604B080BD80B584B000AFF86035
:100160007A600B23FB180A1C1A700B23FB181B78F0
:10017000FA68DB01D31814337A681A60C046BD46AA
:1001800004B080BD80B582B000AF39601100FB1DA6
:10019000021C1A70BB1D0A1C1A70BB1D1B78002B99
:1001A00008D03A68FB1D1978C023DB051800FFF75B
:1001B000BDFF07E03A68FB1D1978C023DB05180076
:1001C000FFF7CAFFC046BD4602B080BD80B582B011
:1001D00000AF0200FB1D1A70BB1D0A1C1A70FB1D2C
:1001E0001B785B09D8B2FB1D1B781F22134001222C
:1001F0009A401100BB1D1B781A00FFF7C3FFC046D1
:10020000BD4602B080BD80B500AF4B4B1B78DBB262
:100210006F2B14D1484B5B78DBB26E2B0FD10121D1
:100220000520FFF7D3FF454B180000F0CBF8322034
:1002300001F0F4F9424B180000F0C4F873E03E4BB3
:100240001B78DBB26F2B12D13B4B5B78DBB2662B9A
:100250000DD1394B9B78DBB2662B08D100210520EC
:10026000FFF7B4FF374B180000F0ACF85BE0324BFF
:100270001B78DBB2612B17D12F4B5B78DBB2642B81
:1002800012D12D4B9B78DBB2632B0DD1012136208F
:10029000FFF79CFF284B5B78DBB21A002A4B190052
:1002A000100000F061F83EE0234B1B78DBB2742BAA
:1002B00012D1214B5B78DBB2652B0DD11E4B9B78A5
:1002C000DBB2732B08D101213620FFF77FFF1A4BD9
:1002D000180000F077F826E0174B1B78DBB2312BC3
:1002E0001DD11A4A1A480223002100F0C7FE174BFD
:1002F0005B681A00174B5A60144B1B681A00154BA9
:100300001A60144B5B681A02124B1B681A43124B9B
:100310001A60114B1B68180000F054F803E00F4BF3
:10032000180000F04FF80E4B00221A700D4B0022FF
:100330001A70C046BD4680BD440200209CD2000019
:10034000A8D20000B4D200002800002084010020C0
:1003500038030020A80100208C010020BCD200003E
:10036000400200204102002080B582B000AF7860DA
:1003700039607B681B786F2B03D101213720FFF791
:1003800025FF3B6811337968C82218000CF06EFF16
:100390007B6818000CF07BFF03009BB210339AB20D
:1003A0003968074B180001F05DF93B1DC822002198
:1003B00018000CF064FFC046BD4602B080BDC046C8
:1003C0005403002080B582B000AF786079680E4B8E
:1003D000C82218000CF04AFF7B6818000CF057FF89
:1003E00003009BB211339AB20849094B180001F07F
:1003F00039F9084BC822002118000CF040FFC04614
:10040000BD4602B080BDC046390000202800002053
:100410005403002044020020B0B586B000AF7860DD
:1004200000237B6100233B6138E07B680A211800D0
:1004300004F0FAF90B00FB607B680A21180004F055
:10044000B5F903007B60F8680CF05EFD04000D0058
:1004500038690CF059FD02000B0000208021C9050D
:1004600009F09AFA02000B00200029000BF062FF4D
:1004700003000C0025001C0078690CF045FD2200EB
:100480002B000BF013F803000C00180021000CF0F7
:1004900007FD03007B613B6901333B617B68002BF7
:1004A000C3D17B691800BD4606B0B0BD80B582B02F
:1004B00000AF164B7B60164B3B607A683B689A42F4
:1004C0000CD007E03B681A1D3A607A68111D79600C
:1004D00012681A603A680F4B9A42F3D30E4B3B6096
:1004E00004E03B681A1D3A6000221A603A680B4B20
:1004F0009A42F6D30A4B7B600A4B7A68FF218A4303
:100500009A600CF08FFE09F080F9FEE7A0D400009D
:100510000000002068010020680100206404002021
:100520000000000000ED00E080B500AFFEE7C0462F
:1005300080B584B000AFF8607A600B23FB180A1C0A
:100540001A700B23FB181A78FB6820329200796826
:10055000D150C046BD4604B080BD80B582B000AF6A
:1005600078607B681B69802252001A437B681A619D
:10057000C046BD4602B080BD80B582B000AF786095
:100580007B685B69802252011A437B685A61C046CE
:10059000BD4602B080BD80B582B000AF78607B6898
:1005A000DB6908221A437B68DA61C046BD4602B0A7
:1005B00080BD80B582B000AF78607B68DB692022A7
:1005C0001A437B68DA61C046BD4602B080BD80B583
:1005D00082B000AF78607B68DB69802292021A43A8
:1005E0007B68DA61C046BD4602B080BD80B584B08C
:1005F00000AFF8607A600B23FB180A1C1A700B23FB
:10060000FB181B78FA68DB01D31808337A681A6084
:10061000C046BD4604B080BD80B584B000AFF86070
:100620007A600B23FB180A1C1A700B23FB181B782B
:10063000FA68DB01D31804337A681A60C046BD46F5
:1006400004B080BD80B584B000AFF8607A600B2341
:10065000FB180A1C1A700B23FB181B78FA68DB01C5
:10066000D31818337A681A60C046BD4604B080BDFE
:1006700080B584B000AFF8607A600B23FB180A1CC9
:100680001A700B23FB181B78FA68DB01D31814339C
:100690007A681A60C046BD4604B080BD90B585B08A
:1006A00000AF78600C0010001900FB1C221C1A70AF
:1006B000BB1C021C1A707B1C0A1C1A70FB1C1978CC
:1006C000BB1C1A780F23FB1878683024C901411825
:1006D0008A18121912781A700F23FB180F22BA18F1
:1006E00012780F218A431A707B1C1B780F2213404B
:1006F000D9B20F23FB180F22BA1812780A431A70C6
:10070000FB1C1A78BB1C1B7879683020D2018A1830
:10071000D3181B180F22BA1812781A70C046BD469B
:1007200005B090BD90B585B000AF78600C001000AA
:100730001900FB1C221C1A70BB1C021C1A707B1CAB
:100740000A1C1A70FB1C1978BB1C1A780F23FB18A3
:1007500078683024C90141188A18121912781A7061
:100760000F23FB180F22BA1812780F210A401A70B3
:100770007B1C1B781B01D9B20F23FB180F22BA1860
:1007800012780A431A70FB1C1A78BB1C1B78796814
:100790003020D2018A18D3181B180F22BA181278E9
:1007A0001A70C046BD4605B090BD90B585B000AF8B
:1007B00078600C0010001900FB1C221C1A70BB1C76
:1007C000021C1A707B1C0A1C1A70FB1C1978BB1CBB
:1007D0001A780F23FB1878684024C90141188A1839
:1007E000121912781A700F23FB180F22BA181278F8
:1007F00001218A431A707B1C19780F23FB180F22E2
:10080000BA1812780A431A70FB1C1A78BB1C1B78A2
:1008100079684020D2018A18D3181B180F22BA1801
:1008200012781A70C046BD4605B090BDB0B582B012
:1008300000AF786008001100FB1C021C1A70BB1C82
:100840000A1C1A70FB1C1A78BB1C1B78F91C087850
:10085000B91C09787C684025C00120184118491945
:100860000978C9B204200143CCB279684020D20192
:100870008A18D3181B18221C1A70C046BD4602B035
:10088000B0BDB0B582B000AF786008001100FB1CAD
:10089000021C1A70BB1C0A1C1A70FB1C1A78BB1CA9
:1008A0001B78F91C0878B91C09787C684025C001C0
:1008B0002018411849190978C9B204208143CCB2E3
:1008C00079684020D2018A18D3181B18221C1A708C
:1008D000C046BD4602B0B0BD80B584B000AFF86080
:1008E0007A600B23FB180A1C1A700B23FB181B7869
:1008F000FA68DB01D31828337A681A60C046BD460F
:1009000004B080BD80B582B000AF39601100FB1D1E
:10091000021C1A70BB1D0A1C1A70BB1D1B78012B10
:1009200026D0022B44D0002B00D063E03A68FB1D98
:100930001978C023DB051800FFF76EFE3B681B0427
:100940001B0C8022D2051A43FB1D19788223DB057C
:100950001800FFF7C1FF3B681B0CC02212061A43A8
:10096000FB1D19788223DB051800FFF7B5FF41E076
:100970003A68FB1D1978C023DB051800FFF74CFE11
:100980003B681B041B0C1D4A1A43FB1D197882236C
:10099000DB051800FFF7A0FF3B681B0C184A1A4341
:1009A000FB1D19788223DB051800FFF795FF21E076
:1009B0003A68FB1D1978C023DB051800FFF716FE07
:1009C0003B681B041B0C8022D2051A43FB1D1978BF
:1009D0008223DB051800FFF77FFF3B681B0CC0225A
:1009E00012061A43FB1D19788223DB051800FFF756
:1009F00073FFC046C046BD4602B080BD0000024045
:100A0000000002C080B582B000AF39601100FB1D4C
:100A1000021C1A70BB1D0A1C1A70BB1D1B78002B10
:100A200008D03A68FB1D1978C023DB051800FFF7D2
:100A300009FE07E03A68FB1D1978C023DB051800A2
:100A4000FFF716FEC046BD4602B080BD90B583B02C
:100A500000AF040008001100FB1D221C1A70BB1D12
:100A6000021C1A707B1D0A1C1A707B1D1B78012B3F
:100A70000ED0022B2CD0002B00D049E0BB1D1A78E1
:100A8000FB1D19788223DB051800FFF7FAFE3FE013
:100A9000BB1D1B7801229A40FB1D1978C023DB0582
:100AA0001800FFF7B9FDBB1D1A78FB1D19788223CA
:100AB000DB051800FFF7BAFEBB1D1B7801229A4028
:100AC000FB1D1978C023DB051800FFF7BBFD1FE0F5
:100AD000BB1D1B7801229A40FB1D1978C023DB0542
:100AE0001800FFF799FDBB1D1A78FB1D19788223AA
:100AF000DB051800FFF79AFEBB1D1B7801229A4008
:100B0000FB1D1978C023DB051800FFF7B1FDC046B7
:100B1000C046BD4603B090BD90B585B000AF7860CB
:100B200039607B685A090F23FB181A707B68DAB2A8
:100B30000E23FB181F210A401A703B6801330BD1AA
:100B40000E23FB181A780F23FB1819788223D80577
:100B50000023FFF72AFE2FE00E23FB181A780F233D
:100B6000FB1819788223D8050123FFF71EFE0E23F8
:100B7000FB181B78012213400FD00E23FB181B78A3
:100B80005B08DAB23B68DCB20F23FB1819788223CA
:100B9000D8052300FFF7C6FD0EE00E23FB181B78D7
:100BA0005B08DAB23B68DCB20F23FB1819788223AA
:100BB000D8052300FFF772FDC046BD4605B090BDC5
:100BC00080B582B000AF0200FB1D1A70BB1D0A1C6D
:100BD0001A70FB1D1B785B09D8B2FB1D1B781F2206
:100BE0001340D9B2BB1D1B781A00FFF72FFFC04678
:100BF000BD4602B080BD80B582B000AF786039607C
:100C00003A687B6811001800FFF786FFC046BD46B2
:100C100002B080BD80B582B000AF0200FB1D1A702B
:100C2000BB1D0A1C1A70FB1D1B785B09D8B2FB1D8B
:100C30001B781F22134001229A401100BB1D1B7814
:100C40001A00FFF75FFEC046BD4602B080BD80B50A
:100C500082B000AF0200FB1D1A70BB1D0A1C1A7087
:100C6000FB1D1B785B09D8B2FB1D1B781F221340AC
:100C700001229A401100BB1D1B781A00FFF7C2FE2B
:100C8000C046BD4602B080BD80B500AF03F010FD88
:100C9000C046BD4680BD80B500AF00210220FFF7F1
:100CA000B9FF044B19000220FFF7A5FFC046BD465F
:100CB00080BDC0460100020080B500AF064B1800A1
:100CC000FFF785FC054B402221211800FFF730FC7F
:100CD000C046BD4680BDC04600080040001C004024
:100CE00080B500AFFFF7E8FFFFF7D5FF02F0B6FBD6
:100CF00002000449044B180000F07CF9C046BD46D0
:100D000080BDC046004400423803002080B500AFDB
:100D100001210820FFF77EFF00210820FFF750FF88
:100D2000104B19000820FFF766FF00210A20FFF78B
:100D30008EFF02210A20FFF76DFF0B4B19000A20DE
:100D4000FFF759FF00210B20FFF781FF02210B2045
:100D5000FFF760FF054B19000B20FFF74CFFC04663
:100D6000BD4680BD0300080003000A0003000B001D
:100D700080B500AF094B402215211800FFF7D8FBC2
:100D8000064B402212211800FFF7D2FB044B18003B
:100D9000FFF701FCC046BD4680BDC046001C0040B8
:100DA0000008004080B500AFFFF7E2FF054A064BA0
:100DB0001100180000F088FCFFF7A8FFC046BD46F0
:100DC00080BDC046000C00423C03002080B500AF4F
:100DD000094B402217211800FFF7AAFB064B4022BF
:100DE00012211800FFF7A4FB044B1800FFF7E1FBEA
:100DF000C046BD4680BDC046001C00400008004003
:100E000080B500AF064B19002820FFF7F4FE054B14
:100E100019002920FFF7EFFEC046BD4680BDC04641
:100E2000030028000300290080B582B002AFFFF75D
:100E3000CDFF064A0649074800230093102300F01F
:100E4000ADFDFFF7DDFFC046BD4680BDD0010020EF
:100E5000001400425403002080B500AF064B190077
:100E60001920FFF7C8FE054B19001820FFF7C3FE35
:100E7000C046BD4680BDC0460600190006001800E9
:100E800080B500AF0A4B1800FFF767FB094B402203
:100E90001A211800FFF74CFB074A084B11001800F5
:100EA00000F064FAFFF7D8FFC046BD4680BDC046DB
:100EB00000080040001C0040001C00420C03002001
:100EC00080B500AF064B1800FFF756FB054B4022DC
:100ED00005211800FFF72CFBC046BD4680BDC0466B
:100EE00000080040001C004080B500AFFFF7E8FF9D
:100EF000044A054B1100180000F002FDC046BD4633
:100F000080BDC046003000403403002080B500AFF3
:100F1000FFF7BAFE00210520FFF799FE0221052008
:100F2000FFF778FE01235B4219000520FFF763FEFF
:100F300000211B20FFF78BFE02211B20FFF76AFE1A
:100F400001235B4219001B20FFF755FE00211C20E6
:100F5000FFF77DFE02211C20FFF75CFE01235B42B0
:100F600019001C20FFF747FE01212220FFF752FE47
:100F700000212220FFF724FE01235B4219002220DA
:100F8000FFF739FE01212320FFF744FE0021232033
:100F9000FFF716FE01235B4219002320FFF72BFE0B
:100FA00000213620FFF753FE02213620FFF732FEE4
:100FB00001235B4219003620FFF71DFE0021372078
:100FC000FFF745FE02213720FFF724FE01235B4295
:100FD00019003720FFF70FFEFFF782FEFFF7E2FE52
:100FE000FFF722FFFFF74CFFFFF77EFFC046BD462D
:100FF00080BDC04680B584B000AFF860B9607A604B
:10100000FB68BA681100180001F094FD0300180095
:10101000BD4604B080BD80B582B000AF78607B680B
:10102000180001F0F7FD00231800BD4602B080BD96
:1010300080B582B000AF78600A00FB1C1A707A6835
:10104000FB1C1B781900100001F01DFE0023180086
:10105000BD4602B080BD80B582B000AF78600A00A6
:10106000FB1C1A707A68FB1C1B781900100001F039
:101070003AFE00231800BD4602B080BD90B587B08F
:1010800000AFF86008007A6019000B23FB18021CFF
:101090001A700823FB180A1C1A801623FB1800225A
:1010A0001A80FB681522BC18180001F057FE0300D7
:1010B0002370FB68180001F0BAFEC046FA680B23E3
:1010C000FB181B781900100001F081FE03001A00C4
:1010D00001235340DBB2002BF0D1FA681223FC1835
:1010E0000B23FB181B781900100001F0C7FE03004A
:1010F00023801623FB181B887A68D3181222BA188B
:101100001288D2B21A701523FB181B78012B0CD948
:101110001623FB181B8801337A68D3181222BA18D9
:101120001288120A92B2D2B21A701523FB181B78D9
:1011300099B21623FB181622BA1812888A181A8038
:101140001623FA180823FB1812881B889A42B0D37A
:101150001623FB181B881800BD4607B090BD80B54C
:1011600082B000AF78600A00FB1C1A707A68FB1C22
:101170001B781900100001F0A3FE00231800BD46E3
:1011800002B080BD80B582B000AF78600A00FB1C61
:101190001A707A68FB1C1B781900100001F0C9FE58
:1011A00000231800BD4602B080BD90B583B000AFEB
:1011B00078600C0010001900FB1C221C1A70BB1C6C
:1011C000021C1A707B1C0A1C1A7078687B1C1C7825
:1011D000BB1C1A78FB1C1978230001F0E6FE0023E3
:1011E0001800BD4603B090BD80B582B000AF7860F6
:1011F00008001100BB1C021C1A803B000A1C1A804C
:1012000078683B001A88BB1C1B88190001F03FFF5F
:1012100000231800BD4602B080BD80B582B000AF8B
:10122000786008001100FB1C021C1A70BB1C0A1C11
:101230001A707868BB1C1A78FB1C1B78190001F027
:1012400086FF00231800BD4602B080BD80B582B085
:1012500000AF78600A00FB1C1A707A68FB1C1B78D0
:101260001900100001F0A3FF00231800BD4602B0D2
:1012700080BD80B582B000AF786008001100FB1C13
:10128000021C1A70BB1C0A1C1A707868BB1C1A78E6
:10129000FB1C1B78190001F0D8FF00231800BD4685
:1012A00002B080BD80B582B000AF78600A00FB1C40
:1012B0001A707A68FB1C1B781900100002F022F8E3
:1012C00000231800BD4602B080BD80B582B000AFDB
:1012D000786039607B683A681100180002F04EF8B7
:1012E00000231800BD4602B080BD80B582B000AFBB
:1012F00078600A00FB1C1A707A68FB1C1B781900C6
:10130000100001F064FD03001800BD4602B080BD6E
:1013100080B500AF01231800BD4680BD80B584B004
:1013200000AF7860EFF31083FB60FA687B681A60A7
:1013300072B6BFF35F8FC046BD4604B080BD80B5B6
:1013400084B000AF7860BFF35F8F7B681B68FB6081
:10135000FB6883F31088C046BD4604B080BD80B5ED
:1013600000AF01231800BD4680BD000080B584B0E9
:1013700000AF786039607B683A681100180002F0AD
:1013800040FB0300FB60FB68002B01D0FB6809E019
:101390007B68064A5A607B68054A9A607B68054A02
:1013A000DA6000231800BD4604B080BD4D15000072
:1013B000731500009915000080B582B000AF786009
:1013C0007B68180002F0EAFB03001800BD4602B07B
:1013D00080BD80B582B000AF78607B68180002F0F5
:1013E000EEFB03001800BD4602B080BD80B582B0A0
:1013F00000AF78607B68180002F0EFFB0300180074
:10140000BD4602B080BD80B582B000AF7860396063
:101410007B683A681100180002F0EDFB0300180029
:10142000BD4602B080BD80B582B000AF7860396043
:101430007B683A681100180002F05AFC030018009B
:10144000BD4602B080BD80B584B000AFF8607A6060
:101450000B23FB180A1C1A700B23FB181B78012B9B
:1014600007D0022B09D0002B0BD1FB687A681A62D7
:101470000AE0FB687A68DA6106E0FB687A685A621B
:1014800002E00D235B420BE0F8687B685A1E934133
:10149000DAB20B23FB181B78190002F019FD0023A8
:1014A0001800BD4604B080BD80B582B000AF786042
:1014B0007B68180002F056FD03001800BD4602B01C
:1014C00080BD80B582B000AF78607B68180002F004
:1014D00058FD03001800BD4602B080BD80B582B043
:1014E00000AF78600A00FB1C1A707A68FB1C1B783E
:1014F0001900100002F054FD03001800BD4602B0B0
:1015000080BD90B585B000AFF860080011007B6029
:101510000B23FB18021C1A700A23FB180A1C1A70F2
:10152000F8687C680A23FB181A780B23FB181978D3
:10153000230002F079FD03001800BD4605B090BD00
:1015400080B500AF01231800BD4680BD80B584B0D2
:1015500000AF78607B68FB60FB68DB69002B04D020
:10156000FB68DB69FA6810009847C046BD4604B0C6
:1015700080BD80B584B000AF78607B68FB60FB689D
:101580001B6A002B04D0FB681B6AFA68100098479E
:10159000C046BD4604B080BD80B584B000AF786061
:1015A0000A00FB1C1A707B68FB60FB685B6A002BFF
:1015B00006D0FB685B6AFA1C1178FA68100098473D
:1015C000C046BD4604B080BD80B582B000AF786033
:1015D000054B7A681A60044B1B68180003F042F848
:1015E000C046BD4602B080BDE001002090B583B08A
:1015F00000AF0200BB1D1A80074B1C68BB1D1B8877
:10160000180002F07BFF03001900200003F032F8FD
:10161000C046BD4603B090BDE001002090B583B048
:1016200000AF0200BB1D1A80074B1C68BB1D1B8846
:10163000180003F003F803001900200003F01AF863
:10164000C046BD4603B090BDE001002080B500AFAC
:1016500001231800BD4680BD80B500AF01231800EE
:10166000BD4680BD80B584B000AFF860B960BB1DD9
:101670001A80FB681B68BA1D1288B968F868984719
:1016800003001800BD4604B080BD80B584B000AF33
:10169000F860B960BB1D1A80FB685B68BA1D1288D0
:1016A000B968F868984703001800BD4604B080BDCB
:1016B00080B582B000AF786039607B683A681A60A4
:1016C000C046BD4602B080BD80B584B000AF786032
:1016D00039600023FB607B683A685A607B6804339A
:1016E0003A681100180006F0CFFD0300FB60FB68AC
:1016F000002B01DAFB6809E07B68064A9A827B6866
:10170000054A1A617B68054ADA6000231800BD4665
:1017100004B080BD0080FFFF091800004F180000D2
:1017200080B582B000AF78607B680433180006F0A3
:10173000D3FEC046BD4602B080BD80B582B000AFCA
:1017400078607B680433180006F0E2FEC046BD46B0
:1017500002B080BD80B582B000AF78607B68043392
:10176000180006F00DFFC046BD4602B080BD80B532
:1017700082B000AF786039607B6804333A6811004A
:10178000180006F0AFFF03001800BD4602B080BD90
:1017900080B582B000AF78600A00FB1C1A707B68CD
:1017A0001A1DFB1C1B781900100006F021FF030016
:1017B0001800BD4602B080BD80B582B000AF786031
:1017C0000A00FB1C1A707B681A1DFB1C1B78190091
:1017D000100006F0A9FF03001800BD4602B080BD4E
:1017E00080B582B000AF78600A00FB1C1A707B687D
:1017F0001A1DFB1C1B781900100006F0E9FF0300FE
:101800001800BD4602B080BD80B588B000AFF8605A
:10181000B960BB1D1A80FB680C3BFB611023FB18F1
:10182000BA685A601023FB1800221A60BB1D1A8880
:101830001023FB189A601023FA18FB691100180096
:1018400000F028F803001800BD4608B080BD80B540
:1018500088B000AFF860B960BB1D1A80FB680C3B14
:10186000FB611023FB1800225A601023FB18BA6892
:101870001A60BB1D1A881023FB189A601023FA18EF
:10188000FB691100180000F005F803001800BD46C0
:1018900008B080BD80B586B000AF786039603B6825
:1018A0001A680C23FB181A603B685A680C23FB1853
:1018B0005A603B689A680C23FB189A607B68043373
:1018C0000C22BA181100180007F078F8030018006D
:1018D000BD4606B080BD80B582B000AF786039608B
:1018E0007B680C331A003B681A6000231800BD4661
:1018F00002B080BD80B500AF01231800BD4680BD99
:1019000080B582B000AF786039607B683A681100BA
:10191000180007F0AAFC03001800BD4602B080BD05
:1019200080B582B000AF78607B68180007F0C1FC1A
:1019300003001800BD4602B080BD80B582B000AF84
:1019400078607B68180007F00BFD03001800BD46A7
:1019500002B080BD80B582B000AF78607B681800AF
:1019600007F00CFD03001800BD4602B080BD80B535
:1019700082B000AF786039607B683A681100180067
:1019800007F026FD03001800BD4602B080BD80B5FB
:1019900000AF01231800BD4680BD000080B586B0B1
:1019A00000AFF860B9607A601A00BB1C1A80FB684F
:1019B00034331800BB1C1A887B68190000F0ACFA9D
:1019C000031E02D00D235B4220E0FB680833BA6897
:1019D0001100180004F012FA03007B617B69002BF0
:1019E00001D07B6912E0FB680A4A5A60FB680A4A28
:1019F0001A60FB68094A9A60FB68094ADA60FB686A
:101A0000084A1A61FB68084A5A6100231800BD465B
:101A100006B080BD931D0000371D0000191E000098
:101A2000A91E00007B1E0000E91E000080B582B0E8
:101A300000AF78607B680833180004F025FA7B68F3
:101A400000225A607B6800221A6000231800BD46FD
:101A500002B080BD80B582B000AF78607B6808338B
:101A6000180004F06FFA00231800BD4602B080BDD4
:101A700080B582B000AF78607B680833180004F04E
:101A80007BFA00231800BD4602B080BD80B582B04D
:101A900000AF786039607A683B681A6000231800EC
:101AA000BD4602B080BD80B584B000AFF8607A60FA
:101AB0000B23FB180A1C1A700B23FB181B78012B35
:101AC00012D0022B1FD0002B2CD1FB687A689A62AF
:101AD000FB68083318007B685A1E9341DBB21A007A
:101AE000012104F043FC20E0FB687A685A62FB683D
:101AF000083318007B685A1E9341DBB21A0002219A
:101B000004F034FC11E0FB687A68DA62FB680833A1
:101B100018007B685A1E9341DBB21A00032104F0BF
:101B200025FC02E00D235B4200E000231800BD46C7
:101B300004B080BD80B582B000AF78603B00197002
:101B40007B6808331A003B001B78191C100004F056
:101B500093FB00231800BD4602B080BD80B582B063
:101B600000AF786039607B6808333A68110018006C
:101B700004F01FFA00231800BD4602B080BD80B5F6
:101B800082B000AF78600A00FB1C1A707B680833D3
:101B90001A00FB1C1B781900100004F02DFA00231A
:101BA0001800BD4602B080BD80B582B000AF78603D
:101BB0000A00FB1C1A707B6808331A00FB1C1B7898
:101BC0001900100004F03EFA00231800BD4602B0D0
:101BD00080BD80B582B000AF78600A00FB1C1A702F
:101BE0007B6808331A00FB1C1B781900100004F0F6
:101BF0004FFA00231800BD4602B080BD80B582B008
:101C000000AF78600A00FB1C1A707B6808331A006A
:101C1000FB1C1B781900100004F060FA0023180068
:101C2000BD4602B080BD80B582B000AF78600A00CA
:101C3000FB1C1A707B6808331A00FB1C1B78190008
:101C4000100004F071FA00231800BD4602B080BDF8
:101C500080B582B000AF786039607B6808331800C7
:101C600004F029FB031C1A1C3B681A70002318009F
:101C7000BD4602B080BD80B582B000AF78607B68A1
:101C80000833180004F0D2FA03001800BD4602B071
:101C900080BD80B582B000AF78607B6834331800B7
:101CA00000F0AAF903005A1E9341DBB21800BD46AA
:101CB00002B080BD80B584B000AF786039607B68C9
:101CC0003033FB607B684433BB603B68002B11D032
:101CD000FB681A683B681A60BB681B889AB23B684D
:101CE0009A807B683433180000F086F903009AB2BA
:101CF0003B68DA80FB681B680122134002D0042392
:101D00005B4200E000231800BD4604B080BD80B5F2
:101D100082B000AF78607B683433180000F079F946
:101D200003001800BD4602B080BD80B500AF01239E
:101D30001800BD4680BD80B586B000AFF860B960C0
:101D4000BB1D1A80FB687B617B6944229A5A7B69C0
:101D50004C215B5A9A4202D01C235B4215E07B69FE
:101D6000BA689A647B69BA1D4C2112885A527B6901
:101D70004422002199527B6901221A637B6908334E
:101D8000180004F0ADFABB1D1B881800BD4606B054
:101D900080BD80B588B000AFF860B960BB1D1A8007
:101DA0001E23FB1800221A80FB68BB611023FB185E
:101DB0001800FFF7B3FABB693433180000F01CF9C0
:101DC00003007B611023FB181800FFF7B8FA0FE03F
:101DD000BB69343318001E23FB181B881E22BA1857
:101DE000591C11801A00BB689B18190000F0B5F847
:101DF0001E23FB181A887B699A4206D21E23FA1802
:101E0000BB1D12881B889A42E2D31E23FB181B8835
:101E10001800BD4608B080BDB0B584B000AF786092
:101E20007B68083BFB60FB6844229A5AFB684C21A4
:101E30005B5A9A4218D0FB6808331C00FB689A6C06
:101E4000FB6844215B5A591C8DB2F96844200D523D
:101E5000D3181B781900200004F0A9F9FB68083397
:101E6000180004F03DFA04E0FB680833180004F0A1
:101E700044FAC046BD4604B0B0BD80B584B000AFE2
:101E800078607B68083BFB60FB6800221A63FB6894
:101E90005B6A002B04D0FB685B6AFA681000984705
:101EA000C046BD4604B080BD80B584B000AF786048
:101EB0000A00FB1C1A707B68083BFB60FB6834332C
:101EC0001A00FB1C1B781900100000F069F8FB6871
:101ED0009B6A002B04D0FB689B6AFA681000984745
:101EE000C046BD4604B080BD80B584B000AF786008
:101EF0007B68083BFB60FB6800221A63FB68DB6AB7
:101F0000002B04D0FB68DB6AFA6810009847C046D3
:101F1000BD4604B080BDC04680B584B000AFF86057
:101F2000B9607A607B68013B7A68134002D00D2368
:101F30005B420EE07B685A1EFB685A60FB68002219
:101F40009A60FB689A68FB68DA60FB68BA681A6096
:101F500000231800BD4604B080BD80B582B000AF3C
:101F6000786039607B68DA687B689B689A4211D038
:101F70007B681A687B6899687B685B680B40D3183C
:101F80001A783B681A707B689B685A1C7B689A6059
:101F9000002301E00A235B421800BD4602B080BD69
:101FA00080B582B000AF78600A00FB1C1A707B68B5
:101FB0001A687B68D9687B685B680B40D318FA1C89
:101FC00012781A707B68DA687B689B68D21A7B6823
:101FD0005B689A4206D97B68DA687B685B68D21ACC
:101FE0007B689A607B68DB685A1C7B68DA60002338
:101FF0001800BD4602B080BD80B582B000AF7860E9
:102000007B68DA687B689B68D31A1800BD4602B00B
:1020100080BD80B582B000AF78607B68DA687B688D
:102020009A6000231800BD4602B080BD80B582B022
:1020300000AF0200FB1D1A70FB1D1B787F2B09D817
:10204000064BFA1D127811001F220A40012191400F
:102050000A001A60C046BD4602B080BD00E100E043
:1020600080B582B000AF0200FB1D1A70FB1D1B780B
:102070007F2B0ED80949FB1D1B781A001F23134024
:1020800001229A40130080228B50BFF34F8FBFF381
:102090006F8FC046BD4602B080BDC04600E100E083
:1020A00080B582B000AF0200FB1D1A70FB1D1B78CB
:1020B0007F2B0AD80749FB1D1B781A001F231340EA
:1020C00001229A40C0235B00CA50C046BD4602B000
:1020D00080BDC04600E100E080B582B000AF78600E
:1020E0000A00BB1C1A80C0467B681B8C9BB2BA1CC2
:1020F000128813409BB2002BF6D1C046BD4602B0F9
:1021000080BD80B582B000AF78600A00BB1C1A8029
:102110007B681B8C9BB2BA1C128813409BB25A1E60
:102120009341DBB21800BD4602B080BD80B582B0DD
:1021300000AF78607B689B79DBB21A000123134003
:102140005A1E9341DBB21800BD4602B080BD80B577
:1021500082B000AF78607B689B79DBB29B0801227C
:1021600013405A1E9341DBB21800BD4602B080BD39
:1021700080B582B000AF78600A00FB1C1A70FB1CAF
:102180001B7801225340DBB2002B03D07B68012275
:102190001A7102E07B6801225A71C046BD4602B046
:1021A00080BD80B582B000AF78600A00FB1C1A7059
:1021B000FB1C1B7801225340DBB2002B03D07B6851
:1021C00002221A7102E07B6802225A71C046BD46A3
:1021D00002B080BD80B582B000AF78600A00FB1C01
:1021E0001A70FB1C1B7801225340DBB2002B03D07A
:1021F0007B6804221A7102E07B6804225A71C0468F
:10220000BD4602B080BD80B582B000AF78607B680B
:102210009B8C9BB21800BD4602B080BD80B582B0D9
:1022200000AF78607B681B78DBB201221343DAB21F
:102230007B681A707B6801211800FFF74DFFC046CC
:10224000BD4602B080BD80B582B000AF78607B68CB
:102250001B78DBB202221343DAB27B681A707B6808
:1022600003211800FFF738FFC046BD4602B080BD0D
:1022700080B584B000AF78607B6803211800FFF759
:102280002BFF0F23FB187A6812781A700F23FB18A4
:102290001B785B08DAB20F23FB1801210A401A7081
:1022A0000F23FB181B785A1E9341DBB21800BD4662
:1022B00004B080BD80B582B000AF78607B681B78C9
:1022C000DBB202229343DAB27B681A707B68032187
:1022D0001800FFF701FFC046BD4602B080BD80B5C3
:1022E00084B000AF78600A00FB1C1A707B68032181
:1022F0001800FFF7F1FE0F23FB187A6812781A70A6
:102300000F23FB180F22BA18F91C127809780A401B
:102310001A700F23FB181B781800BD4604B080BD4F
:1023200080B582B000AF78600A00FB1C1A707B6831
:10233000FA1C12781A707B6803211800FFF7CCFE94
:10234000C046BD4602B080BD80B582B000AF7860A7
:102350000A00FB1C1A707B68FA1C12785A70C0467F
:10236000BD4602B080BD80B584B000AF78600A0081
:10237000FB1C1A700F23FB187A6892781A700F23CF
:10238000FB180F22BA1812780F218A431A70FB1C0F
:102390001B780F221340D9B20F23FB180F22BA1853
:1023A00012780A431A707B680F22BA1812789A7052
:1023B000C046BD4604B080BD80B582B000AF786035
:1023C0000A00FB1C1A707B68FA1C12789A70C046CF
:1023D000BD4602B080BD80B582B000AF78600A0013
:1023E000FB1C1A707B68FA1C1278DA70C046BD4676
:1023F00002B080BD80B584B000AF78600A00BB1C1D
:102400001A800E23FB187A6812891A800E23FB1893
:102410000E22BA1812881F218A431A80BB1C1B88FF
:102420001F22134099B20E23FB180E22BA181288ED
:102430000A431A807B680E22BA1812881A81054A4C
:102440007B6811001800FFF747FEC046BD4604B088
:1024500080BDC046FF07000080B584B000AF786043
:102460000A00BB1C1A800E23FB187A6812891A8096
:102470000E23FB180E22BA18128810490A401A803F
:10248000BB1C1B881B029AB2F8235B01134099B254
:102490000E23FB180E22BA1812880A431A807B6892
:1024A0000E22BA1812881A81054A7B68110018009A
:1024B000FFF712FEC046BD4604B080BDFFE0FFFF3F
:1024C000FF07000080B582B000AF78600A00BB1C37
:1024D0001A807B68BA1C12881A81054A7B68110031
:1024E0001800FFF7F9FDC046BD4602B080BDC046EA
:1024F000FF07000080B582B000AF78607B685B8921
:102500009BB2012213439AB27B685A81044A7B68CA
:1025100011001800FFF7E0FDC046BD4602B080BDC7
:10252000FF07000080B582B000AF78607B685B89F0
:102530009BB2012293439AB27B685A81044A7B681A
:1025400011001800FFF7C8FDC046BD4602B080BDAF
:10255000FF07000080B582B000AF78607B685B89C0
:102560009BB2042213439AB27B685A81044A7B6867
:1025700011001800FFF7B0FDC046BD4602B080BD97
:10258000FF07000080B582B000AF78607B685B8990
:102590009BB2042293439AB27B685A81044A7B68B7
:1025A00011001800FFF798FDC046BD4602B080BD7F
:1025B000FF07000080B584B000AF78600A00BB1C44
:1025C0001A800E23FB187A6852891A800E23FB1892
:1025D0000E22BA18128830218A431A80BB1C1B882D
:1025E0001B019BB23022134099B20E23FB180E221E
:1025F000BA1812880A431A807B680E22BA18128809
:102600005A81054A7B6811001800FFF765FDC04636
:10261000BD4604B080BDC046FF07000080B584B051
:1026200000AF78600E23FB187A6852891A800E2357
:10263000FB181B881B099AB20E23FB1803210A40C2
:102640001A800E23FB181B881800BD4604B080BDFD
:1026500080B584B000AF78600A00BB1C1A800E23DE
:10266000FB187A6852891A800E23FB180E22BA18BA
:10267000128810490A401A80BB1C1B881B029AB2A0
:10268000E023DB00134099B20E23FB180E22BA1888
:1026900012880A431A807B680E22BA1812885A815F
:1026A000054A7B6811001800FFF716FDC046BD46BD
:1026B00004B080BDFFF8FFFFFF07000080B582B0C7
:1026C00000AF78600A00BB1C1A807B68BA1C1288B5
:1026D0005A81054A7B6811001800FFF7FDFCC046CF
:1026E000BD4602B080BDC046FF07000080B582B085
:1026F00000AF78600A00FB1C1A707B68FA1C127825
:102700001A73054A7B6811001800FFF7E5FCC04604
:10271000BD4602B080BDC046FF07000080B582B054
:1027200000AF78600A00FB1C1A707B68FA1C1278F4
:102730005A73054A7B6811001800FFF7CDFCC046AC
:10274000BD4602B080BDC046FF07000080B582B024
:1027500000AF78600A00BB1C1A807B68BA1C128824
:10276000DA817B6840211800FFF7B6FCC046BD4601
:1027700002B080BD80B582B000AF78600A00BB1C9B
:102780001A807B68BA1C12881A827B688021180024
:10279000FFF7A2FCC046BD4602B080BD80B582B046
:1027A00000AF78600A00BB1C1A807B68BA1C1288D4
:1027B0005A8280235A007B6811001800FFF78CFCB6
:1027C000C046BD4602B080BD80B582B000AF786023
:1027D0000A00BB1C1A807B68BA1C12889A8280236C
:1027E0009A007B6811001800FFF776FCC046BD46D2
:1027F00002B080BD80B582B000AF78607B681B7E80
:10280000DBB202221343DAB27B681A76044A7B6891
:1028100011001800FFF760FCC046BD4602B080BD45
:10282000FF07000080B582B000AF78600A00FB1C93
:102830001A707B68FA1C12781A77C046BD4602B03F
:1028400080BD80B582B000AF786039607B683A683F
:102850009A62C046BD4602B080BD80B582B000AF6E
:1028600078607B68044A944663449B0ADBB2180094
:10287000BD4602B080BDC04600BCFFBD90B585B06E
:1028800000AF78607B680E22BC181800FFF7E5FFE8
:10289000030023700F23FB1800221A7018E00F2387
:1028A000FB181A780F491300DB009B1A9B005B5C36
:1028B0000E22BA1812789A4203D10F23FB181B7804
:1028C0000CE00F23FB181A780F23FB1801321A7043
:1028D0000F23FB181B78002BE1D000231800BD4606
:1028E00005B090BDD4D2000080B582B000AF786052
:1028F0007B685B691800FFF7B0FF03001933DBB298
:102900001800BD4602B080BD80B582B000AF7860CF
:102910003960C046BD4602B080BD80B582B000AF10
:1029200078600A00FB1C1A707B6801211800FFF711
:10293000E8FB03001A0001235340DBB2002B14D044
:102940007B6802211800FFF7CAFC031E08D07B68D1
:102950001800FFF7AFFC7B6802211800FFF7BCFBF3
:102960007B6801211800FFF7DBFC7B680121180060
:10297000FFF7B2FBFB1C1A7865491300DB009B1ABA
:102980009B00CB1802331A787B6811001800FFF700
:10299000DBFCFB1C1A785E491300DB009B1A9B00D2
:1029A000CB1803331A787B6811001800FFF704FD79
:1029B000FB1C1A7856491300DB009B1A9B00CB18AE
:1029C00004331A787B6811001800FFF704FDFB1C24
:1029D0001A784F491300DB009B1A9B00CB18063373
:1029E0001A887B6811001800FFF76CFDFB1C1A7831
:1029F00047491300DB009B1A9B00CB1808331A8849
:102A00007B6811001800FFF759FEFB1C1A7840493B
:102A10001300DB009B1A9B00CB180A331A787B68E3
:102A200011001800FFF762FEFB1C1A7838491300EA
:102A3000DB009B1A9B00CB180B331A787B681100C4
:102A40001800FFF76BFEFB1C1A7831491300DB00FE
:102A50009B1A9B00CB180C331A887B681100180056
:102A6000FFF774FEFB1C1A7829491300DB009B1A40
:102A70009B00CB180E331A887B6811001800FFF7F3
:102A800079FEFB1C1A7822491300DB009B1A9B007D
:102A9000CB1810331A887B6811001800FFF77EFEF0
:102AA000FB1C1A781A491300DB009B1A9B00CB18F9
:102AB00012331A887B6811001800FFF785FEFB1C93
:102AC0001A7813491300DB009B1A9B00CB181433B0
:102AD0001A787B6811001800FFF7A4FE00227B68BB
:102AE00011001800FFF7ADFEFB1C1A78084913000F
:102AF000DB009B1A9B00CB1801331A787B6811000E
:102B00001800FFF70DFC00231800BD4602B080BD81
:102B1000D4D2000080B582B000AF78607B68180026
:102B2000FFF7C8FB7B681800FFF778FBC046BD467F
:102B300002B080BD80B582B000AF786039607B683C
:102B40003A681A603B681800FFF798FE03001A0005
:102B50003B6811001800FFF7E0FE03001800BD46B7
:102B600002B080BD80B584B000AF786039603B684A
:102B70001800FFF783FE03001A003B6811001800DD
:102B8000FFF7CBFE0300FB60FB68002B01D0FB6866
:102B900024E07B683A685A617A683B681100180043
:102BA000FFF7B2FE7B681800FFF79EFE03005BB2E2
:102BB0001800FFF755FA7B681800FFF795FE030031
:102BC0005BB21800FFF76CFA7B681800FFF78CFE09
:102BD00003005BB21800FFF729FA00231800BD4676
:102BE00004B080BD80B582B000AF786039607B688A
:102BF0003A681A613B681800FFF740FE03001A00AC
:102C00003B6811001800FFF788FE03001800BD465E
:102C100002B080BD80B582B000AF78607B681B6871
:102C20001800FFF777FFC046BD4602B080BD80B5F3
:102C300082B000AF78607B681800FFF755FE030094
:102C40005BB21800FFF70CFA7B681800FFF74CFE28
:102C500003005BB21800FFF723FA7B685B6918007A
:102C6000FFF758FFC046BD4602B080BD80B582B0B8
:102C700000AF78607B681B691800FFF74BFFC04608
:102C8000BD4602B080BD80B582B000AF78600A005A
:102C9000FB1C1A707B681B681800FFF7D4FAC0464B
:102CA000BD4602B080BD80B582B000AF78600A003A
:102CB000FB1C1A707B685B691800FFF7C4FAC046FA
:102CC000BD4602B080BD80B582B000AF78600A001A
:102CD000FB1C1A707B681B691800FFF7B4FAC0462A
:102CE000BD4602B080BD80B582B000AF78600A00FA
:102CF000FB1C1A707B681B681800FFF7DBFAC046E4
:102D0000BD4602B080BD80B582B000AF78600A00D9
:102D1000FB1C1A707B685B691800FFF7CBFAC04692
:102D2000BD4602B080BD80B582B000AF78600A00B9
:102D3000FB1C1A707B681B691800FFF7BBFAC046C2
:102D4000BD4602B080BD80B582B000AF78607B68C0
:102D50001B6924331800BD4602B080BD80B582B027
:102D600000AF78607B681B681800FFF757FC030012
:102D7000032B01D1012300E002231800BD4602B05D
:102D800080BD80B582B000AF78607B685B69180059
:102D9000FFF744FC0300032B01D1012300E00223D1
:102DA0001800BD4602B080BD80B582B000AF78602B
:102DB0007B681B691800FFF731FC0300032B01D16E
:102DC000012300E002231800BD4602B080BD80B59B
:102DD00082B000AF78600A00FB1C1A707B681B6829
:102DE0001800FFF7A3F903001800BD4602B080BD2C
:102DF00080B582B000AF78600A00FB1C1A707B6857
:102E00005B691800FFF792F903001800BD4602B095
:102E100080BD80B582B000AF78607B681B69180008
:102E2000FFF784F903001800BD4602B080BD80B5ED
:102E300082B000AF78607B681B681800FFF7DAFC8F
:102E4000C046BD4602B080BD80B582B000AF78609C
:102E50007B685B691800FFF7CDFCC046BD4602B039
:102E600080BD80B582B000AF78607B681B691800B8
:102E7000FFF7C0FCC046BD4602B080BD80B582B041
:102E800000AF78600A00FB1C1A707B681B68180092
:102E9000FFF7B9F903001800BD4602B080BD80B548
:102EA00082B000AF78600A00FB1C1A707B685B6917
:102EB0001800FFF7A8F903001800BD4602B080BD56
:102EC00080B582B000AF78600A00FB1C1A707B6886
:102ED0001A68FB1C1B781900100000F0CBFAC046E2
:102EE000BD4602B080BD80B582B000AF78600A00F8
:102EF000FB1C1A707B685A69FB1C1B7819001000B8
:102F000000F0B8FAC046BD4602B080BD80B582B0C0
:102F100000AF78600A00FB1C1A707B681A69FB1C02
:102F20001B781900100000F0A5FAC046BD4602B09B
:102F300080BD80B582B000AF78600A00FB1C1A70BB
:102F40007B681A68FB1C1B789BB219001000FFF706
:102F500031FBC046BD4602B080BD80B582B000AF37
:102F600078600A00FB1C1A707B685A69FB1C1B788E
:102F70009BB219001000FFF71DFBC046BD4602B012
:102F800080BD80B582B000AF78600A00FB1C1A706B
:102F90007B681A69FB1C1B789BB219001000FFF7B5
:102FA00009FBC046BD4602B080BD90B583B000AFFE
:102FB00078600C0010001900FB1C221C1A70BB1C4E
:102FC000021C1A707B1C0A1C1A707B681A68FB1C96
:102FD0001B789BB219001000FFF70CFA7B681A6887
:102FE000BB1C1B789BB219001000FFF735FAC046D6
:102FF000BD4603B090BD90B583B000AF78600C00C3
:1030000010001900FB1C221C1A70BB1C021C1A7039
:103010007B1C0A1C1A707B685A69FB1C1B789BB2CC
:1030200019001000FFF7E6F97B685A69BB1C1B7892
:103030009BB219001000FFF70FFAC046BD4603B05F
:1030400090BD90B583B000AF78600C0010001900FF
:10305000FB1C221C1A70BB1C021C1A707B1C0A1C55
:103060001A707B681A69FB1C1B789BB21900100050
:10307000FFF7C0F97B681A69BB1C1B789BB219006B
:103080001000FFF7E9F9C046BD4603B090BD80B51A
:1030900082B000AF786008001100BB1C021C1A80CF
:1030A0003B000A1C1A807B681A68BB1C1B8819002D
:1030B0001000FFF74BFB7B681A683B001B88190068
:1030C0001000FFF757FBC046BD4602B080BD80B57B
:1030D00082B000AF786008001100BB1C021C1A808F
:1030E0003B000A1C1A807B685A69BB1C1B881900AC
:1030F0001000FFF72BFB7B685A693B001B88190007
:103100001000FFF737FBC046BD4602B080BD80B55A
:1031100082B000AF786008001100BB1C021C1A804E
:103120003B000A1C1A807B681A69BB1C1B881900AB
:103130001000FFF70BFB7B681A693B001B88190026
:103140001000FFF717FBC046BD4602B080BD80B53A
:1031500082B000AF786008001100FB1C021C1A70DE
:10316000BB1C0A1C1A70C046BD4602B080BD80B5AB
:1031700082B000AF786008001100FB1C021C1A70BE
:10318000BB1C0A1C1A70C046BD4602B080BD80B58B
:1031900082B000AF786008001100FB1C021C1A709E
:1031A000BB1C0A1C1A70C046BD4602B080BD80B56B
:1031B00082B000AF78600A00FB1C1A70FB1C1B7801
:1031C000012B05D17B681B681800FFF7C3F904E0E9
:1031D0007B681B681800FFF7D5F9C046BD4602B0F2
:1031E00080BD80B582B000AF78600A00FB1C1A7009
:1031F000FB1C1B78012B05D17B685B691800FFF76E
:10320000A9F904E07B685B691800FFF7BBF9C046C9
:10321000BD4602B080BD80B582B000AF78600A00C4
:10322000FB1C1A70FB1C1B78012B05D17B681B69EA
:103230001800FFF78FF904E07B681B691800FFF79F
:10324000A1F9C046BD4602B080BD80B582B000AFD6
:10325000786008001100FB1C021C1A70BB1C0A1CC1
:103260001A70BB1C1B78012B05D17B681B681800EA
:10327000FFF740F904E07B681B681800FFF752F97C
:10328000C046BD4602B080BD80B582B000AF786058
:1032900008001100FB1C021C1A70BB1C0A1C1A70CF
:1032A000BB1C1B78012B05D17B685B691800FFF7FD
:1032B00021F904E07B685B691800FFF733F9C04629
:1032C000BD4602B080BD80B582B000AF7860080016
:1032D0001100FB1C021C1A70BB1C0A1C1A70BB1CC0
:1032E0001B78012B05D17B681B691800FFF702F9D9
:1032F00004E07B681B691800FFF714F9C046BD465F
:1033000002B080BD80B582B000AF78600A00FB1CBF
:103310001A707B681A68FB1C1B789BB2190010009E
:10332000FFF796F9C046BD4602B080BD80B582B0B9
:1033300000AF78600A00FB1C1A707B685A69FB1C9E
:103340001B789BB219001000FFF782F9C046BD46FA
:1033500002B080BD80B582B000AF78600A00FB1C6F
:103360001A707B681A69FB1C1B789BB2190010004D
:10337000FFF76EF9C046BD4602B080BD80B582B091
:1033800000AF786039607B681B681800FEF7DFFECD
:1033900003001A003B681A70C046BD4602B080BDEB
:1033A00080B582B000AF786039607B685B691800D7
:1033B000FEF7CDFE03001A003B681A70C046BD46FA
:1033C00002B080BD80B582B000AF786039607B68A4
:1033D0001B691800FEF7BBFE03001A003B681A7059
:1033E000C046BD4602B080BD90B585B000AF7860E4
:1033F0000C0010001900FB1C221C1A70BB1C021CC4
:103400001A707B1C0A1C1A707B685B69FB60BB1C12
:103410001B78012B07D17B1C1A78FB681100180060
:10342000FEF7D8FE16E0BB1C1B78022B07D17B1CD5
:103430001A78FB6811001800FEF7B3FE0AE0BB1C07
:103440001B78002B06D17B1C1A78FB681100180032
:10345000FEF78EFEC046BD4605B090BD80B500AFFC
:1034600000231800BD4680BD80B500AF00231800C2
:10347000BD4680BD90B585B000AF78600A00FB1CEA
:103480001A700F23FC187B681800FEF7F1FE03008A
:1034900023707B681800FEF70DFFFB1C1A787B6811
:1034A00011001800FEF75FFF0F23FB181B78002B9D
:1034B00003D07B681800FEF7C6FEC046BD4605B0C7
:1034C00090BDC04680B582B000AF0200FB1D1A70EF
:1034D000FB1D1B787F2B09D8064BFA1D12781100B3
:1034E0001F220A40012191400A001A60C046BD46D1
:1034F00002B080BD00E100E080B582B000AF020004
:10350000FB1D1A70FB1D1B787F2B0ED80949FB1D74
:103510001B781A001F23134001229A4013008022B7
:103520008B50BFF34F8FBFF36F8FC046BD4602B0C5
:1035300080BDC04600E100E080B582B000AF02006F
:10354000FB1D1A70FB1D1B787F2B0AD80749FB1D3A
:103550001B781A001F23134001229A40C0235B00EE
:10356000CA50C046BD4602B080BDC04600E100E082
:1035700080B582B000AF78607B681B6CFF2213407F
:103580001800BD4602B080BD80B582B000AF786043
:103590007B681B6C1B0A7F2213401800BD4602B0DB
:1035A00080BD80B582B000AF78607B685B6C5B09E2
:1035B000012213405A1E9341DBB21800BD4602B0EF
:1035C00080BD80B582B000AF78607B68A4229B5834
:1035D0007F2213401800BD4602B080BD80B582B086
:1035E00000AF78607B68A4229B581B0A3F221340DF
:1035F0001800BD4602B080BD80B582B000AF7860D3
:103600007B68C4229B585B0D012213405A1E9341D4
:10361000DBB21800BD4602B080BD80B582B000AFFD
:1036200078607B68C4229B581B0C1F221340180033
:10363000BD4602B080BD80B582B000AF7860396011
:103640007B683A689A60C046BD4602B080BD80B5CE
:1036500082B000AF786039607B683A68DA60C04653
:10366000BD4602B080BD80B582B000AF78607B6897
:103670009B6901221A437B689A61C046BD4602B02D
:1036800080BD80B584B000AF78607B689B69FB60CB
:10369000FB6801221340FB60FB685A1E9341DBB2BA
:1036A0001800BD4604B080BD80B582B000AF786020
:1036B0007B689B69012293431A007B689A61C0462C
:1036C000BD4602B080BD80B582B000AF78607B6837
:1036D0009B6902221A437B689A61C046BD4602B0CC
:1036E00080BD80B582B000AF78607B689B690222A4
:1036F00093431A007B689A61C046BD4602B080BD04
:1037000080B582B000AF78607B689B6920221A4345
:103710007B689A61C046BD4602B080BD80B582B06C
:1037200000AF78607B689B69202293431A007B6816
:103730009A61C046BD4602B080BD80B584B000AF7E
:1037400078607B689B69FB60FB681B0A0122134061
:10375000FB60FB685A1E9341DBB21800BD4604B003
:1037600080BD80B584B000AF78607B689B69FB60EA
:10377000FB685B0A01221340FB60FB685A1E934101
:10378000DBB21800BD4604B080BD80B582B000AF8A
:10379000786039607B689A693B681A437B689A61F4
:1037A000C046BD4602B080BD80B582B000AF786033
:1037B00039607B683A68DA61C046BD4602B080BDB8
:1037C00080B582B000AF786039607B683A681A656E
:1037D000C046BD4602B080BD80B582B000AF786003
:1037E0007B681B6D1800BD4602B080BD80B584B0FB
:1037F00000AF78600A00FB1C1A707B685B6DFB6091
:10380000FB6801229343FB60FB1C1B78FA6813439F
:10381000FB607B68FA685A65C046BD4604B080BD4F
:1038200080B584B000AF78600A00FB1C1A707B681A
:103830005B6DFB60FB68084A1340FB60FB1C1B7858
:103840005B021A00FB681343FB607B68FA685A65E9
:10385000C046BD4604B080BDFFFDFFFF80B584B00B
:1038600000AF786039607B685B6DFB60FB683A682D
:103870001340FB60FB681800BD4604B080BD80B5F6
:1038800082B000AF786039607B683A685A65C0469C
:10389000BD4602B080BD80B582B000AF78603960AF
:1038A0007B683A68DA65C046BD4602B080BD80B527
:1038B00082B000AF786039607B6880213A685A50E6
:1038C000C046BD4602B080BD80B582B000AF786012
:1038D00039607B6884213A685A50C046BD4602B0C0
:1038E00080BD80B582B000AF786039607B68882188
:1038F0003A685A50C046BD4602B080BD80B582B01D
:1039000000AF786039607B6890213A685A50C046B1
:10391000BD4602B080BD80B582B000AF786039602E
:103920007B68A0213A685A50C046BD4602B080BDAF
:1039300080B584B000AF786039607B68A8229B585E
:10394000FB60FB683F229343FB603B683F221340D0
:10395000FA681343FB607B68A821FA685A50C04696
:10396000BD4604B080BD80B582B000AF78603960DC
:103970007B68BC213A685A50C046BD4602B080BD43
:1039800080B582B000AF786039607B68C0213A684A
:103990005A50C046BD4602B080BD80B582B000AF6F
:1039A000786039607B68C8213A685A50C046BD4685
:1039B00002B080BD80B582B000AF786039607B68AE
:1039C000D0213A685A50C046BD4602B080BD80B58D
:1039D00082B000AF786039607B68E0213A685A5065
:1039E000C046BD4602B080BD80B582B000AF7860F1
:1039F00039607B68F0213A685A50C046BD4602B033
:103A000080BD80B582B000AF786039607B683A686D
:103A10001A607B681B681800FFF725FEC0467B68AC
:103A20001B681800FFF72DFE03001A000123534006
:103A3000DBB2002BF3D17B681B681800FFF743FE55
:103A40003B684C4A93427DD14B4B7A681A607B6845
:103A50004A4A9A617B681B6800211800FFF795FEAF
:103A60007B681B6800211800FFF7E5FD7B681B6879
:103A7000434A11001800FFF797FE7B681B68414A14
:103A800011001800FFF7E3FD7B6818683E4B1B042C
:103A90001B0C8022920213431900FFF73CFF7B6846
:103AA0001B6800211800FFF75EFF7B681B68002180
:103AB0001800FFF772FF7B681868344B1B041B0C5F
:103AC0008022920413431900FFF75AFF7B6818689D
:103AD0002F4B1B041B0C8022920213431900FFF78B
:103AE00083FF7B681B6828211800FFF7E0FE7B68D6
:103AF0001868284B1B041B0C8022920213431900E8
:103B0000FFF7E2FE7B681868234B1B041B0C802226
:103B1000920213431900FFF7E4FE7B681B68002143
:103B20001800FFF7EBFE0F20FFF7E6FC0F20FFF772
:103B300003FD0F20FFF7C6FC7B681B6801211800FE
:103B4000FFF7A9FE7B681B681800FFF7CAFD7B68BA
:103B50001B681800FFF7A8FDC0467B681B681800AB
:103B6000FFF78FFD031EF8D100231800BD4602B0F9
:103B700080BDC046001C00420C0200200000002056
:103B8000070A0206330A0000A4030020C403002031
:103B9000E4010020F4010020FC01002080B582B087
:103BA00000AF78607B681B681800FFF75CFD7B68DE
:103BB00000221A6000231800BD4602B080BD80B507
:103BC00082B000AF78607B681B681800FFF76CFD5F
:103BD00000231800BD4602B080BD80B582B000AFA2
:103BE00078607B681B681800FFF73DFD0023180014
:103BF000BD4602B080BD90B589B000AF7860396035
:103C00000023FB617B681B681800FFF7DAFC031ECA
:103C100002D10A235B4261E07B681B681800FFF752
:103C2000DDFC0300BB617B681B682E4A934204D114
:103C3000BB691A012C4BD318FB61FB69002B02D125
:103C40001C235B424AE0FB691B685B00DB0FDBB2B5
:103C5000012B0AD13B6801225A73FB691B68DB0008
:103C6000DB081A003B681A600AE03B6800225A73BE
:103C7000FB691B68DB00DB089B141A003B681A60B9
:103C8000FB691B689B00DB0FDBB2012B02D13B6899
:103C900001221A710823FB18144A13CA13C31268AD
:103CA0001A60FB695B681B031B0FDBB21A00082359
:103CB000FB189A5C3B681A733B689868FB69083389
:103CC00019003B681B7B1A0009F0D0FA7B681B685F
:103CD000BA6911001800FFF72BFE00231800BD463B
:103CE00009B090BD001C0042A4030020F0D20000E7
:103CF00090B585B000AF786039600023FB607B68C9
:103D00001B681800FFF778FC031E02D01C235B42DF
:103D1000CFE07B681B681800FFF77FFC0300BB60E7
:103D20007B681B68654A934204D1BB681A01644BE7
:103D3000D318FB60FB68002B02D11C235B42B8E068
:103D40003B685B7B012B0AD13B681A68FB681A60F1
:103D5000FB681A688021C9050A431A6004E03B68C1
:103D60001B689A04FB681A603B681B7B082B0FD802
:103D70003B681B7B1A1C0F231340D9B2FB685A689F
:103D80000F20014009044F4802400A435A6057E09F
:103D90003B681B7B0C2B08D8FB685A6849490A40D2
:103DA000902109030A435A604AE03B681B7B102BB1
:103DB00008D8FB685A6843490A40A02109030A430E
:103DC0005A603DE03B681B7B142B08D8FB685A689F
:103DD0003C490A40B02109030A435A6030E03B687D
:103DE0001B7B182B08D8FB685A6836490A40C0214B
:103DF00009030A435A6023E03B681B7B202B08D849
:103E0000FB685A682F490A40D02109030A435A60C7
:103E100016E03B681B7B302B08D8FB685A682949A1
:103E20000A40E02109030A435A6009E03B681B7B12
:103E3000402B05D8FB685A68F02109030A435A60F1
:103E40007B681B681800FFF778FC03001800FB680C
:103E50005A680121014049051B4802400A435A6043
:103E60007B681B681800FFF77CFC03001800FB68E8
:103E70005A68012101400905144802400A435A606A
:103E8000FB68083318003B6899683B681B7B1A0085
:103E900009F0ECF97B681C687B681B681800FFF769
:103EA000BCFB02000123934019002000FFF782FDB4
:103EB00000231800BD4605B090BDC046001C00425E
:103EC000C4030020FFFFF0FFFFFFDFFFFFFFEFFF56
:103ED00080B584B000AF786008001100FB1C021CA4
:103EE0001A70BB1C0A1C1A70FB1C1B78002B08D113
:103EF0007B681A68BB1C1B7819001000FFF776FC62
:103F000029E0FB1C1B78012B10D17B681A68BB1CB5
:103F10001B7819001000FFF783FC7B681A680123E7
:103F20005B4219001000FFF752FD14E0FB1C1B78E8
:103F3000022B10D17B681B68094A11001800FFF79B
:103F40008DFC0300FB607B681B68FA681100180099
:103F5000FFF795FCC046C046BD4604B080BDC046D4
:103F60000102000080B582B000AF78607B681B68FA
:103F70001800FFF709FB0300DBB21800BD4602B0D2
:103F800080BD80B582B000AF78607B681B68180088
:103F9000FFF7EEFA0300DBB21800BD4602B080BDA9
:103FA00080B582B000AF78600A00FB1C1A707B6895
:103FB0001B681800FFF757FBC0467B681B6818009A
:103FC000FFF75FFB03001A0001235340DBB2002B15
:103FD000F3D17B681B681800FFF775FBFB1C1B788F
:103FE000012B05D17B681B681800FFF789FB04E0F3
:103FF0007B681B681800FFF791FB7B681B68180043
:10400000FFF76FFB7B681B681800FFF74DFBC0468E
:104010007B681B681800FFF734FB031EF8D10023F0
:104020001800BD4602B080BD80B586B000AFF86014
:10403000080011007B600B23FB18021C1A700A2376
:10404000FB180A1C1A70FB689B69DA680B23FB18C3
:104050001B789B00D3187B61FB689B691A690B2353
:10406000FB181B78DB00D3183B610A23FB181B7875
:10407000002B2BD17B68002B04D17B6900221A60B6
:10408000002349E07B685A687B691A607B681B687B
:104090009BB25B055B0D99B27B691A684905490DB6
:1040A00009041F4802400A431A607B691A6892009B
:1040B0009208802109060A431A607B691A68194927
:1040C0000A40802109050A431A6024E00A23FB18EC
:1040D0001B78012B1FD17B68002B04D13B69002288
:1040E0001A60002318E07B681A683B691A603B6914
:1040F0001A68D200D208802189050A431A607B68B9
:104100005A683B695A603B695A689200920880215C
:1041100009060A435A6000231800BD4606B080BD58
:10412000FFFF00F8FFFFFFC790B583B000AF2E4B35
:104130001B687B607B681B681800FFF74DFB030062
:104140003B603B680122134004D07B689B687A681F
:10415000100098473A6880239B00134004D07B6886
:104160005B687A68100098473A6880239B04134084
:1041700005D07B68DB687A680321100098473A68AD
:1041800080235B04134005D07B68DB687A680021DC
:10419000100098473A6880231B0413400FD07B68B7
:1041A000DC687B681B681800FFF7FBF9031E01D071
:1041B000022300E001237A6819001000A0473B6841
:1041C0000822134005D07B68DB687A680421100060
:1041D00098477B681B683A6811001800FFF7F0FAEF
:1041E000C046BD4603B090BD0C02002080B582B031
:1041F00000AF0200FB1D1A70FB1D1B787F2B09D836
:10420000064BFA1D127811001F220A40012191402D
:104210000A001A60C046BD4602B080BD00E100E061
:1042200080B582B000AF0200FB1D1A70FB1D1B7829
:104230007F2B0ED80949FB1D1B781A001F23134042
:1042400001229A40130080228B50BFF34F8FBFF39F
:104250006F8FC046BD4602B080BDC04600E100E0A1
:1042600080B582B000AF0200FB1D1A70FB1D1B78E9
:104270007F2B0AD80749FB1D1B781A001F23134008
:1042800001229A4080235B00CA50C046BD4602B05E
:1042900080BDC04600E100E080B582B000AF020002
:1042A000FB1D1A70FB1D1B787F2B0AD80749FB1DCD
:1042B0001B781A001F23134001229A40C0235B0081
:1042C000CA50C046BD4602B080BDC04600E100E015
:1042D00080B500AFBFF34F8F034B044ADA60BFF3E2
:1042E0004F8FC046FDE7C04600ED00E00400FA0530
:1042F00080B500AFFFF7ECFF80B500AFBFF34F8F85
:1043000030BFC046BD4680BD80B582B000AFEFF380
:1043100005837B607B68DBB2103BDBB21800BD46D7
:1043200002B080BD80B582B000AF0200FB1D1A70E4
:10433000FB1D1B785BB21800FFF772FFC046BD463D
:1043400002B080BD80B582B000AF0200FB1D1A70C4
:10435000FB1D1B785BB21800FFF782FFC046BD460D
:1043600002B080BD80B582B000AF0200FB1D1A70A4
:10437000FB1D1B785BB21800FFF78EFFC046BD46E1
:1043800002B080BD80B582B000AF0200FB1D1A7084
:10439000FB1D1B785BB21800FFF728FFC046BD4627
:1043A00002B080BD80B582B000AF02003960FB1D55
:1043B0001A70FB1D1A78044B92003968D150C04620
:1043C000BD4602B080BDC046E403002080B500AF0A
:1043D000FEE790B583B000AF39601100BB1D021C31
:1043E0001A807B1D0A1C1A707B1D1B78043B042B52
:1043F0005ED89A00364BD3181B689F46BB1D1C889D
:104400003B683449180000F0F0F9030063431D33A2
:104410001E21180000F0E9F9030055E0BB1D1C88BF
:104420003B682D49180000F0E0F9030063432C338A
:10443000FF331A0096235900100000F0D6F903004C
:1044400042E0BB1D1C883A68FA239900100000F076
:10445000CCF903006343214A944663442049180081
:1044600000F0C3F903002FE0BB1D1C883B686421EA
:10447000180000F0BAF9030063431A4A94466344F3
:104480001949180000F0B1F903001DE0BB1D1C889C
:104490003B680A21180000F0A8F903006343134A9F
:1044A000944663441249180000F09FF903000BE0A2
:1044B000BB1D1B883A6853430E4A944663440E4919
:1044C000180000F092F903001800BD4603B090BD3B
:1044D00000D30000A086010010270000B70B0000E9
:1044E000B80B00002F75000030750000DF9304004A
:1044F000E0930400BFC62D00C0C62D0080B582B079
:1045000000AF0200BB1D1A800549BB1D1B88072296
:104510001800FFF75EFF03001800BD4602B080BD23
:1045200000093D0090B583B000AF39601100BB1D9C
:10453000021C1A807B1D0A1C1A707B1D1B78043B11
:10454000042B60D89A00384BD3181B689F46BB1DBC
:104550001C883B683549180000F047F903006343A5
:1045600002330321180000F040F903001A0064230D
:10457000534354E0BB1D1C883B682D49180000F0D4
:1045800034F90300634302330321180000F02DF9CE
:1045900003001A0013009B009B185B003FE0BB1D4B
:1045A0001C883A68FA239900100000F01EF90300F5
:1045B000634302330321180000F017F903002EE0D3
:1045C000BB1D1C883B686421180000F00EF9030035
:1045D00063431D331E21180000F007F903001EE09D
:1045E000BB1D1C883B680A21180000F0FEF8030080
:1045F00063432C33FF331A0096235900100000F058
:10460000F4F803000BE0BB1D1B883A685343094ACA
:10461000944663440849180000F0E7F803001800C6
:10462000BD4603B090BDC04614D30000A086010073
:1046300010270000B70B0000B80B000080B582B057
:1046400000AF0200BB1D1A800549BB1D1B88072255
:104650001800FFF767FF03001800BD4602B080BDD9
:1046600000093D0080B582B000AF7860C046BD460D
:1046700002B080BD80B582B000AF7860396001398A
:10468000FDD8C046BD4602B080BDC04680B582B0F0
:1046900000AF786039607B685A683B685B001E2118
:1046A0000B401A437B685A60C046BD4602B080BDCD
:1046B00080B500AF0A4B00211800FFF7E7FF00F0BC
:1046C00096F900F02DFA00F058F900F05BFAFF209F
:1046D00000F02EF900F05FF8C046BD4680BDC04630
:1046E0000040004180B584B000AF78600A00FB1C38
:1046F0001A700F23FB187A6812781A700F23FB18B0
:104700000F22BA18127802218A431A70FB1C1B78F8
:104710005B005AB20F23FB181B785BB213435AB2EB
:104720000F23FB181A707B680F22BA1812781A70C0
:10473000C046BD4604B080BD80B584B000AFB9604E
:104740007A600F23FB18021C1A709023DA050F23DE
:10475000FB181B7801210B40D9B2137801200840C7
:1047600001218B43191C031C0B4313709023DB05A1
:10477000BA689A609023DB057A68DA60C0469023B5
:10478000DB051B79DB07DB0FDBB2002BF7D1C04663
:10479000BD4604B080BD80B500AF9023DB0500218D
:1047A0001800FFF79FFFC046BD4680BD80B586B0AC
:1047B00000AF78603960EFF31083FB60FB68BB608B
:1047C00072B67B683A6819000120FFF7B5FF9023A5
:1047D000DB051B697B61BB683B613B6983F3108828
:1047E0007B691800BD4606B080BD80B586B000AFBD
:1047F00078603960EFF31083FB60FB68BB6072B6D2
:104800003A687B6819000020FFF796FF9023DB05CC
:104810001B697B61BB683B613B6983F310887B69E3
:104820001800BD4606B080BD90B589B000AF786075
:104830003960EFF310833B613B69FB6072B67B68C4
:104840003A6819000120FFF777FF084B5C681B6886
:10485000BB61FC61FB687B617B6983F31088BB698A
:10486000FC6918002100BD4609B090BD1000004849
:1048700090B589B000AF78603960EFF310833B6189
:104880003B69FB6072B63A687B6819000020FFF74D
:1048900053FF084B5C681B68BB61FC61FB687B6174
:1048A0007B6983F31088BB69FC6918002100BD4651
:1048B00009B090BD1000004880B582B000AF7860AC
:1048C0003960C0467B685B683A681340FAD1C046DD
:1048D000BD4602B080BD80B584B000AFF8607A609C
:1048E0000B23FB180A1C1A700B23FB181A78FB68A1
:1048F000083292007968D150044AFB681100180010
:10490000FFF7DAFFC046BD4604B080BDFD070000DA
:1049100080B500AF044A054B00211800FFF7DBFF0C
:10492000C046BD4680BDC04606010100001C0040D7
:1049300080B582B000AF78607B680122134005D05B
:10494000044A054B00211800FFF7C5FFC046BD46CD
:1049500002B080BD06010100001C004080B582B09D
:1049600000AF78600A00FB1C1A707B68FA1C127892
:104970001A71C046BD4602B080BD80B582B000AF9E
:10498000054B7B607B6801211800FFF7E7FFC046FD
:10499000BD4602B080BDC0460008004080B582B070
:1049A00000AF786039607B683A681A61C046BD46DE
:1049B00002B080BD80B584B000AF78607B68DB69F1
:1049C000FB60FB681B0A1F221340FB60FB6818009A
:1049D000BD4604B080BD80B582B000AF786039605C
:1049E0007B683A68DA61C046BD4602B080BD80B5DA
:1049F00082B000AF104B7B60BB1C00221A807B682A
:104A00001800FFF7D7FF0200BB1C1A80BB1C1B88D5
:104A10001B021A00F8235B011A407B681100180082
:104A2000FFF7D9FF7B6801211800FFF7B7FFC046E9
:104A3000BD4602B080BDC0460014004080B582B0C3
:104A400000AF78603960C0467B689B693A68134064
:104A5000FAD1C046BD4602B080BD80B582B000AF7D
:104A600078607B68DB681B09012213405A1E934162
:104A7000DBB21800BD4602B080BD80B582B000AF89
:104A800078607B689B699B08012213405A1E934102
:104A9000DBB21800BD4602B080BD80B582B000AF69
:104AA00078607B681B7DDBB2802252421343DAB20E
:104AB0007B681A75C046BD4602B080BD80B582B025
:104AC00000AF78600A00FB1C1A707B68FA1C127831
:104AD0001A75C046BD4602B080BD80B582B000AF39
:104AE00078600A00FB1C1A707B68FA1C12785A75F1
:104AF0007B6804211800FFF7A1FFC046BD4602B045
:104B000080BD80B582B000AF78600A00FB1C1A70CF
:104B10007B68FA1C12789A75C046BD4602B080BD0B
:104B200080B582B000AF164B7B607B680221180015
:104B3000FFF7C4FF7B680B211800FFF7CEFFC046CC
:104B40007B681800FFF799FF031EF9D17B680721E6
:104B50001800FFF7D6FFC0467B681800FFF77DFFFF
:104B600003001A0001235340DBB2002BF4D17B6811
:104B70001800FFF792FFC046BD4602B080BDC04698
:104B80000010004080B582B000AF034B7B60C04690
:104B9000BD4602B080BDC0460010004080B582B066
:104BA00000AF0200FB1D1A70FB1D1B787F2B09D87C
:104BB000064BFA1D127811001F220A400121914074
:104BC0000A001A60C046BD4602B080BD00E100E0A8
:104BD00080B582B000AF0200FB1D1A70FB1D1B7870
:104BE0007F2B0ED80949FB1D1B781A001F23134089
:104BF00001229A40130080228B50BFF34F8FBFF3E6
:104C00006F8FC046BD4602B080BDC04600E100E0E7
:104C100080B582B000AF0200FB1D1A70FB1D1B782F
:104C20007F2B0AD80749FB1D1B781A001F2313404E
:104C300001229A40C0235B00CA50C046BD4602B064
:104C400080BDC04600E100E080B582B000AF786072
:104C50003960C0467B68DB693A681340FAD1C046C8
:104C6000BD4602B080BD80B582B000AF78603960CB
:104C70007B68DB693A6813405A1E9341DBB2180027
:104C8000BD4602B080BD80B582B000AF78603960AB
:104C9000C0467B68DB693A681340FAD1C046BD461E
:104CA00002B080BD80B582B000AF786039607B68AB
:104CB000DB693A6813405A1E9341DBB21800BD46C7
:104CC00002B080BD80B582B000AF78603960C04668
:104CD0007B68DB693A681340FAD1C046BD4602B032
:104CE00080BD80B582B000AF786039607B68DB69D9
:104CF0003A6813405A1E9341DBB21800BD4602B019
:104D000080BD80B582B000AF78603960C0467B68F6
:104D1000DB693A681340FAD1C046BD4602B080BD97
:104D200080B582B000AF786039607B68DB693A6833
:104D300013405A1E9341DBB21800BD4602B080BD3D
:104D400080B582B000AF78607B6801221A76C046D9
:104D5000BD4602B080BD80B582B000AF78607B6890
:104D600002221A76C046BD4602B080BD80B584B02E
:104D700000AF78600A00FB1C1A700F23FB187A68DA
:104D8000127E1A700F23FB180F22BA18F91C127822
:104D900009780A401A700F23FB181B781800BD46CB
:104DA00004B080BD80B582B000AF78607B681B7EA8
:104DB000DBB21800BD4602B080BD80B582B000AF46
:104DC00078607B6804221A76C046BD4602B080BD7A
:104DD00080B582B000AF78607B681B7EDBB29B0839
:104DE000012213405A1E9341DBB21800BD4602B0A7
:104DF00080BD80B584B000AF78600A00FB1C1A70DB
:104E00000F23FB187A68127E1A700F23FB180F22EB
:104E1000BA18F91C127809780A401A700F23FB1887
:104E20001B781800BD4604B080BD80B582B000AFCD
:104E300078607B681B7EDBB21800BD4602B080BD87
:104E400080B582B000AF78600A00FB1C1A707B68E6
:104E5000FA1C12781A76C046BD4602B080BD80B5F5
:104E600082B000AF78607B681B7EDBB21A00012342
:104E700013405A1E9341DBB21800BD4602B080BDFC
:104E800080B582B000AF78607B681B7EDBB25B08C8
:104E9000012213405A1E9341DBB21800BD4602B0F6
:104EA00080BD80B582B000AF78607B681B7EDBB2CE
:104EB0009B08012213405A1E9341DBB21800BD46E5
:104EC00002B080BD80B582B000AF78607B681B7E89
:104ED000DBB2DB09012213405A1E9341DBB21800FA
:104EE000BD4602B080BD80B582B000AF78607B68FF
:104EF00080221A76C046BD4602B080BD80B582B021
:104F000000AF78600A00FB1C1A70FB1C1B780122A2
:104F10005340DBB2002B03D07B6801221A7502E0FC
:104F20007B6801229A75C046BD4602B080BD80B53F
:104F300082B000AF78600A00FB1C1A70FB1C1B7863
:104F400001225340DBB2002B03D07B6802221A758A
:104F500002E07B6802229A75C046BD4602B080BD61
:104F600080B582B000AF78600A00FB1C1A70FB1C91
:104F70001B7801225340DBB2002B03D07B688022D8
:104F80001A7502E07B6880229A75C046BD4602B061
:104F900080BD80B582B000AF78600A00FB1C1A703B
:104FA000FB1C1B7801225340DBB2002B03D07B6833
:104FB00004221A7502E07B6804229A75C046BD4639
:104FC00002B080BD80B582B000AF78607B680422FB
:104FD0001A75C046BD4602B080BD80B582B000AF34
:104FE00078600A00FB1C1A70FB1C1B7801225340DE
:104FF000DBB2002B03D07B6880221A7502E07B684D
:1050000080229A75C046BD4602B080BD80B582B090
:1050100000AF78607B6801229A75C046BD4602B039
:1050200080BD80B582B000AF78607B6801221A75C0
:10503000C046BD4602B080BD80B582B000AF78608A
:105040007B6802229A75C046BD4602B080BD80B51D
:1050500082B000AF78607B6802221A75C046BD46F8
:1050600002B080BD80B582B000AF78607B6804225A
:105070009A75C046BD4602B080BD80B582B000AF13
:1050800078607B6804221A75C046BD4602B080BDB8
:1050900080B582B000AF78600A00FB1C1A70FB1C60
:1050A0001B7801225340DBB2002B03D07B688022A7
:1050B0001A7502E07B6880229A75C046BD4602B030
:1050C00080BD80B582B000AF78600A00FB1C1A700A
:1050D0007B68FA1C12781A75C046BD4602B080BDC6
:1050E00080B582B000AF78607B6801229A75C046B7
:1050F000BD4602B080BD80B582B000AF78607B68ED
:105100009B7DDBB21A00012313405A1E9341DBB290
:105110001800BD4602B080BD80B582B000AF786097
:105120000A00FB1C1A70FB1C1B7801225340DBB2E7
:10513000002B03D07B6801221A7502E07B680122F4
:105140009A75C046BD4602B080BD80B582B000AF42
:1051500078607B6801221A75C046BD4602B080BDEA
:1051600080B582B000AF78607B6802229A75C04635
:10517000BD4602B080BD80B582B000AF78607B686C
:105180009B7DDBB25B08012213405A1E9341DBB2C8
:105190001800BD4602B080BD80B582B000AF786017
:1051A0000A00FB1C1A70FB1C1B7801225340DBB267
:1051B000002B03D07B6802221A7502E07B68022272
:1051C0009A75C046BD4602B080BD80B582B000AFC2
:1051D00078607B6802221A75C046BD4602B080BD69
:1051E00080B582B000AF78600A00FB1C1A70FB1C0F
:1051F0001B7801225340DBB2002B03D07B680422D2
:105200001A7502E07B6804229A75C046BD4602B05A
:1052100080BD80B582B000AF78600A00FB1C1A70B8
:10522000FB1C1B7801225340DBB2002B03D07B68B0
:1052300080221A7502E07B6880229A75C046BD46BE
:1052400002B080BD80B582B000AF78607B681B681B
:1052500001221A437B681A607B6801211800FFF75E
:10526000F3FCC046BD4602B080BD80B582B000AF41
:1052700078607B681B6802221A437B681A607B682F
:1052800003211800FFF7E0FCC046BD4602B080BD18
:1052900080B584B000AF78607B6803211800FFF709
:1052A000D3FC7B681B68FB60FB685B080122134032
:1052B000FB60FB685A1E9341DBB21800BD4604B088
:1052C00080BD80B582B000AF78607B681B68022229
:1052D00093431A007B681A607B6803211800FFF76C
:1052E000B3FCC046BD4602B080BD80B584B000AFFF
:1052F00078607B681B68FB60FB68DB0E0122134053
:10530000FB60FB685A1E9341DBB21800BD4604B037
:1053100080BD80B584B000AF786039607B680321C0
:105320001800FFF791FC7B681B68FB60FB683A681C
:105330001340FB60FB681800BD4604B080BD80B51B
:1053400082B000AF786039607B683A681A607B6829
:1053500003211800FFF778FCC046BD4602B080BDAF
:1053600080B582B000AF78607B681B6801221A4369
:105370007B681A607B6801211800FFF784FCC04637
:10538000BD4602B080BD80B582B000AF78607B685A
:105390001B6802221A437B681A607B68032118008D
:1053A000FFF771FCC046BD4602B080BD80B584B039
:1053B00000AF78607B6803211800FFF764FC7B680E
:1053C0001B68FB60FB685B0801221340FB60FB6805
:1053D0005A1E9341DBB21800BD4604B080BD80B5B3
:1053E00082B000AF78607B681B68022293431A008A
:1053F0007B681A607B6803211800FFF744FCC046F5
:10540000BD4602B080BD80B584B000AF7860396021
:105410007B6803211800FFF736FC7B681B68FB6084
:10542000FB683A681340FB60FB681800BD4604B097
:1054300080BD80B582B000AF786039607B683A6823
:105440001A607B6803211800FFF71DFCC046BD46AB
:1054500002B080BD80B582B000AF78607B681B6809
:1054600001221A437B681A607B6801211800FFF74C
:1054700029FCC046BD4602B080BD80B582B000AFF9
:1054800078607B681B6802221A437B681A607B681D
:1054900003211800FFF716FCC046BD4602B080BDD0
:1054A00080B584B000AF78607B6803211800FFF7F7
:1054B00009FC7B681B68FB60FB685B0801221340EA
:1054C000FB60FB685A1E9341DBB21800BD4604B076
:1054D00080BD80B582B000AF78607B681B68022217
:1054E00093431A007B681A607B6803211800FFF75A
:1054F000E9FBC046BD4602B080BD80B584B000AFB8
:10550000786039607B6803211800FFF7DBFB7B685C
:105510001B68FB60FB683A681340FB60FB6818007F
:10552000BD4604B080BD80B582B000AF7860396000
:105530007B683A681A607B6803211800FFF7C2FB9A
:10554000C046BD4602B080BD80B582B000AF786075
:105550007B6803211800FFF7B5FB7B681B68180008
:10556000BD4602B080BD80B582B000AF78607B6878
:105570001B6801221A437B681A607B6801211800AE
:10558000FFF7BFFBC046BD4602B080BD80B582B00C
:1055900000AF78607B681B6802221A437B681A6040
:1055A0007B6803211800FFF7ACFBC046BD4602B084
:1055B00080BD80B584B000AF78607B68032118009F
:1055C000FFF79FFB7B681B68FB60FB685B080122A1
:1055D0001340FB60FB685A1E9341DBB21800BD46C6
:1055E00004B080BD80B584B000AF78600A00FB1CB9
:1055F0001A707B681B68FB60FB6802229343FB60A8
:10560000FB1C1B785B001A00FB681343FB607B6884
:10561000FA681A607B6803211800FFF772FBC04626
:10562000BD4604B080BD80B582B000AF78607B68B5
:105630001B68022293431A007B681A607B6803216F
:105640001800FFF75EFBC046BD4602B080BD80B5C6
:1056500084B000AF78600A00FB1C1A707B681B687E
:10566000FB60FB680A4A1340FB60FB1C1B781B07AE
:105670001A00FB681343FB607B68FA681A607B685A
:1056800007211800FFF73DFBC046BD4604B080BDB2
:10569000FFFFFFEF80B584B000AF78600A00FB1C0D
:1056A0001A707B681B68FB60FB680B4A1340FB6049
:1056B000FB1C1B789B071A00FB681343FB607B688D
:1056C000FA681A607B6807211800FFF71AFBC046CA
:1056D000BD4604B080BDC046FFFFFFBF80B582B0AD
:1056E00000AF786039607B681A683B681906F02360
:1056F0001B050B401A437B681A607B680721180062
:10570000FFF7FFFAC046BD4602B080BD80B582B04B
:1057100000AF786039607B681B683A681106F02238
:1057200012050A40D2431A407B681A607B68072141
:105730001800FFF7E6FAC046BD4602B080BD80B54E
:1057400084B000AF786039607B6803211800FFF7F0
:10575000D8FA7B681B68FB60FB683A681340FB6003
:10576000FB681800BD4604B080BD80B582B000AFB4
:10577000786039607B683A681A607B68032118009A
:10578000FFF7BFFAC046BD4602B080BD80B582B00B
:1057900000AF78607B685B68802252001A437B68A8
:1057A0005A607B6807211800FFF74EFAC046BD46D5
:1057B00002B080BD80B582B000AF78607B685B6866
:1057C000064A1A407B685A607B6807211800FFF779
:1057D0003BFAC046BD4602B080BDC046FFFEFFFF9B
:1057E00080B582B000AF78607B685B688022D202AF
:1057F0001A437B685A607B6807211800FFF724FA78
:10580000C046BD4602B080BD80B582B000AF7860B2
:105810007B685B68064A1A407B685A607B68072190
:105820001800FFF711FAC046BD4602B080BDC04661
:10583000FFFFFBFF80B582B000AF786039607B6806
:105840005A683B681904C0239B020B401A437B68CB
:105850005A607B6804211800FFF7F6F9C046BD4680
:1058600002B080BD80B582B000AF786039607B68DF
:105870003A685A607B6807211800FFF7E5F9C046CF
:10588000BD4602B080BD80B582B000AF786039609F
:105890007B683A685A60C046BD4602B080BD80B59C
:1058A00084B000AF786039607B685B68FB60FB6840
:1058B00007229343FB603B6807221340FA681343B7
:1058C000FB607B68FA685A607B6807211800FFF765
:1058D000F9F9C046BD4604B080BD80B582B000AFC6
:1058E000786039607B683A685A607B6807211800E5
:1058F000FFF7E8F9C046BD4602B080BD80B584B070
:1059000000AF78600A00FB1C1A707B685B68FB6064
:10591000FB6840229343FB60FB1C1B789B011A0031
:10592000FB681343FB607B68FA685A607B68072159
:105930001800FFF7E6F9C046BD4604B080BD80B54B
:1059400084B000AF78600A00FB1C1A707B685B684B
:10595000FB60FB680A4A1340FB60FB1C1B785B037F
:105960001A00FB681343FB607B68FA685A607B6827
:1059700007211800FFF7C5F9C046BD4604B080BD39
:10598000FFDFFFFF80B584B000AF786039607B68CF
:105990005B68FB60FB6807229343FB603B68072260
:1059A0001340FA681343FB607B68FA685A607B68AF
:1059B00007211800FFF7A5F9C046BD4604B080BD19
:1059C00080B582B000AF786039607B683A685A6011
:1059D0007B6807211800FFF794F9C046BD4602B066
:1059E00080BD80B584B000AF786039607B68DB68CB
:1059F000FB60FB68FF229343FB603B68FF22134080
:105A0000FA681343FB607B68FA68DA60C046BD46FB
:105A100004B080BD80B584B000AF786039607B6829
:105A2000DB68FB60FB68094A1340FB603B681A04B3
:105A3000FF231B041340FA681343FB607B68FA687A
:105A4000DA60C046BD4604B080BDC046FFFF00FF1F
:105A500080B582B000AF786039607B683A68DA6000
:105A6000C046BD4602B080BD80B582B000AF786050
:105A70000A00FB1C1A707B68FA1C12781A73C04665
:105A8000BD4602B080BD80B582B000AF78600A002C
:105A9000BB1C1A807B68BA1C12889A81C046BD461E
:105AA00002B080BD80B582B000AF78600A00FB1CF8
:105AB0001A707B68FA1C12789A73C046BD4602B011
:105AC00080BD80B584B000AF78600A00FB1C1A70FE
:105AD0007B685B6AFB60FB680A4A1340FB60FB1C47
