S00F00004C565F424D53332E73726563FF
S1130000A82300202D01000029010000290100007F
S113001000000000000000000000000000000000DC
S113002000000000000000000000000029010000A2
S11300300000000000000000290100002901000068
S11300402901000029010000290100002901000004
S113005029010000290100002901000029010000F4
S113006029010000290100002901000029010000E4
S1130070290100006914000029010000511000004A
S113008029010000290100002901000029010000C4
S113009029010000290100002901000029010000B4
S11300A029010000290100002901000029010000A4
S11300B029010000290100002901000010B5064CA7
S11300C02378002B07D1054B002B02D0044800E015
S11300D000BF0123237010BD600100200000000058
S11300E0545E0000084B10B5002B03D007490848A4
S11300F000E000BF07480368002B00D110BD064B89
S1130100002BFBD09847F9E70000000064010020B1
S1130110545E0000545E00000000000010B5014B66
S1130120984710BD95040000FEE7000010B5174A7B
S1130130174B9A4211D01A00164B9A420DD2164A06
S113014003339B1A9B0801339B00002210480F497C
S11301508C58845004329A42FAD1104A104B9A4275
S11301600AD2D3430E495B1803218B4304339B18F3
S1130170002102C29342FCD10A4AFF210A4B8B435D
S113018093600A4B98470A4B9847FEE7545E000079
S11301900000002060010020040000206001002015
S11301A0A803002000ED00E0000000001D3D000059
S11301B09117000010B50422C023DB055A60822188
S11301C0C9050A4B8B62C0231B068B624223CA5C9F
S11301D0012082430243D2B2CA5431228B5C0F24E1
S11301E0A3430343DBB28B5410BDC046040000405C
S11301F0054AD16980239B020B43D36141218223A9
S11302005B00024AD150704700080040001C0040C7
S113021010B5064B9847064B9847064B9847020083
S113022005490648064B984710BDC046F101000039
S1130230B50100003B0F000000440042F80200201A
S1130240B9050000F0B5C64600B5C024E405802316
S11302505B0063608223DB05234A9A62234A9A6225
S113026048215A5C042082435A545A5C0126B24302
S113027001252A43D2B25A5414395A5C0B308446AD
S1130280824303273A43D2B25A548022D200626195
S1130290A260174A9A62C022120690469A621631E8
S11302A0585CB0432843C0B258543520195C6246A8
S11302B091433943C9B21954802109016161A16094
S11302C00C49996242469A624B215A5CB2432A43D2
S11302D0D2B25A541A5C3C390A4021310A431A54A6
S11302E004BC9046F0BDC04600010240000002C0BC
S11302F00004004000080040054B4122D4215A501C
S11303000C395A50034AD369C0390B43D36170473F
S1130310001C00400008004010B5044B98470449F5
S11303200448054B9847054B984710BDF902000057
S1130330000C0042FC020020F1070000450200000E
S1130340054B4122DC215A5014395A50034AD369CF
S1130350A8390B43D3617047001C004000080040DB
S113036030B58223DB05C822995C0125A943012409
S11303702143C9B29954B420195CB93A91430C3A57
S113038011431954C9215A5CAA432243D2B25A5484
S11303901A5CBA390A4021310A431A5430BD0000AC
S11303A010B582B0064B9847002300931033054ADA
S11303B005490648064CA047064B984702B010BDB5
S11303C0410300007C0100200014004214030020BB
S11303D0FD0A00006103000030B58223DB055922C9
S11303E0995C0125A94301242143C9B299543C20B5
S11303F0195C4A3A114051321143195458215A5C3C
S1130400AA432243D2B25A541A5C49398A4309395D
S11304100A431A5430BD000010B5084A11698023FC
S11304205B000B4313614121E823054AD150054980
S11304300548064B9847064B984710BD00080040F6
S1130440001C0040001C0042CC02002019070000E0
S1130450D9030000054A516980235B010B435361B2
S113046041219423024AD1507047C04600080040FD
S1130470001C004010B5034B984703490348044B44
S1130480984710BD5504000000300040F4020020DD
S113049005090000F0B5C64600B5394B9847C0229F
S11304A0D2052023536193608223DB053549996289
S11304B0C021090699624524195D0120814319551B
S11304C080210905516191608024E4059C622E49D4
S11304D099625B25595D81435955802149055161D4
S11304E091609C62294999620135595D814359554E
S11304F084218846042757502431254D5D50254DCD
S1130500AC465D50C2255E5DBE435E555E5D86436E
S11305105E55BA3D464695511F4D5D5065465D504A
S1130520C3255E5DBE435E555E5D86435E55903772
S11305308025ED03D5518826B04695515C50174D62
S11305405D50D625AC465D5D854366469D55802548
S11305502D04D551464695515C50114A5A502F31BD
S11305605A5C82435A540F4B98470F4B98470F4B92
S113057098470F4B98470F4B984704BC9046F0BDE3
S1130580E510000020000040000800C0001000C07A
S113059004000240000002C008000240400000C005
S11305A0800000C01102000019030000A103000034
S11305B0190400007504000070B504000D00002843
S11305C00CD00800431E9841C0B239220449054B9F
S11305D0984729002000044B984770BD0020F4E799
S11305E04C5A0000390C0000B90E000070B504002C
S11305F00D00431E9841C0B24E220449044B984753
S113060029002000034B9847002070BD4C5A00007D
S1130610390C0000F10E0000F0B5DE4657464E4698
S11306204546E0B583B006000D00914601930028CD
S11306301ED0002A1ED01800431E984167221F496D
S11306401F4FB847340030001E4B984701008046C6
S113065001981D4B984748424841C0B26922174946
S1130660B8470027194B9B46194E1A4B9A4608E087
S11306700020E3E70020E1E74744BFB2019BBB420F
S113068013D92000D84729002000B0470028FAD009
S113069029002000D0474B46D8554346012BEBD9BF
S11306A04B46DB19000A5870E6E7380003B03CBC3F
S11306B090469946A246AB46F0BDC0464C5A00004F
S11306C0390C0000050F00009D110000210F0000EF
S11306D0170F0000330F0000EFF31083036072B6AE
S11306E0BFF35F8F7047BFF35F8F036883F3108896
S11306F0704710B5C369002B00D0984710BD10B5E2
S1130700036A002B00D0984710BD10B5436A002B34
S113071000D0984710BD000070B505000C000028FB
S113072014D00800431E9841C0B241220849094B25
S1130730984721002800084B9847002805D1074B0B
S11307406B60074BAB60074BEB6070BD0020ECE7C0
S1130750685A0000390C0000410F0000F306000045
S1130760FF0600000B07000010B5044B1C68044B87
S1130770984701002000034B984710BD8C010020CE
S1130780BD100000DD10000070B506000C0015005F
S113079000280DD00800431E9841C0B234220549F8
S11307A0054B984733682A0021003000984770BDF4
S11307B00020F3E7845A0000390C000070B50600ED
S11307C00C00150000280DD00800431E9841C0B24B
S11307D03D220549054B984773682A0021003000E3
S11307E0984770BD0020F3E7845A0000390C0000DC
S11307F070B504000D00002816D00800431E98416F
S1130800C0B2402209490A4B98476560201D29005F
S1130810084B9847002806DB074BA382074B23614C
S1130820074BE360002070BD0020EAE7985A0000FF
S1130830390C0000D51400000080FFFFC908000037
S11308408D08000030B587B004000D00002814D0D6
S11308500800431E9841C0B2B3220949094B984786
S11308602B6803936B680493AB6801930593201D75
S113087003A9054B984707B030BD0020ECE7C046FC
S1130880985A0000390C0000CD15000070B584B0F2
S113089004000E001500431E9841C0B2A32207496C
S11308A0074B9847002302930196039520000C38C8
S11308B001A9044B984704B070BDC046985A000083
S11308C0390C00004508000070B584B004000E0027
S11308D01500431E9841C0B287220749074B984729
S11308E0029600230193039520000C3801A9044BC0
S11308F0984704B070BDC046985A0000390C0000F7
S11309004508000070B504000D0000280CD0080054
S1130910431E9841C0B22B220449054B9847290035
S11309202000044B984770BD0020F4E7B45A00003F
S1130930390C0000DD16000010B5083800230363ED
S1130940436A002B00D0984710BD10B50838002327
S11309500363C36A002B00D0984710BD10B5040090
S11309602C30044B9847236A083C002B01D020000C
S1130970984710BDDD0C000070B504000E00150092
S113098000281DD000291DD01000431E98413C2290
S1130990FF320F490F4B98474423E25A0833E35A76
S11309A09A4211D1A6644C23E5520022083BE2523C
S11309B0433B236320000830074B9847280070BD51
S11309C00020E4E70020E2E71C204042F7E7C046AD
S11309D0D05A0000390C0000E513000070B5040083
S11309E001000839838F4C228A5A9A420CD00A009B
S11309F0896C5D1C44201552C95C2000044B984747
S1130A002000044B984770BD034B9847FBE7C04652
S1130A10DD130000E5130000ED130000F0B5CE4631
S1130A20474680B585B005000E001700002815D094
S1130A30002913D0002A2AD1AC22520029490020CF
S1130A40294B984703A8294B984728003430284B52
S1130A50984703A8274B984700253CE0AC22520056
S1130A6020490020204B984703A8204B9847343551
S1130A70280001951E4B9847804603A81D4B9847B4
S1130A8000254346002B26D0002F16D123E0AC22AC
S1130A90520014490120144B984703A8134B98475C
S1130AA0343528000195124B9847804603A8114B12
S1130AB0984743460025002B0DD000240E4B994641
S1130AC0651CADB231190198C8470134444502D2BE
S1130AD0A3B29F42F4D8280005B00CBC90469946B6
S1130AE0F0BDC046D05A0000390C0000D906000001
S1130AF01D0D0000E7060000950C0000F8B5040089
S1130B000D0016001F00002826D0002926D0002A38
S1130B1026D01800431E98413A221449144B984792
S1130B20200034303A003100124B9847002819D184
S1130B30200008302900104B984700280BD10F4B98
S1130B4063600F4B23600F4BA3600F4BE3600F4BAD
S1130B5023610F4B6361F8BD0020DDE70020DBE774
S1130B600020D9E70D204042F5E7C046D05A0000E6
S1130B70390C0000410C00004D1300001D0A000058
S1130B8079090000DD0900005D0900003909000051
S1130B904B09000010B50400431E9841C0B2612205
S1130BA00449054B984720000830044B984700201F
S1130BB010BDC046D05A0000390C0000C913000013
S1130BC070B505000E001400431E9841C0B2832284
S1130BD01649174B9847012E11D0002E04D0022E2F
S1130BE018D00D20404209E0AC62621E9441E2B28A
S1130BF02800083001210F4B9847002070BD6C621B
S1130C00621E9441E2B2280008300221094B984741
S1130C100020F3E7EC62621E9441E2B2280008303F
S1130C200321044B98470020E8E7C046D05A00004F
S1130C30390C0000F5130000002800D100BE7047F5
S1130C4070B504000E00150000280BD0002918D040
S1130C500120002A07D128220C4900200C4B984778
S1130C606B1E07E0002028220849094B98476B1E99
S1130C702B4208D163600023A360E3602660002058
S1130C8070BD0020EFE70D204042F9E7F05A000064
S1130C90390C000070B504000D00002815D00800C0
S1130CA0431E9841C0B240220A490B4B9847A3689F
S1130CB0E2689A420BD0626813402268D35C2B70BE
S1130CC0A3680133A360002070BD0020EBE70A2075
S1130CD04042F9E7F05A0000390C000070B50400F6
S1130CE00D00431E9841C0B251220A490A4B98474D
S1130CF06368E26813402268D554E3686168A268B7
S1130D009A1A8A4201D9591AA1600133E36000207A
S1130D1070BDC046F05A0000390C000010B5040044
S1130D20431E9841C0B267220349044B9847E068C8
S1130D30A368C01A10BDC046F05A0000390C000068
S1130D400300064A1268002A04D0044A1068C31833
S1130D50136070470249014A1160F6E790010020D0
S1130D60A823002010B5038CDB0718D40322038CBE
S1130D701342FCD103789B070BD5037802229343DB
S1130D8003700132038C1342FCD10222038C134200
S1130D90FCD1012303700322038C1342FCD10122F2
S1130DA0038C1342FCD1CA00521A9200364B9B1892
S1130DB09A784270DA7882701A79C270DB8803817B
S1130DC0038C5B05FCD1CB005B1A9B002E4AD31825
S1130DD01B894381038C5B05FCD1CB005B1A9B0010
S1130DE0294AD3189B7A0373038C5B05FCD1CB008F
S1130DF05B1A9B00244AD318DB7A4373038C5B058C
S1130E00FCD1CB005B1A9B001F4AD3189B89C3817A
S1130E104022038C1342FCD1CB005B1A9B001A4A7C
S1130E20D318DB8903828022038C1342FCD1CB00CC
S1130E305B1A9B00144AD3181B8A438280225200F7
S1130E40038C1342FCD1CB005B1A9B000E4AD318CF
S1130E505B8A838280229200038C1342FCD10A4C69
S1130E60CB005A1A9200A218127D027700228262E5
S1130E70591A890061184B7803700332038C1342AA
S1130E80FCD1002010BDC046145B000010B5074B18
S1130E909C466044800AC0B2002804D08D220449D4
S1130EA00020044B9847002010BDC04600BCFFBD85
S1130EB0305B0000390C000070B505000C00431EC7
S1130EC09841C0B2D4220649064B98472C602000B2
S1130ED0054B984701002000044B984770BDC0465D
S1130EE0305B0000390C00008D0E0000650D000021
S1130EF00268137802210B4313700131138C0B42E7
S1130F00FCD17047036858898006800F0338431E5C
S1130F10984101307047036898790123184070475D
S1130F200268137E02210B431376138C5B05FCD1FC
S1130F3070470368988C80B27047002070470000A7
S1130F40F0B501608B69012213438B6102680124AF
S1130F5093691C42FCD09369022423439361344B6C
S1130F60994210D00268936902218B43936102680D
S1130F70936901398B439361016801228B691A4299
S1130F80FCD10020F0BD2B4B1A0001C22A4981611B
S1130F9001688C698C61016800248C600168274DAC
S1130FA0CD610168264DCD60264D2D042D0C802188
S1130FB089020D43A0260768BD51BC2506687451FB
S1130FC00C3506687451204D2D042D0C8026B60472
S1130FD03543C0260768BD511204120C0A43F0259C
S1130FE006687251703D2822066872511A00143244
S1130FF01204120C0A4384260768BA511C331B04DA
S11310001B0C0B43882201688B5090230268D45038
S11310100E4B802212025A51BFF34F8FBFF36F8FD2
S1131020C02149005A501A6003680122DA6599E721
S1131030001C00429401002000000020070A020660
S1131040330A0000640300208403002000E100E070
S113105070B5194B1D682B681C6DE30714D4A305E8
S113106016D4A30118D4E3011BD4230207D52B689B
S1131070596C8906C90F01312800EB68984723078A
S113108014D42B681C6570BD2800AB689847E6E74C
S113109028006B689847E4E703212800EB68984729
S11310A0E1E700212800EB689847DEE704212800E7
S11310B0EB689847E5E7C0469401002010B50300AB
S11310C0C8208000584302300321034B9847030093
S11310D08000C018400010BD671100000139FDD820
S11310E07047000010B5084B5A685A60074B984780
S11310F0074B9847074B9847074B9847FF20074BE8
S11311009847074B984710BD004000415512000016
S11311106D12000049120000AD1200000D12000013
S1131120251100009022D205137802218B431370FD
S1131130704710B582B0EFF31083019372B6902319
S1131140DB051A78012422431A709860D9601A00CA
S11311501379DB07FCD49023DB051869019B83F327
S1131160108802B010BD10B582B0EFF31083019364
S113117072B69023DB051A780124A2431A70986092
S1131180D9601A001379DB07FCD49023DB051869B6
S1131190019B83F3108802B010BD000010B582B02B
S11311A0EFF31083019372B69023DB051A780124C0
S11311B022431A709860D9601A001379DB07FCD4B3
S11311C0034B18685968019B83F3108802B010BD63
S11311D01000004810B582B0EFF31083019372B68B
S11311E09023DB051A780124A2431A709860D96011
S11311F01A001379DB07FCD4034B18685968019B68
S113120083F3108802B010BD10000048C30707D54F
S1131210094A0A4B1A621900094A4B681342FCD165
S1131220830707D5074A054B5A621900044A4B68DD
S11312301342FCD17047C04606010100001C004067
S1131240FD070000060108000122014B1A717047D6
S113125000080040044BDA69F82149010A40DA61C8
S113126001221A617047C046001400400E4B02224E
S11312701A7503325A751900013A8B691A42FCD166
S1131280094904228B691A42FCD10722064B9A753C
S113129019000932CB681A42FCD0034A137D80211D
S11312A00B4313757047C0460010004070470000A0
S11312B010B504001F4BC3189B0ADBB2042B04D0E7
S11312C01D4A1E4900201E4B9847E369DB0718D4CA
S11312D00322E3691A42FCD123689B070BD52368D8
S11312E00222934323600132E3691A42FCD10222B1
S11312F0E3691A42FCD1052323600322E3691A42FD
S1131300FCD10122E3691A42FCD10E4B2360032273
S1131310E3691A42FCD1C0239B0263600722E3699C
S11313201A42FCD1084BA3810023A3733022A35497
S1131330002010BD00FCFFBD5E020000485B000001
S1131340390C000004001040ADD8FFFF70B5050053
S11313500C00431E9841C0B2C4221449144B984750
S11313602000144B9847002800D070BDAC61124B8C
S11313709C4217D0114B9C466444A40A0934E3B23E
S11313802206F2D41F221A40012393400C4A8021E2
S11313905350BFF34F8FBFF36F8F0131FF31535061
S11313A01360E2E7074B1D600D23EBE7485B000089
S11313B0390C0000B11200000014004200FCFFBD13
S11313C000E100E0C00100208269136802210B43A0
S11313D013600131D3691942FCD17047836989B222
S11313E019857047836901229A75704783690222BF
S11313F09A75704770B504000D001600431E98419D
S1131400C0B2164A1649174B984702232A009A433A
S11314100ED1A369002E05D101221A75A3690132E8
S11314201A7570BD01229A75A36901329A75F8E79D
S1131430012D07D0032DF4D1A369002E0BD08022F7
S11314409A75EEE7A369002E02D104221A75E8E723
S113145004229A75E5E780221A75E2E71E0200006D
S1131460485B0000390C000010B5194B18688469FA
S1131470237EDB0702D5A37DDB070FD4237E9B07E6
S113148002D5A37D9B070ED4237E5B0715D5628B03
S113149037231A420CD04833638310BD01232375CC
S11314A003689847F9E70223237583689847F4E7AC
S11314B0218DC9B243689847EFE7237EDB09ECD05E
S11314C080232376C3689847638B9BB26383E4E7E6
S11314D0C001002070B505000C00354BCB189B0AE9
S11314E0DBB2022B0BD0002851D0601E8441E0B245
S11314F0304A3149314B98470D20404246E000289C
S11315004DD12C4A2C4900202C4B9847E369DB072A
S113151018D40322E3691A42FCD123689B070BD534
S113152023680222934323600132E3691A42FCD107
S11315300222E3691A42FCD10D2323600322E369EA
S11315401A42FCD10122E3691A42FCD12C6020002A
S1131550431E9841C0B21A4A1749184B9847194B71
S113156023600322E3691A42FCD180239B02636057
S11315700722E3691A42FCD109232373002227338B
S1131580E2542F3B2B71104BEB80002070BD094AB5
S113159009490020094B98470D204042F6E708000E
S11315A0431E9841C0B2034A0349044B9847ADE730
S11315B000FCFFBD48090000485B0000390C000036
S11315C00D0900000C000100FF010000F0B5DE462B
S11315D057464E464546E0B583B081460E00046842
S11315E00B6898464D6803790193002815D02000B4
S11315F0431E9841C0B2364A3649374B9847E3698F
S11316005B073FD10323E0691840FCD123689B07A3
S11316103BD5020001239C4609E00020EBE701359D
S113162001325BB2002B16DBB368834227D9237ED9
S1131630DBB2042119422BD0A76A002DF0D02F7001
S113164001990129EBD93F0A6F700235E8E70121BE
S11316508B46D84437E001235B426383813323768E
S1131660132040420322237E1342FCD0032323761B
S113167003B03CBC90469946A246AB46F0BD9342AB
S1131680D5D8EFE704204042F2E714204042EFE7C8
S11316909042C6D867461F42C3D04F46FF88BA4619
S11316A04746002F0FD03F78BA4601990129CED979
S11316B047467F783F02BB46574659460F43BA46D2
S11316C002218B46D84401305746A762A9E7C04699
S11316D0A80A0000485B0000390C000070B5050042
S11316E00C008B68DB072DD50122A3681A42FCD1BC
S11316F021490B681A02FC20800102401B059B0E45
S1131700134323621D4E33681805F0231B0418404D
S11317100B681B0B18431A4B98471A491A4B9847E6
S11317201A4B9847A06133681B011B0AE3612C60C4
S1131730002323700322A3681A42FCD10023A37060
S1131740002070BD0322A3681A42FCD123789B07B2
S11317500BD523780222934323700132A3681A42E3
S1131760FCD10222A3681A42FCD101232370032274
S1131770A3681A42FCD1B7E730608000346080006F
S113178035240000ABAAAA3C7D1E0000BD1B00004E
S113179070B50B4B98470B4B98472022C023DB05B1
S11317A09A6100210848094B9847094C094D0A4E93
S11317B02378012BFCD12B78012BF9D1B047F7E723
S11317C01D010000891B0000F8020020ED05000047
S11317D0F4010020C00200206118000070B505006B
S11317E00C0008001130C8222900064B9847280035
S11317F0054B9847113082B221000448044B9847A6
S113180070BDC046653D0000873D00001403002004
S11318108907000070B505000A4CC82201002000A9
S1131820094B98472800094B9847113082B2210090
S113183011390748074B9847C82200210648074B2F
S1131840984770BD31000020653D0000873D0000D1
S11318501403002089070000F8010020773D0000F0
S1131860F0B5CE46474680B583B0894B1B786F2BC5
S113187025D0874B1B786F2B32D0854B1B78612B7F
S11318803BD0834B1B78742B4AD0814B1B78312B74
S113189055D07F4B1B78322B60D07D4B1B78332B7C
S11318A000D19AE07B487C4B984700237B4A137015
S11318B07B4A137003B00CBC90469946F0BD744B40
S11318C05B786E2BD5D12022C023DB059A61754845
S11318D0714CA0473220744B98477448A047E4E702
S11318E06B4B5B78662BC8D1694B9B78662BC4D154
S11318F02022C023DB055A61D7E7654B5B78642B54
S1131900BFD1634B9B78632BBBD18021C903353393
S1131910C022D205D15066496648674B9847C4E750
S11319205B4B5B78652BB0D1594B9B78732BACD157
S11319308021C9032533C022D205D150B5E75F4CBD
S11319402F3B220000215E485E4DA84763786371F7
S1131950227822711B021343E380A6E7574C303BE5
S1131960220000215648574DA847657865712378B1
S113197023712D021D43E580534EFA21890028006E
S1131980B04780B2514B99460A219847CBB298464A
S1131990237264212800B04780B20A21C847CFB21D
S11319A067720A212800B04780B20A21C847CEB224
S11319B0A6720A212800C847C9B2E17243463033EF
S11319C02373303767733036A6733031E1732000E8
S11319D00C303749384B984767E7384C313B220085
S11319E000213748374DA847607860712378237108
S11319F000021843E080364B98473649364B9847E7
S1131A00061C2061354B9847A0822300183322001E
S1131A10103203CA03C3301C314B9847314B0622A2
S1131A20314EB047E3881D00274EFA218900180083
S1131A30B04780B2254F0A21B847CBB299462372EA
S1131A40642101952800B04780B20A21B847CDB27D
S1131A5065720A210198B04780B20A21B847CEB214
S1131A60A6720A210198B847CBB2E37249463031D5
S1131A7021732900303161733036A6733033E37338
S1131A80562323740A4917480B4B98470DE7C04661
S1131A90F8010020705B000015180000F40100201C
S1131AA0C00200201400002069070000645B0000ED
S1131AB020000020F9010020DD170000C4010020EF
S1131AC0F80200201906000067110000D51100007B
S1131AD03524000000005244ED1B0000BD1B000033
S1131AE0B1370000E4010020D13C00007047000041
S1131AF010B582B001226B46D91D1F481F4B984771
S1131B00C1B21F4B1B78002B12D16B46DA790D2A18
S1131B1024D00A2A22D01A4B0120187000205870B1
S1131B2058781818027158784018C0B2587015E0E7
S1131B30134B5A786846C4799A1814715878401827
S1131B40C0B258700D2C0BD00A2C09D00C4B5B780A
S1131B50DBB2C72B02D90022094B5A7002B010BD68
S1131B60084A01214C23D154054B5B78023BDBB27C
S1131B704C315354EAE7C04614030020BD0700006B
S1131B80F40100207402002070B5074C074A0121BB
S1131B902000074DA847074A00212000A84720003D
S1131BA0054B984770BDC04614030020ED1A000091
S1131BB0C10B0000F11A0000950B00009E2110B526
S1131BC0C905041C01F0B4FE002803D1201C00F058
S1131BD011FC10BD9E21201CC90500F06FFA00F015
S1131BE009FC80231B069C466044F2E7F0B5574687
S1131BF04E46DE464546E0B544024300C60F83B078
S1131C000F1C640A1B0EB24653D0FF2B27D0802230
S1131C10E400D20414437F225242904698440023A5
S1131C2099469B467D027800FB0F6D0A000E0093D7
S1131C3024D0FF2846D080230021ED00DB041D437F
S1131C407F384746381A4F460F43BF00B946330022
S1131C50009A874F53404A46BA5801939746002C3E
S1131C604ED108239946F7339846FD3B9B467D02A7
S1131C707800FB0F6D0A000E0093DAD1002D26D1F7
S1131C80002001213300009A7A4F53404246101A33
S1131C904A460A439200BA581D009746009B2C00FE
S1131CA09A468B465B46022B31D15346FF210024D2
S1131CB038E0002C17D104239946002398460133B9
S1131CC09B46AFE7FF20002D0BD10221DAE7280065
S1131CD001F038FE431F9D4076235B42181A002111
S1131CE0AFE70321ADE7200001F02CFE431F9C4029
S1131CF076235B421B1A9846002399469B4691E73C
S1131D000C239946F3339846FC3B9B468AE7032B06
S1131D1000D1A5E05546012B00D081E0012300212C
S1131D2000242B406402C905600ADB0708431843FA
S1131D3003B03CBC90469946A246AB46F0BD802415
S1131D400023E403FF21EDE7FF210024EAE7012358
S1131D50591A1B2966DD019A134000210024E1E78A
S1131D608023DB031C4238D01D4251D01C43640243
S1131D70640A3300FF21D5E763016C01A3423BD21F
S1131D801B260021013801251F0049005B00002F9C
S1131D9001DB9C4201D81B1B2943013E002EF3D1D9
S1131DA01C00631E9C410C4301007F310029CEDDE1
S1131DB0630704D00F232340042B00D004342301F1
S1131DC003D501002C4B80311C40FE290DDD01237D
S1131DD0019AFF2113400024A4E78023DB031C4362
S1131DE06402640A3300FF219CE70123019AA401E1
S1131DF0640AC9B2134095E71B1B1A260121C2E7E6
S1131E00009B8B469A4600244CE76302E5D50025E7
S1131E108024E4032C436402640A009BFF2181E7CD
S1131E200195C1E723002020CB40411A8C40611E5C
S1131E308C411C43630704D00F232340042B00D0A0
S1131E400434630105D50123019A012113400024C0
S1131E5068E70123019AA401640A1340002161E7A1
S1131E608023DB031C436402640A5346FF2159E7C1
S1131E70885B0000C85B0000FFFFFFF7F8B557461A
S1131E804E464546DE46E0B54702460088467F0A90
S1131E90360EC40F002E47D0FF2E24D0FB0080271F
S1131EA0FF041F43002399469A467F3E43465D0242
S1131EB05800DB0F6D0A000E984643D0FF283BD034
S1131EC0EB0080250022ED041D437F383618731C77
S1131ED041469B464B46614013430F2B64D87548DB
S1131EE09B00C3589F46002F42D108239946063BC6
S1131EF0FF269A46DAE74146022A28D0032A00D16F
S1131F00CEE0012A00D0ACE0114000200022CCB287
S1131F104002D205400AE407104320433CBC9046EB
S1131F209946A246AB46F8BD002F15D10423994625
S1131F30033B00269A46B9E7FF200222002DC5D0B4
S1131F400322C3E7002D19D100200122BEE701249A
S1131F50FF220C400020DBE7380001F0F3FC76267A
S1131F60431F9F4000237642361A99469A469DE7BE
S1131F700C239946093BFF269A4697E7280001F06F
S1131F80E1FC431F9D4076235B42181A00229DE723
S1131F9080200024C003FF22BAE73D005246ABE78D
S1131FA03D0021005246A7E73B0C9C462A04120C34
S1131FB02B0C1400604665463F043F0C7C434243AF
S1131FC05D437B43270C9B18FF18BA4203D9802337
S1131FD05B029C46654424043A04240C12199301C0
S1131FE05C1EA3413F0C920E7D191A43AD011543AB
S1131FF02B0104D501235E466A081D4015433200B7
S11320007F32002A25DD6B0704D00F232B40042BDD
S113201000D004352B0103D53200274B80321D40FC
S1132020FE2A94DC0124A801400AD2B20C406FE7D6
S11320308020C003074207D0054205D1284340024F
S1132040400A4446FF2263E738434002400AFF2225
S11320505EE70124A31A1B2B05DD0C40002200209F
S113206056E75E46CBE72A002020DA40C31A9D409B
S11320702B005D1EAB4113435A0704D00F221A40B4
S1132080042A00D004335A0104D5012401220C404F
S113209000203DE701249B01580A0C40002237E749
S11320A080200124C00328434002400A0C40FF2240
S11320B02EE7C046085C0000FFFFFFF7F0B54F466F
S11320C0D64646464400C0B5C20F47024802400AFD
S11320D0844666467B0A4800C90F9A46240E1500BA
S11320E0DB00000E8946F600FF2800D18FE00121B5
S11320F04F464F403900914266D0221A002A00DC34
S11321009DE000283DD1002E00D18BE0511E002916
S113211000D0B5E001249B1B5A0144D59B019F09C3
S1132120380001F00FFC05388740844200DD96E05A
S1132130041B3A0020200134E240041BA7403B006A
S11321405F1EBB41002413435A0704D00F221A40D8
S1132150042A00D004335A0127D50134FF2C00D1BE
S113216079E001229B015B0AE4B22A405B02E405A8
S1132170580AD207204310431CBC90469946A246F5
S1132180F0BDFF2CE0D08021C9040E431B2A7BDC68
S113219031002020D140821A9640721E96410E438F
S11321A09B1B5A01BAD45A07D0D10122DF082A4016
S11321B0FF2C33D1002F00D1A8E08023DB033B4365
S11321C05B025B0AFF24D1E7211A00294CDD0028B9
S11321D02AD0FF2CB8D08020C00406431B2900DD80
S11321E0AFE030002027C840791A8E40711E8E411E
S11321F006439B195901D6D50134FF2C00D185E043
S113220001227A491A405B080B4013439CE7002ED5
S113221000D070E76BE73B1EC5D100227B025B0A4E
S1132220E4B2A3E714008FE7002E4DD0481E002827
S113223057D19B1901245A01B5D50224E0E7002A9D
S113224025D1621CD2B2012A72DD9F1B7A0135D5D9
S1132250F71A0D0064E7012200232A4086E73B00B9
S1132260634A241A13406FE700296CD1611CC8B279
S113227001284EDDFF2949D09B195B080C0063E758
S1132280FF2A41D00A0081E701269B1B89E7002C25
S11322901CD0FF2821D08024E404524223431B2A6B
S11322A000DD96E01C002025D440AA1A93405A1E53
S11322B093412343F31A04000D002DE7002F00D0AF
S11322C02EE700220024A9E70C003DE7002B58D09C
S11322D0D243002AEED0FF28E1D13300FF240D00C1
S11322E032E7FF2910D0010078E7002B6ED0FF24DD
S11322F0002E00D128E780225146D203114203D098
S11323006146114200D13300FF241DE7FF2400235E
S11323102CE7002CE9D1002B63D0002E00D113E769
S11323209B195A0100D43EE7314A0C0013400BE7D5
S1132330002C1ED1002B2FD1002E4FD033000D00C6
S113234002E7012655E7002C1FD1002B43D0C943D7
S113235000290BD0FF2839D01B2944DC1C0020277E
S1132360CC40791A8B40591E8B4123439B1904009E
S113237040E7002B1AD1002E24D180270022FF032E
S11323801BE7330004000D00DEE6FF281ED0802486
S1132390E40449422343DFE7002E00D1D4E69F1B27
S11323A07A0100D437E7F31A0D00CDE6FF24002E9E
S11323B000D1C9E680225046D2031042A4D0604620
S11323C01042A1D133000D00FF24BDE63300FF24E9
S11323D0BAE601236EE733000400B5E600270022C5
S11323E01CE73300B0E60123C0E7C046FFFFFF7DD2
S11323F0FFFFFFFB41024300C20F490A1B0E0020EE
S11324007E2B0DDD9D2B0CDC802000040143952BDD
S11324100ADC9620C31AD9404842002A00D1080099
S11324207047034BD018FBE7963B9940F4E7C0464E
S1132430FFFFFF7F10B5041E27D001F083FA9E230F
S11324401B1A962B0ADC9622D21A94406402640A60
S1132450DBB26402DB05600A184310BD992B17DC5C
S11324609922D21A002A27DD94402200134C1440EA
S1132470510704D00F210A40042A00D00434620119
S113248012D4A401640ADBB2E3E700230024E0E7EA
S1132490B9222100D21A91400A00511E8A41052115
S11324A0091ACC401443DBE7044B1C409F23A401CE
S11324B01B1A640ADBB2CCE72200D7E7FFFFFFFB5D
S11324C0F0B557464546DE464E46E0B54C000E0391
S11324D087B0834692461D008046360B640DCF0FAD
S11324E0002C4FD06F4B9C4235D08023420F1B04ED
S11324F0F600134333439946C30098466A4B0026BB
S11325009C460023644403932B031B0B9B466B00E4
S1132510ED0F50465B0D01955ED0624A934253D055
S11325205A46D1008022400F120402430A439346C4
S11325305246D1005C4A9446002263443800684005
S113254084460290E41A16430F2E00D9B4E0574B88
S1132550B6009B599F460300334399466CD1002330
S11325609846023308260393CEE7CB464146039AA6
S11325700197022A65D1019B4A4C9C460023002204
S113258098466BE00300334399464ED0002E00D1A9
S1132590BCE1300001F0D6F903000B3B1C2B00DD3D
S11325A0ACE11D22D31A5A460100DA4008398E40A4
S11325B01300334399465B468B40984600233C4CBA
S11325C00026241A03939FE751465A46114329D102
S11325D0002293460232B1E7594601431ED05B46BE
S11325E0002B00D19EE1584601F0ACF903000B3BEF
S11325F01C2B00DD8FE102005946083A91408B46BE
S11326001D21CB1A5146D9400B0059460B43514664
S11326109B469140264B00221B1A8FE70023012280
S11326209B468BE75146032288E7002398460133F3
S113263004260024039367E70323B14603930C267F
S113264062E7032A00D15CE2019B012A00D0E4E1A5
S113265013409C46002300240022984600211203C4
S1132660130B0A0D12051A432305124C404622404F
S1132670134362465B00D2075B081343190007B09B
S11326803CBC90469946A246AB46F0BD002380224E
S11326909C4612039846034CE0E70023014C0022B9
S11326A09846DBE7FF07000001FCFFFF485C0000E1
S11326B00DFCFFFFFFFF0F80D94500D939E100D1A0
S11326C034E1002346464D469A46013C5B460A0ED9
S11326D01B021A430B02170C039313041B0C39003F
S11326E0280090460193FEF73EFD0200019B8346BD
S11326F05A43280039009146FEF76CFD350C090455
S11327000D43A9450DD95B464544013BA84500D975
S11327103AE1A94500D837E102235B429C4645448F
S1132720E3444B46EB1A390018000493FEF71BFDF3
S1132730019B05004343390004989946FEF74AFD7E
S1132740330409041B0C0B43994509D943446A1EFD
S1132750984500D91AE1994500D817E1023D434450
S11327604A469B1A5A4612042A4303999346100C6C
S11327700A0C914609045A46090C4E460D001204EF
S1132780120C4543059151437243704352190E0C88
S1132790B218954203D980256D02AC466044150CED
S11327A009041204090C28185218834200D2CEE0FE
S11327B000D1C8E01D1A53469E1AB24592415242B6
S11327C0AB1A9A46984500D117E139001800FEF774
S11327D0CAFC019B05004343390050460493FEF7AD
S11327E0F9FC04980B04310C1943884209D941447B
S11327F06B1E884500D907E1884200D804E1023DF8
S11328004144049BCB1A180039000493FEF7ABFC37
S1132810019B82464343390004980193FEF7DAFC96
S113282001980B043104090C194388420DD953460D
S11328304144013B884500D9E8E0884200D8E5E0FE
S113284002235B429C464144E244019B2D04CE1A80
S113285051462943059D4F462A000B04080C1B0CC6
S11328605A4345437B4378435B19170CFB189D423D
S113287003D980256D02AC4660441D0C12041B0470
S1132880120C28189B18864200D293E000D18EE0E7
S113289001231943A04BE318002B00DC99E04A07FD
S11328A000D09EE05A46D20106D55A469B4B1A40A8
S11328B080239346DB00E318994A934268DD0123A1
S11328C0029A984C1A400023944698460022C5E682
S11328D080224B46120313420AD05B46134206D1B0
S11328E01A431203120BAC4688468E4CB6E64B468E
S11328F01A431203120BBC468A4CAFE603005A4635
S1132900283B9A4000239146984657E6584601F0E2
S113291019F8203040E603005246283B9A40002133
S1132920934677E601F00EF820305FE6884500D242
S1132930C7E64B46DE075D0843465B081E43434635
S1132940DB079A46C2E60025924500D333E7039E8F
S11329505946B446E244B245AD416D424544EB1894
S11329600139984507D2984200D97FE000D1BCE0F4
S11329701D1A8B461FE79845FAD1039D5545F2D998
S113298043468B461D1A16E79B46CAE61500E7E642
S11329905A46C90852070A435B0590465C0D5A46DD
S11329A00123029952021940120B8C4656E6002B61
S11329B000D16FE746444A1EB04529D9110086422A
S11329C000D065E7039A934200D061E762E70121F2
S11329D049420120C21A382A21DD029B03409C4649
S11329E038E60F220A40042A00D15BE70A00111DD1
S11329F0914292415242934454E7474BE318002BCF
S1132A00E5DD01225242F2E71D00FAE69A461CE790
S1132A10B04239D86ED011003AE702933AE71F2A40
S1132A203CDC20239B1A0C005846994098404B1ECE
S1132A3099415B46D440D340204308431A004307DE
S1132A4009D00F230340042B05D00100081D884240
S1132A509B415B42D21813023AD50123029A012406
S1132A601A400023944698460022F7E50221494281
S1132A708C46039DE344AC46E244AA45AD416D4215
S1132A804544ED182D1A96E68A1E03994D008D4291
S1132A90894149424144761803958FE71F204042FB
S1132AA0C31A5846D8400300202A28D040205D4647
S1132AB0821A954029434A1E914119430723002253
S1132AC00B4009D00F2300220B400800042BBDD17A
S1132AD0010053075202120BC90819430123884607
S1132AE00299002419408C46B8E55245BED88B465D
S1132AF0002560E6039D9D42C6D3110062E70025D0
S1132B00D8E780225B4612031A43019B1203120B7F
S1132B109C468846034CA1E5FF030000FFFFFFFE2F
S1132B20FE070000FF070000F0B557464546DE46A5
S1132B304E46E0B50C0398464E00230B87B00700C1
S1132B4092469B46760DCD0F002E6BD06D4B9E4268
S1132B5035D080245B46420F2404DB0014431C431D
S1132B60C3009946684BA3469C460023002766444D
S1132B70029343461C035A00DB0F5046240B520DAC
S1132B80984600D176E05F4B9A426DD08023410F86
S1132B901B040B435C49E4008C461C43C300002027
S1132BA062444146B6186940721C01919446074339
S1132BB00F2F00D9B0E0554ABF00D25997465B4663
S1132BC00343994600D087E000239B46023308273D
S1132BD00293CEE742460192022867D0032800D12F
S1132BE00EE2012800D062E100230024002299466D
S1132BF001990140CDB2002112030B0D120B1B05EC
S1132C001343434A240513401C436400ED0764083E
S1132C102C434846210007B03CBC90469946A24646
S1132C20AB46F0BD034399464FD05B46002B00D121
S1132C3089E1584600F086FE03000B3B1C2B00DDA7
S1132C407AE11D22D31A3A0001005C46DA400839C1
S1132C508C4013008F4023439B46B94600232D4EDE
S1132C600027361A029384E7534623432AD10024CB
S1132C70022096E75346234320D0002C00D157E18D
S1132C80200000F05FFE03000B3B1C2B00DD49E13C
S1132C901D21CB1A51460200D9405346083A9440AC
S1132CA093400C431B4A121A00207AE70125019B2A
S1132CB0144C1D400023002299469CE70024002266
S1132CC001206EE7534603206BE700239B46013344
S1132CD00427002602934CE7032381460C27029322
S1132CE047E780220023002512039946054C82E71A
S1132CF05C464B4602986FE75C464B46019502984A
S1132D006AE7C046FF07000001FCFFFF885C000083
S1132D10FFFF0F800DFCFFFF4A464946170C1A0CB3
S1132D201B041B0C08041900000C414315008846C1
S1132D3019007D43794303958946290015004543CD
S1132D404D44029545462D0CAA46029D5544A9457D
S1132D5006D98A46802149028946CA4451460391CC
S1132D60290C0491414609042D04090C88462900C4
S1132D70250C24044144240C059121004143884638
S1132D80210079438A466843414650448146080CF1
S1132D9048446F43824503D98021490289464F4400
S1132DA0010C894639004944029141460F040499B3
S1132DB03F0C88460004C01980444146049159469A
S1132DC00F0C0904090C884659438A4639005143BB
S1132DD0894641464A435146090C8B467B43D218E7
S1132DE05A44934203D980235B029B46D9445146FB
S1132DF00904090C8A46414661437C43130C1204BE
S1132E004B445244A1468A463C0041466C434D43E0
S1132E1051464D440F0C7D19A94503D9802149021F
S1132E2088464444049F0399B84641448B468345ED
S1132E30804141428846514608042F04000C3F1843
S1132E405846029910188946904292414F44BA4616
S1132E50524299469346C244D144CB448F42BF4127
S1132E60C245894199459B41934592417F424942DC
S1132E702D0C52420F435B4213437F19FF185B46EC
S1132E803C19DB0D059A64021C43430213435D1E87
S1132E90AB415A46C00D034352021343E20156D5D7
S1132EA001205A0803401343E207134364085A48B5
S1132EB0604400284DDD5A0709D00F221A40042A25
S1132EC005D01A1D9A429B415B42E4181300E201AB
S1132ED004D58020514AC00014406044504A9042B6
S1132EE000DDE3E60125DB0862071A436402019B67
S1132EF09146220B4405640D1D407CE68022594610
S1132F001203114208D0144206D122431203120BB9
S1132F1045469946434C6EE65B461A431203120B30
S1132F20404C68E603005446283B9C400023B9E625
S1132F3000F008FD2030A6E60300283B9F40002354
S1132F40BB4699468AE600F0FDFC203074E6B446A0
S1132F50ADE701252A1A382A06DD019B00241D400D
S1132F6000230022994646E61F2A21DC2025200062
S1132F70AD1A1E00AB40A840D6405D1EAB413043A5
S1132F801843D440430709D00F230340042B05D032
S1132F900300181D98429B415B42E418230221D58B
S1132FA00125019B01241D4000230022994622E6AD
S1132FB01F2521006D42281AC1400800202A1DD077
S1132FC05F35AA1A944023435C1EA341072503439B
S1132FD01D400022002D09D00F2200241A401800A1
S1132FE0042AD6D1030065076402220BDB082B43B5
S1132FF001259946019B00241D40FCE50024E2E7DD
S1133000802201251203224301991203120B0D4061
S11330109946044CEFE5C046FF030000FFFFFFFEA6
S1133020FE070000FF070000F0B54646D6464F46AF
S11330300C03C0B5CD0F4E00610A440F0C43C10010
S11330405800400D84468A460F001903500F490A60
S11330500143C648760DA846DB0FD200844500D153
S1133060D8E001204340AB4200D1A6E06046351AC7
S1133070002D00DC05E1002810D10B00134300D122
S1133080D7E06B1E002B00D04BE153469F1ABA4584
S11330908041641A4042241A01261EE0B34B9E422A
S11330A048D080231B041943382D00DD19E11F2D5E
S11330B000DD4CE120230F005B1B10009A409F4071
S11330C0E840531E9A41E940074317435346DF1B28
S11330D0611ABA45A44164420C1B230200D4C5E022
S11330E06402650A002D00D1F6E0280000F02AFCF5
S11330F00300083B1F2B00DDE9E020223C00D21A2C
S11331009D40D4409F4025439E4200DDDBE09E1B52
S1133110731C1F2B00DD0AE120223800D21A29007B
S113312097402C009140D8407A1E9741DC400026FD
S113313001430F437B0709D00F233B40042B05D0E9
S11331403B1DBB42BF417F42E4191F00230225D52A
S1133150864B01369E4200D1AFE0854B01251C40D1
S113316043466207FF08640276051743240B760D75
S11331701D4000212403230B0C0D7E4A24051C430F
S11331801440330523435B00ED075B082B433800F1
S113319019001CBC90469946A246F0BD0125434641
S11331A06207FF081743E4081D40704B9E4236D067
S11331B024037605240B760DDBE76346F31A002B14
S11331C000DC94E06046002835D068488642B1D0DF
S11331D080273F043943382B00DCFDE00A43170005
S11331E000217A1E974157445745804109194442AA
S11331F00C1923023AD55D4B01369E4200D14BE1B6
S113320001225B4B1C407B0817401F43E207174316
S113321064088FE70800104300D024E721E7230067
S11332203B4300D1B9E18022120314432403240B4D
S11332309FE72E007EE70800104300D1CAE0581E25
S11332408446002800D0E7E0524452458041641887
S11332504042241817000126230207D50226CFE78F
S113326064462C4300D1B3E12C0067467B0700D0B1
S113327062E76307FF081F4301254346E4081D4036
S113328093E7002D78D1751C6D056D0D012D00DCC3
S1133290F2E05046801A8245BF41651A7F42ED1B19
S11332A08446280200D48CE05046171ABA42924150
S11332B00C1B5542651B984614E701254346002420
S11332C01D40002755E72A4CF61A2C4032E73D00F2
S11332D028388540002717E7380000F033FB2030FA
S11332E006E70A43170000217A1E9741EEE6002BF9
S11332F000D0E5E0731C9C465B055B0D012B00DCF4
S11333009FE01A4B9C4500D1C5E052445245804190
S1133310641840422418E7075208174364086646B5
S113332008E71248854200D185E01D00BCE629006B
S11333301F3EF140202B00D17FE04022D31A9D4054
S11333402F437D1EAF4100240F4300268EE72B0040
S11333500F00203BDF40202D71D040235D1BA9408E
S11333600A43511E8A4100211743AFE6FF070000BC
S1133370FFFF7FFFFFFF0F80002E3ED0B34EB4450A
S113338045D0802636046D423443382D00DDA8E054
S11333901F2D00DD1FE1202627005046761BB74075
S11333A0E84007435046B040461EB041EC40384325
S11333B0171ABA4292410C1B5242A41A6646984606
S11333C08BE6644667462C4300D08BE60025002636
S11333D00027EAE61E00ADE61F2B60DC2027F81A62
S11333E00F00844687401000D8400743604682405F
S11333F0501E8241D9401743F5E626005046064345
S113340005D0ED43002DD3D0904EB445BDD10C0072
S11334101700664698468DE68C4883420BD0634677
S1133420D9E6002D00D096E00800104300D1E2E078
S11334300C0017009846854E7CE6002580E70021A5
S11334408EE7230050460343002E00D0A8E0002B53
S113345000D1DEE00B00134300D16BE65244524529
S113346080416418404224181700230200D4FDE66A
S1133470774B66461C405DE6250050460543002E0A
S1133480CFD1002D4FD10C00144300D1A0E00C008B
S1133490170098464EE666460024002785E61F007E
S11334A00800203FF8400700202B00D18EE0402088
S11334B0C31A99400A43511E8A410021174392E6D8
S11334C0002E14D126005046064362D0DB43002B65
S11334D05CD187189742924164185242A4186646F8
S11334E087E650462043441EA041002460E7574E1F
S11334F0B4454ED0802636045B423443382B00DD7D
S11335007FE01F2B00DD8BE0202627005046F61AB3
S1133510B740D84007435046B040461EB041074329
S1133520DC40BF18D6E70D00154300D102E6504633
S1133530801A8245BF41651A7F42ED1B84462802EA
S113354000D48DE65046171ABA4292410C1B5242DF
S1133550A41A9846EEE50D00154300D16BE75046DA
S11335606707C00807438020E4080003044207D02B
S1133570CD08054204D12C009846D70849070F43CB
S11335807B0FE4001C43FF00304ED3E52F4EB445BF
S1133590B4D10C0017006646CCE500270024E8E50A
S11335A0002B39D00B00134300D144E7C008670750
S11335B007438020E40800030442E1D0CB0803421F
S11335C0DED1D70849070F431C00D9E7002171E772
S11335D000250027E9E52E002700203EF740202D96
S11335E02FD04026751BAC4050462043441EA041BA
S11335F000243843DCE6802400252403134E0027EE
S1133600D3E5504620430700781E87410024BF18A5
S113361060E70C0017008DE50C0017000B4E89E5E0
S11336201E002700203EF740202B0CD04026F31A22
S11336309C4050462043441EA04107430024BF1829
S113364048E70024D0E70024F3E7C046FF07000062
S1133650FFFF7FFF30B5134D0A034B00120B5B0DC8
S1133660C90F0024AB4210DD0F4CA3420FDC8024B1
S11336700E4D64032243ED1A1F2D0BDD0C48C31AB3
S1133680DA405442002900D11400200030BD094B17
S1133690CC18FAE7084CE840A44663449A40024335
S11336A0EFE7C046FE0300001D04000033040000E1
S11336B013040000FFFFFF7FEDFBFFFF70B5002840
S11336C030D0C317C4185C40C50F200000F03AF98D
S11336D0174B184A1B1AD21A1F2A18DD164AD21A77
S11336E09440002224035B05240B5B0D0021100091
S11336F024030A0D240B12052243104C1B052240FF
S113370013435B00ED075B082B43190070BD2100D8
S113371091400A000B21081AC4405B052403240BC2
S11337205B0DE3E70025002300240022DEE7C0460A
S11337301E0400003304000013040000FFFF0F8088
S113374010B5041E28D000F0FDF8154B154A1B1ABD
S1133750D21A1F2A15DD144AD21A944000222403D7
S11337605B05240B5B0D0021100024030A0D240BC0
S1133770120522430D4C1B05224013435B005908DC
S113378010BD210091400A000B21081AC4405B05BA
S11337902403240B5B0DE6E7002300240022E2E768
S11337A01E0400003304000013040000FFFF0F8018
S11337B04100090E4B1C70B5DBB24602750AC40FFA
S11337C0012B14DDE0239B006D07360BCB18002181
S11337D00A0D280012051C4D32435B052A405B0884
S11337E013435B00E4075B082343190070BD002901
S11337F014D1002D1ED0280000F0A4F80A281CDCE7
S11338000B232A001B1ADA40030015339D400F4B8B
S113381012031B1A5B05160B5B0DD8E7002D06D0AF
S1133820320B802636036D071643094BCFE7084B4E
S11338300026CCE700230026C9E703002A000B3B3F
S11338409A400025E3E7C046FFFF0F80890300008C
S1133850FF0700008446101C62468C46191C634610
S113386000E0C0461FB500F0D1F9002801D40021C2
S1133870C8421FBD10B500F02BF94042013010BD05
S113388010B500F0C3F9002801DB002010BD0120B1
S113389010BDC04610B500F0B9F9002801DD0020C4
S11338A010BD012010BDC04610B500F04BF9002832
S11338B001DC002010BD012010BDC04610B500F091
S11338C041F9002801DA002010BD012010BDC046D6
S11338D08446081C6146FFE71FB500F0B7F80028CE
S11338E001D40021C8421FBD10B500F049F8404280
S11338F0013010BD10B500F0A9F8002801DB00204C
S113390010BD012010BDC04610B500F09FF800287E
S113391001DD002010BD012010BDC04610B500F02F
S113392055F8002801DC002010BD012010BDC04660
S113393010B500F04BF8002801DA002010BD01207A
S113394010BDC0461C2101231B04984201D3000C66
S113395010391B0A984201D3000A08391B099842FE
S113396001D30009043902A2105C40187047C04614
S11339700403020201010101000000000000000034
S113398070B5420045024E024C00C30F6D0A120E80
S1133990760A240EC90F0120FF2A06D0FF2C03D07B
S11339A0A24201D1B54206D070BD002DFCD1FF2C3E
S11339B0FAD1002EF8D18B4206D00120002AF3D18F
S11339C02800451EA841EFE70020EDE7F0B54200CE
S11339D045024C02C30F48006D0A120E640A000E21
S11339E0C90FFF2A1ED0FF2821D0002A0AD16E4217
S11339F06E41F6B200280FD1002C0DD10020002D0D
S1133A0009D005E0002801D1002C01D08B4211D04F
S1133A10012158420843F0BD002EF7D0012001399E
S1133A200843F8E7002DDED002204042F3E7002CE3
S1133A30DBD0F9E78242EBDC04DBA542E8D80020C6
S1133A40A542E8D20121581E0843E4E7F0B542003C
S1133A504D024C004602760A120EC30F6D0A240E64
S1133A60C90FFF2A16D0FF2C18D0002A0AD17042A1
S1133A707041C0B2002C15D0002805D001200139B6
S1133A800843F0BD002C13D0994214D001205B42AE
S1133A901843F6E70220002EF3D1E4E70220002DBC
S1133AA0EFD1E2E7002DE7D10020002EE9D0EDE7C9
S1133AB0002DE9D1EAE7A24206DCDFDBAE4203D8FF
S1133AC00020AE42DAD3DCE7012049420843D8E7BC
S1133AD0F0B54F464646D6465C00C0B51F03DB0F23
S1133AE09A46174B0E034D0084468046360B6D0DE7
S1133AF0C90F91463F0B640D01209D4208D09C42A2
S1133B0001D0A5420BD01CBC90469946A246F0BDFC
S1133B1063463343F7D1AC42F5D13A43F3D10120A4
S1133B20BE42F0D1C845EED1514507D0002DEAD1AF
S1133B3063461E433000461EB041E4E70020E2E73E
S1133B40FF070000F0B54546DE4657464E46E0B551
S1133B501F033D0B2C4F0E034C00AB465D00844607
S1133B60360B640DC90F90466D0DDB0FBC422AD095
S1133B70254FBD422DD0002C0FD130430700814684
S1133B8078427841C0B2002D17D15F463A4314D130
S1133B904B460020002B0AD006E0002D02D15846E7
S1133BA0024301D0994218D04842012108433CBC49
S1133BB090469946A246AB46F0BD0028F2D00120BB
S1133BC0013B1843F3E737000743D1D002204042BA
S1133BD0EDE75F461743CED0F8E7AC42E4DC03DA06
S1133BE0481E01210843E2E75E45DDD806D00020E7
S1133BF05E45DCD20123481E1843D8E7C445D3D818
S1133C000020C445F6D3D2E7FF070000F0B54E46C6
S1133C104546DE4657465C00E0B51F03DB0F994678
S1133C202A4B0E034D00C90F8446360B6D0D8B468F
S1133C3090463F0B640D9D4220D0244B9C4222D0E1
S1133C40002D12D1304343424341DBB2002C1FD03C
S1133C50002B0CD04B460120013B034318003CBC15
S1133C6090469946A246AB46F0BD002C16D0CB45F3
S1133C7017D05B46594201230B43EFE7310002237F
S1133C800143EBD1D9E7390002231143E6D1D7E749
S1133C903A43DDD100230028E0D0EAE73A43E6D1F5
S1133CA0E7E7A542E5DC05DBBE42E2D807D0002306
S1133CB0BE42D3D25946012301390B43CEE7C44552
S1133CC0D7D80023C445F5D3C8E7C046FF07000092
S1133CD0F0B51C0085B000231500002206000F007B
S1133CE0FFF7CEFD2300002803D02D23013D2370D0
S1133CF0631C0022084903926732029201930095E3
S1133D003B003200086800F0BFF8431E984140426F
S1133D100440200005B0F0BDFC00002070B5002672
S1133D200C4D0D4C641BA410A64209D1002602F0D0
S1133D3081F80A4D0A4C641BA410A64205D170BD3B
S1133D40B300EB5898470136EEE7B300EB589847B9
S1133D500136F2E7405E0000405E0000405E000075
S1133D60445E0000002310B59A4200D110BDCC5C23
S1133D70C4540133F8E703008218934200D170471A
S1133D8019700133F9E70023C25C0133002AFBD127
S1133D90581E7047F0B58BB00E0010A910C90D78ED
S1133DA008A9049107A9039109A90291611C019131
S1133DB00221009100F03CFD099F324B9F4205D146
S1133DC00100300000F0A8FC0BB0F0BD0378129A9B
S1133DD0411C3370224309D11400731C08781A0063
S1133DE0002807D1672D0CD1652514E02E22B31CC1
S1133DF07270F3E7002CF5DD18700131013C0133DA
S1133E00ECE7472D39D021003020002931DCE34391
S1133E10DB171C40121915707B1E951C09932C008E
S1133E20002B2CDA2D2353702C3BDF1B0997099EA2
S1133E30632E0CDD64213000FDF77BF90300303381
S1133E402B7064235B425843801909906C1C099DB4
S1133E500A212800FDF76DF9030002000A20404200
S1133E605843002340193032303022706070A37000
S1133E70AAE7187001390133C7E74525CBE72B239F
S1133E805370D4E70F270000F0B515001C008DB067
S1133E9014AB1B780600079300220023280021009E
S1133EA0139FFFF7EDFC002802D080231B06E418C3
S1133EB00022002328002100FFF7DCFC002806D0A4
S1133EC030233B7000237B7038000DB0F0BD514AA5
S1133ED0514B28002100FFF7DDFC00280DD0159B75
S1133EE02A000293079B39000193129B3000013B87
S1133EF000932300FFF74EFFE6E7129800F074FBEF
S1133F0002000B0028002100FFF7D8FC0028E6D1AE
S1133F100022424B28002100FFF7B2FC0AAB0393B6
S1133F2009AB0293129B0BAA01930492032300286A
S1133F3000D1022300932A002300300000F078FC13
S1133F40374B099A9A4213D03A00129B04789B1A71
S1133F501100FB18099D002C15D101218C46ED1A86
S1133F60EE181100002E3BDC002C0ED009960CE05C
S1133F700100380000F0D0FBA6E7013D14700130C9
S1133F8009950132E1E7002DF7DC159C002C02D1E4
S1133F900478002C21D0974202D13022791C3A7047
S1133FA02E2230250A7001264A1C0021099C002C6F
S1133FB01EDB002900D0099404781100002C01D0E4
S1133FC0002B1DDC1598002807D018003024002889
S1133FD01BDCDA43D2171340C91800230B7073E7B4
S1133FE0002BC1DD3021013B117064460132B7E77B
S1133FF0002BDEDD15700134013B01323100D6E7C0
S113400014700130013B0132D6E7147001380132DB
S1134010DDE7C0462D431CEBE2361A3F0000F03FBB
S11340200F27000070B5466A04000D00002E07D16A
S1134030102001F0E5F96062466086600660C660A3
S1134040666AF368002B13D0636AAA00DB689B18C6
S11340501868002818D101210E00AE40721D92008C
S1134060200000F0DBFA00280CD0456086600DE0EB
S113407021220421200000F0D1FA636AF060DB6899
S1134080002BE1D1002070BD02681A600023036197
S1134090C360F8E770B5446A06000D00002C07D130
S11340A0102001F0ADF97062446084600460C46063
S11340B0002D07D0736A6A68DB6892009B181A683F
S11340C02A601D6070BDF7B51E0014239C460700CE
S11340D00C0000200D698C44634619881B68514309
S11340E01B0C534389190E0C9B1989B21E0C1B041B
S11340F05B186146013008C18C468542ECDC002E19
S11341001BD0A3689D4212DB63683800591CFFF77B
S113411089FF2100236901909A1C92000C310C3014
S1134120FFF720FE21003800FFF7B4FF019C2B1D90
S11341309B00E31801355E6025612000FEBD03008D
S1134140020C0020824201D11B0410301A0E01D14E
S113415008301B021A0F01D104301B019A0F01D140
S113416002309B00002B03DB01305B0000D42020D5
S113417070470722036810B501001A400DD00124CE
S11341800020234205D10230034203D0E340200043
S11341900B6010BD9B080B60FBE79CB21000002C69
S11341A001D110201B0CDAB2002A01D108301B0AFD
S11341B01A0701D104301B099A0701D102309B0868
S11341C0DA07E8D45B0801D00130E4E72020E0E717
S11341D010B50C000121FFF725FF012344610361A1
S11341E010BDF0B50B691500126989B00C0093423B
S11341F001DA2C000D0027692E69A268BB196168D9
S11342000193934200DD0131FFF70CFF03001433E7
S11342100093009ABB1994469B009C44130000220F
S1134220049063451CD32A001434BF00E3191432EC
S1134230B6000593931902940693069B9A4211D3F0
S1134240019B002B06DD04235B429C4463461B68F0
S1134250002B51D0049B019A18001A6109B0F0BDDB
S113426004C3DEE71488002C1ED00026009D029FA4
S113427001CF079508CD039383B2634319006B46BE
S1134280000C9B896043CB1803999B19090C4118B6
S1134290180C09180E0C9BB209040B4307990B6008
S11342A0059BBB42E4D82E6013681B0C03931ED0FD
S11342B00026009B029C1B68009807002188039D30
S11342C09BB2694320C82D0C49198E1931040B4344
S11342D03B6008CC03991B0C4B437968360C89B2BC
S11342E05B1805999B191E0CA142E6D80360009B3C
S11342F0043204330093A0E7019B013B01939FE741
S11343000323F7B5134005000E001400002B08D05A
S11343102249013B9A00525800233100FFF7D3FE93
S11343200600A310019336D06C6A002C07D110202C
S113433001F066F86862446084600460C4606F6A77
S1134340BC68002C07D116492800FFF741FF002361
S11343500400B86003600122019B13420AD03100BB
S113436022002800FFF73DFF070031002800FFF777
S113437091FE3E00019B5B1001930CD02068002845
S113438007D1220021002800FFF72BFF0023206023
S113439003600400DFE73000FEBDC046185E000085
S11343A071020000F0B50D0017002B69541185B09F
S11343B0E3180293013301934968AB680390019AAF
S11343C0934234DB0398FFF72DFE0023020006001E
S11343D019001432A3422DDBE343DB171C402B00EE
S11343E01F21A40014192A69143392009A180F404B
S11343F024D00131C91B8C4600211868B840014300
S11344006046216002CB0434C1409A42F5D8216051
S1134410002902D0029B02330193019B0398013BC4
S113442033612900FFF736FE300005B0F0BD0131DD
S11344305B00C4E7980011500133CBE702CB02C400
S11344409A42FBD8E9E70A69036930B59B1A0ED191
S113445092001430143184188918043C04392268F9
S11344600D68AA4205D0AA429241012313431800C1
S113447030BDA042F1D3FAE7F0B50D0085B00700D6
S1134480110028001400FFF7DEFF061E08D101000A
S11344903800FFF7C7FD01234661036105B0F0BD95
S11344A001230193002804DB23002C001D000023BA
S11344B0019361683800FFF7B5FD2F000022019BCE
S11344C02669C3601434B300E31802932B691437CC
S11344D09B00FB18039303009446143320CC04CFB1
S11344E00192AAB294446A46614692882D0C8A1AB3
S11344F00199090C691A151449190D1492B2090489
S11345000A431A60039AAC460433BA42E6D80299C5
S11345101A008C4205D3043A1368002B0ED00661AE
S1134520BCE704CC91B261440D14120C5219151459
S113453089B212040A43AC4604C3E8E7013EEAE741
S1134540F7B51D000121089F1400FFF76BFD2B0335
S11345506D0006001B0B6D0D24D10193002C27D098
S113456068460094FFF705FE009C00281ED0019BBE
S113457020211A00091A8A40C34022437261019320
S1134580019CB461631E9C4101343461002D18D038
S1134590124BED1835232D183D60181A099B18602D
S11345A03000FEBD802252031343D6E77461E7E76F
S11345B001A8FFF7DEFD0124019B34617361203003
S11345C0E4E7074BC018074B3860E3189B00F31867
S11345D05869FFF7B4FD6401201ADFE7CDFBFFFF44
S11345E0CEFBFFFFFFFFFF3F10B50400172805DCDB
S11345F0074BC4001C192068616810BD00200549E0
S11346000022054B013CFEF78FFA002CF8D1F4E7A9
S1134610505D00000000F03F000024404A4370B5A4
S11346201100140000F008F8051E03D02200002138
S1134630FFF7A1FB280070BD032370B5CD1C9D437B
S1134640083506000C2D1ED20C25A9421DD83000B9
S113465000F0E0FE254A14682100002919D1244CF9
S11346602368002B03D1300000F044F820602900B7
S1134670300000F03FF8431C2CD10C233000336091
S113468000F0C9FE03E0002DDFDA0C2333600020C4
S113469070BD0B685B1B1AD40B2B03D90B60CC18B1
S11346A0256003E08C420ED163681360300000F093
S11346B0B2FE200007220B30231D9043C31AE7D01B
S11346C05A42E250E4E74B6863600C00EEE70C00EA
S11346D04968C2E70323C41C9C43A042E0D0211ACA
S11346E0300000F007F8431CDAD1C6E7C40200200A
S11346F0C8020020002370B5064C050008002360A2
S1134700FCF71EFB431C03D12368002B00D02B6055
S113471070BDC046A4030020031C0A7801311A703E
S11347200133002AF9D17047F0B503690C6989B0E7
S11347300700059100269C426DDC0B00013C1433FC
S1134740A50003935B1904930300143302935D19CA
S1134750049B28681B68591C0193FCF704FD019015
S1134760B0422DD0039B02989C460696624608CA26
S11347709446019A99B251431B0C534389190A0C6C
S11347809B18079302881E0C069B89B2D2180368F3
S1134790521A190C6B469B8BCB1A11145B18191403
S11347A092B21B041A43049B069104C06345DDD2F4
S11347B02B68002B04D1029B043DAB422ED33C61F9
S11347C005993800FFF73FFE002823DB0025019BF5
S11347D0029801330399019308C9028855199AB2C2
S11347E0AA1A05681B0C2D0CEB1A15145B191D1461
S11347F092B21B04134308C0049B8B42ECD2029A6E
S1134800A300D3181A68002A04D1029A043B9A42DE
S113481009D33C61019E300009B0F0BD2B68002B28
S1134820CDD1013CC7E71A68002AF2D1013CECE77C
S1134830F0B516001F00446A9DB00490259D0696AD
S11348400797002C08D1102000F0DAFD049B586271
S1134850446084600460C460049B5B6A1968002936
S11348600BD05A68012393404A608B600498FFF789
S113487011FC0022049B5B6A1A60079B002B1FDA61
S113488001232B607B005B080793079CB74B220036
S113489019931A409A4216D1B54B249A1360069B79
S11348A0002B03D1240301D100F091FDB14B269AD2
S11348B00A93B14B002A01D000F08FFD00F08FFD68
S11348C000232B60E1E7069E079F002200233000AF
S11348D03900FEF7CFFF051E0ED00123249A136082
S11348E0A64B269A0A93002A01D100F078FDA44A27
S11348F026990A6000F073FD1AAB01931BAB009379
S113490032003B000498FFF71BFE630005905B0D2B
S113491000D17FE03A039B4C120B144321009A4AC6
S1134920300018959E180022984BFEF77DFB984A9C
S1134930984BFEF7F9F8984A984B00F077FD04007D
S113494030000D00FEF7BAFE954A964BFEF7ECF8E0
S113495002000B002000290000F068FD04000D0097
S1134960FEF778FE00220390002320002900FEF7C2
S113497087FF00280ED00398FEF7A0FE0B0002006C
S113498029002000FEF776FF030058425841039B9C
S11349901B1A039301231693039B162B0FD88249EA
S11349A0DB00C91808684968069A079BFEF77CFF74
S11349B000284BD0039B013B0393002316931A9BBF
S11349C09E1B00230B933300013B0C9304D501235E
S11349D09B1B0B9300230C93039B002B38DB039A44
S11349E00C9B944663440C9300230F920893229BE0
S11349F00125092B00D991E0052B02DD0025043B9C
S1134A002293229B981E032800D991E000F004FD14
S1134A10828429761A9B1B9A9E18644BF218202ACA
S1134A200FDD634B0698F318D84040239B1A9C4033
S1134A302043FEF785FE01235E4C013E09191893BD
S1134A4071E7202306989B1A9840F2E71690B6E780
S1134A500B9B039A9B1A0B935342089300230F93C7
S1134A60C5E701230E93239B002B65DD1F000D93E7
S1134A70049A546A0022626004321100143199428B
S1134A805FD961680498FFF7CDFA049B20605B6AE4
S1134A901B680A930E2F00D905E1002D00D102E115
S1134AA0069B079C14931594039B002B00DC85E064
S1134AB01A000F213C4B0A40D2009B185C681B680B
S1134AC010931194039B02241D11EB060AD53A4B53
S1134AD00D401A6A5B6A14981599FDF7F1FC06906B
S1134AE007910134344E002D30D1109A119B069851
S1134AF00799FDF7E5FC069007917AE00123239AD4
S1134B000E939446039B63445F1C0D933B1EAFDCE2
S1134B100123ADE70023A5E70023F0E700230E956A
S1134B202293013B00220D931F00133323929FE72E
S1134B3001230E93023BF5E701230D931F001A0096
S1134B40F4E7616852000131616096E701231D4278
S1134B5008D010981199E41832687368FDF7E4FFDF
S1134B60109011916D100836BDE7C0460000F07F2B
S1134B700F2700002D5E0000305E0000315E000053
S1134B80325E00000000F03F01FCFFFF0000F83F30
S1134B9061436F63A787D23FB3C8608B288AC63F3F
S1134BA0FB799F501344D33F505D00003204000052
S1134BB012040000000010FE285D0000039B022484
S1134BC0002B16D0149815995D420F23CA4A2B4026
S1134BD0DB00D3181A685B68FDF7A6FF0023069074
S1134BE00791C64E2D11002D00D08CE0002B00D073
S1134BF081E7169B002B00D191E0069A079B109247
S1134C001193109811990022BD4BFEF739FE00282C
S1134C1000D184E0002F00D181E00D9B002B3EDD0C
S1134C2010981199039B00225E1EB64BFDF77CFF82
S1134C30069007910D9D01342000FEF73FFD069A72
S1134C40079BFDF771FF0022AF4B00F0EFFB1290C2
S1134C501391129B139CAD4A10931194139B9C18AF
S1134C601194002D5ED1069807990022A84BFEF7F7
S1134C70DBF9109A230006900791FEF715FE002831
S1134C8000D001E3A3481399844661440B000698BD
S1134C900799109AFEF7F4FD002800D0E8E2149B6F
S1134CA0159C069307941B9B002B00DA57E1039A8B
S1134CB00E2A00DD53E1904BD2009B185C681B6800
S1134CC008930994239B002B00DBCEE0002F00DD2A
S1134CD0CBE000D0CFE20898099900228C4BFDF775
S1134CE023FF069A079BFEF7E9FD3E00089700287C
S1134CF000D0A4E20A9B0A9A5D1C31231370039B23
S1134D00013303939FE20122154205D0A4183268AF
S1134D107368FDF709FF01236D10083663E7039EEE
S1134D203D0089E70A9A691E521917920E9A724B2E
S1134D30C900002A4AD05B181A685B6800207649CB
S1134D40FDF7BEFB109A119BFEF76EF90A9B1090BB
S1134D501191129306980799FEF77CFC0400FEF764
S1134D60ADFC02000B0006980799FEF75DF9129B53
S1134D7030345D1C1C70109A119B06900791FEF74D
S1134D807FFD002865D1069A079B00205C49FEF749
S1134D904BF9109A119BFEF773FD002800D0BEE07A
S1134DA0179B9D4200D17AE7109811990022554B28
S1134DB0FDF7BAFE00221090119106980799514B05
S1134DC0FDF7B2FE129506900791C3E759180868DB
S1134DD04968109A119BFDF7A7FE109011910A9C47
S1134DE0179D06980799FEF735FC1290FEF766FCAE
S1134DF002000B0006980799FEF716F9129B06901D
S1134E00079130332370179B01340022A34224D12D
S1134E10414B1098119900F009FB02000B00069811
S1134E200799FEF741FD002800D078E0109A119B05
S1134E3000203949FEF7F8F802000B00069807999C
S1134E40FEF71EFD002800D129E76B1E1A78302AD0
S1134E5001D003963FE01D00F7E706980799294B18
S1134E60FDF762FE06900791BBE70A9E089A099B2C
S1134E7006980799FDF724FBFEF7ECFB0400FEF708
S1134E801DFC089A099BFDF74FFE0B0002000698D3
S1134E900799FEF7C9F82300303333700A9B751C59
S1134EA0EB1A9F424CD102000B0000F0BFFA06003F
S1134EB00F0002000B0008980999FEF7E1FC002896
S1134EC02CD10898099932003B00FEF7D3FC002846
S1134ED001D0E30722D405990498FFF7DBF80023F7
S1134EE02B70039B249A01331360269B002B00D163
S1134EF075E21D6073E2C046505D0000285D00004D
S1134F000000F03F0000244000001C400000C0FCF2
S1134F10000014400000C07C0000E03F039E6B1EB4
S1134F201A78392A06D10A9A9A4207D13023137083
S1134F30130001361A7801321A708AE71D00EEE771
S1134F400022CF4BFDF7F0FD0022002306900791CD
S1134F502E00FEF78FFC002800D187E7BBE70E9AEE
S1134F60002A00D187E0229A012A6EDC189A002ACE
S1134F7067D0C44A9B18089D0B9C0B9A0121D21838
S1134F800B920C9A0498D3180C93FFF721F906009E
S1134F90002C0EDD0C9B002B0BDD0C9A230094429D
S1134FA000DD13000B9AE41AD21A0B920C9AD31A4E
S1134FB00C93089B002B1ED00E9B002B5FD0002D62
S1134FC011DD31002A000498FFF79AF9059A0100CF
S1134FD006000498FFF705F9059910900498FFF767
S1134FE059F8109B0593089B5A1B04D00599049803
S1134FF0FFF786F9059001210498FFF7E9F80F9B64
S11350000890002B3DDD1A0001000498FFF778F9A1
S1135010229B08900025012B3BDC0025069BAB421C
S113502033D1079B1B03AB422FD1199B079A134221
S11350302BD00B9B013501330B930C9B01330C9349
S113504023E036231A9A9B1A95E7089B7D1EAB42F0
S113505006DB5D1B002F0BDA0B9BDC1B00238CE7AC
S1135060089B0895EA1A0F9B00259B180F93F1E7FC
S11350700B9C3B0081E7089D0B9C0E9E88E7089AD9
S1135080B4E7229B0025012BC7DD0F9B0120002BD9
S11350900BD0089B089A1B690F9303339B00D3180A
S11350A05868FFF74CF82023181A0C9BC0181F23CC
S11350B0184000D1ABE001331B1A042B00DC9BE049
S11350C01C23181A0B9B24181B180B930C9B1B18DE
S11350D00C930B9B002B05DD1A0005990498FFF730
S11350E061F905900C9B002B05DD1A0008990498C2
S11350F0FFF758F90890169B002B00D189E0089916
S11351000598FFF7A0F9002800DB82E0039B0A2240
S1135110013B0393059900230498FEF7D4FF0E9BEB
S11351200590002B00D15DE1002331000A22049890
S1135130FEF7C9FF0D9B0600002B02DC229B022B0D
S11351406DDC002C05DD310022000498FFF72AF9FC
S113515006003000002D11D071680498FEF762FF3C
S11351603100040033690C319A1C92000C30FEF7B4
S1135170F9FD012221000498FFF714F90D9F0A9B01
S1135180013F0B93DB19370006000F93089905982C
S1135190FFF7CAFA39000D9004000598FFF753F998
S11351A032000E9008990498FFF766F901230C93D6
S11351B0C36830340500002B04D101000598FFF7C3
S11351C042F90C9029000498FEF764FF0C9B229A84
S11351D0134300D089E0069A0133134200D084E0DF
S11351E0392C00D1A3E00E9B002B01DD0D9C313442
S11351F00B9B5D1C1C7027E0042B00D169E70B9A04
S11352001C33D2180B920C9AE418D31860E70300ED
S1135210F5E7002F3CDC229B022B39DD0D970D9B1B
S1135220002B0CD1089905220498FEF74CFF089036
S113523001000598FFF707F9002800DD5AE5239BD4
S11352400A9DDB430393002708990498FEF722FF85
S1135250002E00D13FE6002F05D0B74203D039001D
S11352600498FEF717FF31000498FEF713FF32E6A7
S113527008952E00E3E7002308931E00DFE7C046ED
S11352800000244033040000039608952E0031E505
S11352900E9B0D97002B00D053E70A9D08990598A3
S11352A0FFF742FA0A9B30300D9A2870013504004A
S11352B0EB1A9A4278DC151E00DC012500270A9BB4
S11352C05D19059901220498FFF76CF80899059077
S11352D0FFF7B9F800282FDC01D1E3072CD46B1EAB
S11352E01A78302AB0D11D00F9E70E9B002B07DB9A
S11352F01D00229B1D4326D10123069A134222D16D
S11353000C9B002B00DC73E7059901220498FFF73E
S113531049F808990590FFF796F8002804DC00D0B6
S113532066E7E30700D463E7392C00D05EE70B9B04
S11353300B9A5D1C392313706B1E1A78392A3BD0E3
S113534001321A7080E70B9B01330D930C9B002BE9
S113535005DD392CEBD00D9D01340B9B4AE70B9BEB
S11353600F9A0D9D1C709342ABD000230A2205991D
S11353700498FEF7A8FE002305900A223900049839
S1135380B74206D1FEF79FFE070006000D9B0B9364
S1135390FCE6FEF798FE3100070000230A22049879
S11353A0FEF791FE0600F1E700230A22059904980E
S11353B0FEF789FE059071E70A9A9A4205D1039B8C
S11353C001330393312313703EE71D00B4E70A4B06
S11353D0269A0A93094B002A01D0269A13600A9848
S11353E01DB0F0BD0D9B002B00DD56E7229B022B68
S11353F000DC52E713E7C046245E00002C5E000088
S113540010B5034B01001868FFF716F910BDC0462C
S1135410FC0000207047704702B4714649084900F7
S1135420095C49008E4402BC7047C046F8B5454645
S1135430DE4657464E460C03E0B54E00C90F88467B
S11354400D00610A440F0C43C70019035800DB0F19
S11354509B464B0A510F0B43760D400D1900D200A9
S1135460D84500D1AEE0351A002D00DCF6E0002866
S11354700FD1134300D1DBE06B1E002B00D037E1CA
S1135480BA1A9742BF41641A7F42E41B01261700EF
S113549024E0C64B9E424DD080231B041943382D73
S11354A000DD07E11F2D00DD38E12020431B9A4673
S11354B00B0050468340994613004846EB4018437E
S11354C0030050468240501E8241E9401A43BA1AF2
S11354D0611A9742A441170064420C1B230262D54F
S11354E06402650A002D00D1DFE02800FEF72AFAE5
S11354F00300083B1F2B00DDD2E020223C00D21A1F
S11355009D40D4409F4025439E4200DDC4E09E1B45
S1135510731C1F2B00DDF1E0202238002900D21A71
S1135520D840914097402C000143781E8741DC40CD
S113553000260F437B0709D00F233B40042B05D0E3
S11355403B1DBB42BF417F42E4191F0023022CD5FF
S1135550964B01369E4200D19AE04546944BFF0893
S11355601C406007760564020743240B760D002176
S11355702403230B0C0D8F4A24051C4314403305CC
S113558023435B00ED075B082B43380019003CBC48
S113559090469946A246AB46F8BD6446044300D102
S11355A011E2040067467B07C6D145466007FF0841
S11355B00743E4087D4B9E4230D024037605240B38
S11355C0760DD4E7331A9A46002B78DD002831D0C3
S11355D076488642AED08020000401435346382BDF
S11355E000DCE9E00A43511E8A410021D219BA4283
S11355F0BF4109197C4217000C192302D3D56B4B08
S113560001369E4200D13AE10120694B1C407B08DF
S113561007401F43E007074364088BE723003B432D
S113562000D1CBE18022120314432403240B9EE710
S11356302E007FE70800104300D1B4E0581E002874
S113564000D0DEE0BA18BA429B4164185B42E41809
S1135650170001262302A6D50226D5E7002D6ED118
S1135660701C4005400D012800DCF9E0B81A84469E
S113567087428041E51A40422D1A280200D489E06D
S1135680D71BBA4292411C1B5242A51AD84629E79D
S11356904546002400276AE7454CF61A2C4049E7A2
S11356A03D002838854000272EE73800FEF74AF9E8
S11356B020301DE70A43511E8A41002107E7002BD1
S11356C000D0F3E0701C43055B0D012B00DCADE062
S11356D0364B984200D1D1E0BA18BA42BF4164189F
S11356E07F42E419E707520817436408060021E7DC
S11356F02E48854200D193E01D00D0E629001F3ECC
S1135700F140202B00D18DE04022D31A9D402F433D
S11357107D1EAF4100240F43002644E72B00080000
S1135720203BD8400300202D00D17DE04020451BC4
S1135730A9400A43511E8A4100211A43C7E6002E9C
S113574050D01A4EB04257D080266B429946360448
S113575034434B46382B00DDD6E01F2B00DD35E10A
S11357602026F51A2600AE40B2463E00DE40AC4686
S1135770350056462E436546AF407D1EAF41DC40A2
S11357803743D71BBA4292410C1B5242A41A06005B
S1135790D846A3E6644667462C4300D0A2E600251B
S11357A00026002706E71E00C4E6C046FF070000E7
S11357B0FFFF7FFFFFFF0F801F2B63DC2020C31A36
S11357C0080098409C46834653461000D840030086
S11357D05846184363469A40531E9A41534602431F
S11357E0D94003E726003E4306D0EB439946002BFD
S11357F0C7D0944EB042ACD10C0017000600D84676
S113580098E6904B9A450BD08246E7E6002800D0F4
S11358109EE01800104300D1E9E01C001700D846B0
S1135820884E87E6002572E7002182E723003B4388
S1135830002E00D0ABE0002B00D1E7E00B001343B7
S113584000D177E6BA18BA42BF4164187F42E4191E
S1135850230200D4F2E07C4B17001C40060069E6EA
S113586020003843002ED1D100285BD11C00144302
S113587000D1A8E01C001700D8465BE6060000240F
S1135880002797E650460B002038C34099465346FC
S1135890202B00D195E0402350461B1A99400A431F
S11358A0511E8A414B4600211A439FE6002E30D1F7
S11358B026003E4367D0DB439A46002B1CD0614E42
S11358C0B04260D05346382B00DD96E01F2B00DD3C
S11358D09FE02026F31A26009E409C46B34653467A
S11358E03E00DE4033005E461E4363469F407B1EFF
S11358F09F415346DC403743BF1897429241641896
S11359005242A418060078E627437C1EA7410024CF
S113591037E74C4EB04236D080265B4236049A4676
S11359203443CFE71800104300D103E6B81A844685
S11359306745AD41E01A6D42401B050200D42CE6D8
S1135940D71BBA4292411C1B5242A41AD846F1E515
S11359501800104300D163E7F80867070743802065
S1135960E4080003044208D0DD08054205D1D2084A
S1135970590711430F002C00D8467B0FE4001C4349
S1135980FF00304ED6E50C0017000600D2E5002BD0
S113599038D00B00134300D142E7F80867070743E8
S11359A08020E40800030442E7D0CB080342E4D19A
S11359B0D208490711430F001C00DEE7002700242A
S11359C0D5E500216BE700250027F3E54E462500C9
S11359D0203EF5404B462E00202B2DD04025ED1ABD
S11359E0AC4027437C1EA74100243743C9E68024EA
S11359F000252403134E0027DCE527437C1EA74122
S1135A00002479E70C0017000E4E93E50C001700F4
S1135A1090E556462300203EF34099465346202BFA
S1135A200ED0402356469B1B9C4027437C1EA74117
S1135A304B4600241F435FE70024D2E71700B2E57A
S1135A400024F2E7FF070000FFFF7FFF2E2E2F68E0
S1135A50616C2F7372632F68616C5F6164635F7341
S1135A60796E632E630000002E2E2F68616C2F73F5
S1135A7072632F68616C5F63616E5F6173796E63DB
S1135A802E6300002E2E2F68616C2F7372632F68B3
S1135A90616C5F696F2E63002E2E2F68616C2F730B
S1135AA072632F68616C5F7370695F6D5F73796E89
S1135AB0632E63002E2E2F68616C2F7372632F6820
S1135AC0616C5F74656D705F73796E632E63000043
S1135AD02E2E2F68616C2F7372632F68616C5F7553
S1135AE0736172745F6173796E632E6300000000EA
S1135AF02E2E2F68616C2F7574696C732F7372630B
S1135B002F7574696C735F72696E6762756666651A
S1135B10722E630000000005000000180000000061
S1135B200000000000000000000000000000000071
S1135B302E2E2F68706C2F6164632F68706C5F6108
S1135B4064632E63000000002E2E2F68706C2F7388
S1135B506572636F6D2F68706C5F736572636F6DD0
S1135B602E63000052656C617920746573740000C3
S1135B704572726F723A204E6F20737563682063AA
S1135B806F6D6D616E640000781D0000481D00009B
S1135B905A1D00009C1C00005A1D00003E1D000000
S1135BA05A1D00009C1C0000481D0000481D0000F8
S1135BB03E1D00009C1C0000A41C0000A41C00004E
S1135BC0A41C0000601D0000481D0000481D0000CA
S1135BD01C1D0000001E00001C1D00003E1D0000D6
S1135BE01C1D0000001E0000481D0000481D000090
S1135BF03E1D0000001E0000A41C0000A41C0000A8
S1135C00A41C00000A1E0000A81F0000F81E0000CB
S1135C10F81E0000F61E00009A1F00009A1F0000E4
S1135C20901F0000F61E00009A1F0000901F000045
S1135C309A1F0000F61E0000A01F0000A01F000015
S1135C40A01F000030200000B82600009A260000A3
S1135C505426000072250000542600008C26000003
S1135C6054260000722500009A2600009A2600009F
S1135C708C260000722500006A2500006A250000B9
S1135C806A250000D0280000182D0000D82B000041
S1135C90D82B0000D42B0000F02C0000F02C0000C6
S1135CA0E22C0000D42B0000F02C0000E22C0000B9
S1135CB0F02C0000D42B0000F82C0000F82C00007D
S1135CC0F82C0000FC2E0000000000000000000082
S1135CD000000000000000000000000000000000C0
S1135CE000000000000000000000000000000000B0
