S00F00004C565F424D53332E73726563FF
S1130000402300202D0100002901000029010000E7
S113001000000000000000000000000000000000DC
S113002000000000000000000000000029010000A2
S11300300000000000000000290100002901000068
S11300402901000029010000290100002901000004
S113005029010000290100002901000029010000F4
S113006029010000290100002901000029010000E4
S113007029010000D9130000290100002D100000FF
S113008029010000290100002901000029010000C4
S113009029010000290100002901000029010000B4
S11300A029010000290100002901000029010000A4
S11300B029010000290100002901000010B5064CA7
S11300C02378002B07D1054B002B02D0044800E015
S11300D000BF0123237010BDF000002000000000C9
S11300E064240000084B10B5002B03D007490848CE
S11300F000E000BF07480368002B00D110BD064B89
S1130100002BFBD09847F9E700000000F400002022
S113011064240000642400000000000010B5014BBA
S1130120984710BD95040000FEE7000010B5174A7B
S1130130174B9A4211D01A00164B9A420DD2164A06
S113014003339B1A9B0801339B00002210480F497C
S11301508C58845004329A42FAD1104A104B9A4275
S11301600AD2D3430E495B1803218B4304339B18F3
S1130170002102C29342FCD10A4AFF210A4B8B435D
S113018093600A4B98470A4B9847FEE764240000A3
S113019000000020F000002004000020F0000020F7
S11301A04003002000ED00E0000000003D220000BC
S11301B00117000010B50422C023DB055A60822118
S11301C0C9050A4B8B62C0231B068B624223CA5C9F
S11301D0012082430243D2B2CA5431228B5C0F24E1
S11301E0A3430343DBB28B5410BDC046040000405C
S11301F0054AD16980239B020B43D36141218223A9
S11302005B00024AD150704700080040001C0040C7
S113021010B5064B9847064B9847064B9847020083
S113022005490648064B984710BDC046F101000039
S1130230B5010000170F00000044004294020020A2
S1130240B9050000F0B5C64600B5C024E405802316
S11302505B0063608223DB05234A9A62234A9A6225
S113026048215A5C042082435A545A5C0126B24302
S113027001252A43D2B25A5414395A5C0B308446AD
S1130280824303273A43D2B25A548022D200626195
S1130290A260174A9A62C022120690469A621631E8
S11302A0585CB0432843C0B258543520195C6246A8
S11302B091433943C9B21954802109016161A16094
S11302C00C49996242469A624B215A5CB2432A43D2
S11302D0D2B25A541A5C3C390A4021310A431A54A6
S11302E004BC9046F0BDC04600010240000002C0BC
S11302F00004004000080040054B4122D4215A501C
S11303000C395A50034AD369C0390B43D36170473F
S1130310001C00400008004010B5044B98470449F5
S11303200448054B9847054B984710BDF902000057
S1130330000C004298020020F10700004502000072
S1130340054B4122DC215A5014395A50034AD369CF
S1130350A8390B43D3617047001C004000080040DB
S113036030B58223DB05C822995C0125A943012409
S11303702143C9B29954B420195CB93A91430C3A57
S113038011431954C9215A5CAA432243D2B25A5484
S11303901A5CBA390A4021310A431A5430BD0000AC
S11303A010B582B0064B9847002300931033054ADA
S11303B005490648064CA047064B984702B010BDB5
S11303C0410300000C01002000140042B002002090
S11303D0FD0A00006103000030B58223DB055922C9
S11303E0995C0125A94301242143C9B299543C20B5
S11303F0195C4A3A114051321143195458215A5C3C
S1130400AA432243D2B25A541A5C49398A4309395D
S11304100A431A5430BD000010B5084A11698023FC
S11304205B000B4313614121E823054AD150054980
S11304300548064B9847064B984710BD00080040F6
S1130440001C0040001C0042680200201907000044
S1130450D9030000054A516980235B010B435361B2
S113046041219423024AD1507047C04600080040FD
S1130470001C004010B5034B984703490348044B44
S1130480984710BD55040000003000409002002041
S113049005090000F0B5C64600B5394B9847C0229F
S11304A0D2052023536193608223DB053549996289
S11304B0C021090699624524195D0120814319551B
S11304C080210905516191608024E4059C622E49D4
S11304D099625B25595D81435955802149055161D4
S11304E091609C62294999620135595D814359554E
S11304F084218846042757502431254D5D50254DCD
S1130500AC465D50C2255E5DBE435E555E5D86436E
S11305105E55BA3D464695511F4D5D5065465D504A
S1130520C3255E5DBE435E555E5D86435E55903772
S11305308025ED03D5518826B04695515C50174D62
S11305405D50D625AC465D5D854366469D55802548
S11305502D04D551464695515C50114A5A502F31BD
S11305605A5C82435A540F4B98470F4B98470F4B92
S113057098470F4B98470F4B984704BC9046F0BDE3
S1130580C110000020000040000800C0001000C09E
S113059004000240000002C008000240400000C005
S11305A0800000C01102000019030000A103000034
S11305B0190400007504000070B504000D00002843
S11305C00CD00800431E9841C0B239220449054B9F
S11305D0984729002000044B984770BD0020F4E799
S11305E0B4220000390C0000950E000070B5040020
S11305F00D00431E9841C0B24E220449044B984753
S113060029002000034B9847002070BDB42200004D
S1130610390C0000CD0E0000F0B5DE4657464E46BC
S11306204546E0B583B006000D00914601930028CD
S11306301ED0002A1ED01800431E984167221F496D
S11306401F4FB847340030001E4B984701008046C6
S113065001981D4B984748424841C0B26922174946
S1130660B8470027194B9B46194E1A4B9A4608E087
S11306700020E3E70020E1E74744BFB2019BBB420F
S113068013D92000D84729002000B0470028FAD009
S113069029002000D0474B46D8554346012BEBD9BF
S11306A04B46DB19000A5870E6E7380003B03CBC3F
S11306B090469946A246AB46F0BDC046B42200001F
S11306C0390C0000E10E000045110000FD0E000091
S11306D0F30E00000F0F0000EFF31083036072B6F7
S11306E0BFF35F8F7047BFF35F8F036883F3108896
S11306F0704710B5C369002B00D0984710BD10B5E2
S1130700036A002B00D0984710BD10B5436A002B34
S113071000D0984710BD000070B505000C000028FB
S113072014D00800431E9841C0B241220849094B25
S1130730984721002800084B9847002805D1074B0B
S11307406B60074BAB60074BEB6070BD0020ECE7C0
S1130750D0220000390C00001D0F0000F306000039
S1130760FF0600000B07000010B5044B1C68044B87
S1130770984701002000034B984710BD1C0100203E
S113078099100000B910000070B506000C001500A7
S113079000280DD00800431E9841C0B234220549F8
S11307A0054B984733682A0021003000984770BDF4
S11307B00020F3E7EC220000390C000070B50600BD
S11307C00C00150000280DD00800431E9841C0B24B
S11307D03D220549054B984773682A0021003000E3
S11307E0984770BD0020F3E7EC220000390C0000AC
S11307F070B504000D00002816D00800431E98416F
S1130800C0B2402209490A4B98476560201D29005F
S1130810084B9847002806DB074BA382074B23614C
S1130820074BE360002070BD0020EAE700230000CE
S1130830390C0000451400000080FFFFC9080000C7
S11308408D08000030B587B004000D00002814D0D6
S11308500800431E9841C0B2B3220949094B984786
S11308602B6803936B680493AB6801930593201D75
S113087003A9054B984707B030BD0020ECE7C046FC
S113088000230000390C00003D15000070B584B051
S113089004000E001500431E9841C0B2A32207496C
S11308A0074B9847002302930196039520000C38C8
S11308B001A9044B984704B070BDC0460023000052
S11308C0390C00004508000070B584B004000E0027
S11308D01500431E9841C0B287220749074B984729
S11308E0029600230193039520000C3801A9044BC0
S11308F0984704B070BDC04600230000390C0000C6
S11309004508000070B504000D0000280CD0080054
S1130910431E9841C0B22B220449054B9847290035
S11309202000044B984770BD0020F4E71C2300000E
S1130930390C00004D16000010B50838002303637D
S1130940436A002B00D0984710BD10B50838002327
S11309500363C36A002B00D0984710BD10B5040090
S11309602C30044B9847236A083C002B01D020000C
S1130970984710BDDD0C000070B504000E00150092
S113098000281DD000291DD01000431E98413C2290
S1130990FF320F490F4B98474423E25A0833E35A76
S11309A09A4211D1A6644C23E5520022083BE2523C
S11309B0433B236320000830074B9847280070BD51
S11309C00020E4E70020E2E71C204042F7E7C046AD
S11309D038230000390C00005513000070B50400E2
S11309E001000839838F4C228A5A9A420CD00A009B
S11309F0896C5D1C44201552C95C2000044B984747
S1130A002000044B984770BD034B9847FBE7C04652
S1130A104D130000551300005D130000F0B5CE46E1
S1130A20474680B585B005000E001700002815D094
S1130A30002913D0002A2AD1AC22520029490020CF
S1130A40294B984703A8294B984728003430284B52
S1130A50984703A8274B984700253CE0AC22520056
S1130A6020490020204B984703A8204B9847343551
S1130A70280001951E4B9847804603A81D4B9847B4
S1130A8000254346002B26D0002F16D123E0AC22AC
S1130A90520014490120144B984703A8134B98475C
S1130AA0343528000195124B9847804603A8114B12
S1130AB0984743460025002B0DD000240E4B994641
S1130AC0651CADB231190198C8470134444502D2BE
S1130AD0A3B29F42F4D8280005B00CBC90469946B6
S1130AE0F0BDC04638230000390C0000D9060000D0
S1130AF01D0D0000E7060000950C0000F8B5040089
S1130B000D0016001F00002826D0002926D0002A38
S1130B1026D01800431E98413A221449144B984792
S1130B20200034303A003100124B9847002819D184
S1130B30200008302900104B984700280BD10F4B98
S1130B4063600F4B23600F4BA3600F4BE3600F4BAD
S1130B5023610F4B6361F8BD0020DDE70020DBE774
S1130B600020D9E70D204042F5E7C04638230000B5
S1130B70390C0000410C0000BD1200001D0A0000E9
S1130B8079090000DD0900005D0900003909000051
S1130B904B09000010B50400431E9841C0B2612205
S1130BA00449054B984720000830044B984700201F
S1130BB010BDC04638230000390C00003913000072
S1130BC070B505000E001400431E9841C0B2832284
S1130BD01649174B9847012E11D0002E04D0022E2F
S1130BE018D00D20404209E0AC62621E9441E2B28A
S1130BF02800083001210F4B9847002070BD6C621B
S1130C00621E9441E2B2280008300221094B984741
S1130C100020F3E7EC62621E9441E2B2280008303F
S1130C200321044B98470020E8E7C046382300001E
S1130C30390C000065130000002800D100BE704785
S1130C4070B504000E00150000280BD0002918D040
S1130C500120002A07D128220C4900200C4B984778
S1130C606B1E07E0002028220849094B98476B1E99
S1130C702B4208D163600023A360E3602660002058
S1130C8070BD0020EFE70D204042F9E75823000033
S1130C90390C000070B504000D00002815D00800C0
S1130CA0431E9841C0B240220A490B4B9847A3689F
S1130CB0E2689A420BD0626813402268D35C2B70BE
S1130CC0A3680133A360002070BD0020EBE70A2075
S1130CD04042F9E758230000390C000070B50400C5
S1130CE00D00431E9841C0B251220A490A4B98474D
S1130CF06368E26813402268D554E3686168A268B7
S1130D009A1A8A4201D9591AA1600133E36000207A
S1130D1070BDC04658230000390C000010B5040013
S1130D20431E9841C0B267220349044B9847E068C8
S1130D30A368C01A10BDC04658230000390C000037
S1130D4010B5038CDB0718D40322038C1342FCD1A7
S1130D5003789B070BD50378022293430370013277
S1130D60038C1342FCD10222038C1342FCD10123D5
S1130D7003700322038C1342FCD10122038C13421F
S1130D80FCD1CA00521A9200364B9B189A784270D2
S1130D90DA7882701A79C270DB880381038C5B0570
S1130DA0FCD1CB005B1A9B002E4AD3181B894381CC
S1130DB0038C5B05FCD1CB005B1A9B00294AD3183A
S1130DC09B7A0373038C5B05FCD1CB005B1A9B00FD
S1130DD0244AD318DB7A4373038C5B05FCD1CB0024
S1130DE05B1A9B001F4AD3189B89C3814022038C42
S1130DF01342FCD1CB005B1A9B001A4AD318DB893F
S1130E0003828022038C1342FCD1CB005B1A9B002B
S1130E10144AD3181B8A438280225200038C134243
S1130E20FCD1CB005B1A9B000E4AD3185B8A8382E9
S1130E3080229200038C1342FCD10A4CCB005A1A34
S1130E409200A218127D027700228262591A890048
S1130E5061184B7803700332038C1342FCD10020D9
S1130E6010BDC0467C23000010B5074B9C4660446F
S1130E70800AC0B2002804D08D2204490020044B0B
S1130E809847002010BDC04600BCFFBD9823000059
S1130E90390C000070B505000C00431E9841C0B227
S1130EA0D4220649064B98472C602000054B9847EE
S1130EB001002000044B984770BDC04698230000F1
S1130EC0390C0000690E0000410D0000026813781F
S1130ED002210B4313700131138C0B42FCD1704778
S1130EE0036858898006800F0338431E98410130F7
S1130EF07047036898790123184070470268137E8D
S1130F0002210B431376138C5B05FCD170470368F5
S1130F10988C80B27047002070470000F0B50160E3
S1130F208B69012213438B610268012493691C427B
S1130F30FCD09369022423439361344B994210D02B
S1130F400268936902218B439361026893690139B2
S1130F508B439361016801228B691A42FCD1002002
S1130F60F0BD2B4B1A0001C22A49816101688C69CA
S1130F708C61016800248C600168274DCD61016893
S1130F80264DCD60264D2D042D0C802189020D4364
S1130F90A0260768BD51BC25066874510C35066847
S1130FA07451204D2D042D0C8026B6043543C026E3
S1130FB00768BD511204120C0A43F02506687251E9
S1130FC0703D2822066872511A0014321204120C61
S1130FD00A4384260768BA511C331B041B0C0B43B9
S1130FE0882201688B5090230268D4500E4B8022D3
S1130FF012025A51BFF34F8FBFF36F8FC0214900C4
S11310005A501A6003680122DA6599E7001C00420D
S11310102001002000000020070A0206330A000015
S1131020000300202003002000E100E070B5194B0C
S11310301D682B681C6DE30714D4A30516D4A30103
S113104018D4E3011BD4230207D52B68596C8906F5
S1131050C90F01312800EB689847230714D42B6883
S11310601C6570BD2800AB689847E6E728006B68EC
S11310709847E4E703212800EB689847E1E700215B
S11310802800EB689847DEE704212800EB689847BE
S1131090E5E7C0462001002010B50300C820800009
S11310A0584302300321034B984703008000C018C3
S11310B0400010BD0F1100000139FDD87047000039
S11310C010B5084B5A685A60074B9847074B984726
S11310D0074B9847074B9847FF20074B9847074B08
S11310E0984710BD00400041C5110000DD1100000B
S11310F0B91100001D1200007D1100000111000053
S11311009022D205137802218B431370704710B5D7
S113111082B0EFF31083019372B69023DB051A7843
S11311200124A2431A709860D9601A001379DB076E
S1131130FCD49023DB051869019B83F3108802B06B
S113114010BD000010B582B0EFF31083019372B6A6
S11311509023DB051A78012422431A709860D96021
S11311601A001379DB07FCD4034B18685968019BF8
S113117083F3108802B010BD10000048C30707D5E0
S1131180094A0A4B1A621900094A4B681342FCD1F6
S1131190830707D5074A054B5A621900044A4B686E
S11311A01342FCD17047C04606010100001C0040F8
S11311B0FD070000060108000122014B1A71704767
S11311C000080040044BDA69F82149010A40DA6159
S11311D001221A617047C046001400400E4B0222DF
S11311E01A7503325A751900013A8B691A42FCD1F7
S11311F0094904228B691A42FCD10722064B9A75CD
S113120019000932CB681A42FCD0034A137D8021AD
S11312100B4313757047C046001000407047000030
S113122010B504001F4BC3189B0ADBB2042B04D077
S11312301D4A1E4900201E4B9847E369DB0718D45A
S11312400322E3691A42FCD123689B070BD5236868
S11312500222934323600132E3691A42FCD1022241
S1131260E3691A42FCD1052323600322E3691A428D
S1131270FCD10122E3691A42FCD10E4B2360032204
S1131280E3691A42FCD1C0239B0263600722E3692D
S11312901A42FCD1084BA3810023A3733022A35428
S11312A0002010BD00FCFFBD5E020000B023000062
S11312B0390C000004001040ADD8FFFF70B50500E4
S11312C00C00431E9841C0B2C4221449144B9847E1
S11312D02000144B9847002800D070BDAC61124B1D
S11312E09C4217D0114B9C466444A40A0934E3B2CF
S11312F02206F2D41F221A40012393400C4A802173
S11313005350BFF34F8FBFF36F8F0131FF315350F1
S11313101360E2E7074B1D600D23EBE7B0230000E9
S1131320390C0000211200000014004200FCFFBD33
S113133000E100E04C0100208269136802210B43A4
S113134013600131D3691942FCD17047836989B2B2
S113135019857047836901229A757047836902224F
S11313609A75704770B504000D001600431E98412D
S1131370C0B2164A1649174B984702232A009A43CB
S11313800ED1A369002E05D101221A75A369013279
S11313901A7570BD01229A75A36901329A75F8E72E
S11313A0012D07D0032DF4D1A369002E0BD0802288
S11313B09A75EEE7A369002E02D104221A75E8E7B4
S11313C004229A75E5E780221A75E2E71E020000FE
S11313D0B0230000390C000010B5194B186884695B
S11313E0237EDB0702D5A37DDB070FD4237E9B0777
S11313F002D5A37D9B070ED4237E5B0715D5628B94
S113140037231A420CD04833638310BD012323755C
S113141003689847F9E70223237583689847F4E73C
S1131420218DC9B243689847EFE7237EDB09ECD0EE
S113143080232376C3689847638B9BB26383E4E776
S11314404C01002070B505000C00354BCB189B0AED
S1131450DBB2022B0BD0002851D0601E8441E0B2D5
S1131460304A3149314B98470D20404246E000282C
S11314704DD12C4A2C4900202C4B9847E369DB07BB
S113148018D40322E3691A42FCD123689B070BD5C5
S113149023680222934323600132E3691A42FCD198
S11314A00222E3691A42FCD10D2323600322E3697B
S11314B01A42FCD10122E3691A42FCD12C602000BB
S11314C0431E9841C0B21A4A1749184B9847194B02
S11314D023600322E3691A42FCD180239B026360E8
S11314E00722E3691A42FCD109232373002227331C
S11314F0E2542F3B2B71104BEB80002070BD094A46
S113150009490020094B98470D204042F6E708009E
S1131510431E9841C0B2034A0349044B9847ADE7C0
S113152000FCFFBD48090000B0230000390C000096
S11315300D0900000C000100FF010000F0B5DE46BB
S113154057464E464546E0B583B081460E000468D2
S11315500B6898464D6803790193002815D0200044
S1131560431E9841C0B2364A3649374B9847E3691F
S11315705B073FD10323E0691840FCD123689B0734
S11315803BD5020001239C4609E00020EBE701352E
S113159001325BB2002B16DBB368834227D9237E6A
S11315A0DBB2042119422BD0A76A002DF0D02F7092
S11315B001990129EBD93F0A6F700235E8E701214F
S11315C08B46D84437E001235B426383813323761F
S11315D0132040420322237E1342FCD003232376AC
S11315E003B03CBC90469946A246AB46F0BD93423C
S11315F0D5D8EFE704204042F2E714204042EFE759
S11316009042C6D867461F42C3D04F46FF88BA46A9
S11316104746002F0FD03F78BA4601990129CED909
S113162047467F783F02BB46574659460F43BA4662
S113163002218B46D84401305746A762A9E7C04629
S1131640A80A0000B0230000390C000070B50500A2
S11316500C008B68DB072DD50122A3681A42FCD14C
S113166021490B681A02FC20800102401B059B0ED5
S1131670134323621D4E33681805F0231B041840DE
S11316800B681B0B18431A4B98471A491A4B984777
S11316901A4B9847A06133681B011B0AE3612C6055
S11316A0002323700322A3681A42FCD10023A370F1
S11316B0002070BD0322A3681A42FCD123789B0743
S11316C00BD523780222934323700132A3681A4274
S11316D0FCD10222A3681A42FCD101232370032205
S11316E0A3681A42FCD1B7E7306080003460800000
S11316F0B11F0000ABAAAA3CF9190000C9190000E7
S113170070B50B4B98470B4B98472022C023DB0541
S11317109A6100210848094B9847094C094D0A4E23
S11317202378012BFCD12B78012BF9D1B047F7E7B3
S11317301D0100009519000094020020ED05000031
S11317409801002064020020D117000070B5050044
S11317500C0008001130C8222900064B98472800C5
S1131760054B98470200103292B221000348044B03
S1131770984770BD85220000A7220000B002002017
S11317808907000070B505000A4CC822010020003A
S1131790094B98472800094B9847113082B2210021
S11317A011390748074B9847C82200210648074BC0
S11317B0984770BD2500002085220000A722000064
S11317C0B0020020890700009C010020972200003D
S11317D070B53B4B1B786F2B18D0394B1B786F2B94
S11317E025D0374B1B78612B31D0354B1B78742BAC
S11317F042D0334B1B78312B50D03248324B984770
S11318000023324A1370324A137070BD2C4B5B783C
S11318106E2BE2D12022C023DB059A612D482A4C8D
S1131820A04732202C4B98472C48A047E8E7244B8C
S11318305B78662BD5D1224B9B78662BD1D12022A5
S1131840C023DB055A6126481F4B9847D8E71C4B39
S11318505B78642BC9D11A4B9B78632BC5D180214B
S1131860C9033533C022D205D150154B5878C0B2C4
S11318701C491D4B9847C3E7114B5B78652BB8D1C6
S11318800F4B9B78732BB4D18021C9032533C0221D
S1131890D205D1500A480C4B9847B1E7134C2F3B63
S11318A0220000211248134DA8476368E3602068B2
S11318B0A0601B0218432061034B9847A0E7C04671
S11318C09C010020EC2300008517000098010020F3
S11318D064020020CC23000069070000D823000024
S11318E0E4230000140000204D17000050010020E4
S11318F094020020190600007047000010B582B061
S113190001226B46D91D1F481F4B9847C1B21F4B7C
S11319101B78002B12D16B46DA790D2A24D00A2ABF
S113192022D01A4B012018700020587058781818CB
S1131930027158784018C0B2587015E0134B5A78A9
S11319406846C4799A18147158784018C0B258700F
S11319500D2C0BD00A2C09D00C4B5B78DBB2C72BB7
S113196002D90022094B5A7002B010BD084A012165
S11319704C23D154054B5B78023BDBB24C315354BE
S1131980EAE7C046B0020020BD070000980100202D
S11319901802002070B5074C074A01212000074DAA
S11319A0A847074A00212000A8472000054B984774
S11319B070BDC046B0020020F9180000C10B000041
S11319C0FD180000950B00009E2110B5C905041CEC
S11319D000F064FB002803D1201C00F0C9FA10BDFC
S11319E09E21201CC90500F027F900F0C1FA8023CC
S11319F01B069C466044F2E7F8B557464E464546FA
S1131A00DE46E0B54702460088467F0A360EC40F1C
S1131A10002E47D0FF2E24D0FB008027FF041F4355
S1131A20002399469A467F3E43465D025800DB0FE9
S1131A306D0A000E984643D0FF283BD0EB0080256A
S1131A400022ED041D437F383618731C41469B4623
S1131A504B46614013430F2B64D875489B00C35811
S1131A609F46002F42D108239946063BFF269A46FB
S1131A70DAE74146022A28D0032A00D1CEE0012A1F
S1131A8000D0ACE0114000200022CCB24002D205CC
S1131A90400AE407104320433CBC90469946A246C2
S1131AA0AB46F8BD002F15D104239946033B00260D
S1131AB09A46B9E7FF200222002DC5D00322C3E7CE
S1131AC0002D19D100200122BEE70124FF220C4081
S1131AD00020DBE7380000F0EBFA7626431F9F4036
S1131AE000237642361A99469A469DE70C23994676
S1131AF0093BFF269A4697E7280000F0D9FA431FCE
S1131B009D4076235B42181A00229DE78020002422
S1131B10C003FF22BAE73D005246ABE73D00210077
S1131B205246A7E73B0C9C462A04120C2B0C1400CB
S1131B30604665463F043F0C7C4342435D437B4320
S1131B40270C9B18FF18BA4203D980235B029C46DA
S1131B50654424043A04240C121993015C1EA34125
S1131B603F0C920E7D191A43AD0115432B0104D588
S1131B7001235E466A081D40154332007F32002A65
S1131B8025DD6B0704D00F232B40042B00D0043534
S1131B902B0103D53200274B80321D40FE2A94DCF2
S1131BA00124A801400AD2B20C406FE78020C00390
S1131BB0074207D0054205D128434002400A444663
S1131BC0FF2263E738434002400AFF225EE7012414
S1131BD0A31A1B2B05DD0C400022002056E75E46AD
S1131BE0CBE72A002020DA40C31A9D402B005D1E5B
S1131BF0AB4113435A0704D00F221A40042A00D0E1
S1131C0004335A0104D5012401220C4000203DE78D
S1131C1001249B01580A0C40002237E7802001244C
S1131C20C00328434002400A0C40FF222EE7C0466E
S1131C3004240000FFFFFFF7F0B54F46D6464646A2
S1131C404400C0B5C20F47024802400A84466646B3
S1131C507B0A4800C90F9A46240E1500DB00000ECB
S1131C608946F600FF2800D18FE001214F464F40FE
S1131C703900914266D0221A002A00DC9DE0002837
S1131C803DD1002E00D18BE0511E002900D0B5E0DB
S1131C9001249B1B5A0144D59B019F09380000F085
S1131CA007FA05388740844200DD96E0041B3A00B9
S1131CB020200134E240041BA7403B005F1EBB41CF
S1131CC0002413435A0704D00F221A40042A00D0D8
S1131CD004335A0127D50134FF2C00D179E00122C5
S1131CE09B015B0AE4B22A405B02E405580AD2076E
S1131CF0204310431CBC90469946A246F0BDFF2CDD
S1131D00E0D08021C9040E431B2A7BDC3100202053
S1131D10D140821A9640721E96410E439B1B5A0173
S1131D20BAD45A07D0D10122DF082A40FF2C33D17C
S1131D30002F00D1A8E08023DB033B435B025B0A56
S1131D40FF24D1E7211A00294CDD00282AD0FF2CDA
S1131D50B8D08020C00406431B2900DDAFE030006A
S1131D602027C840791A8E40711E8E4106439B1964
S1131D705901D6D50134FF2C00D185E001227A49DE
S1131D801A405B080B4013439CE7002E00D070E719
S1131D906BE73B1EC5D100227B025B0AE4B2A3E7DA
S1131DA014008FE7002E4DD0481E002857D19B19F0
S1131DB001245A01B5D50224E0E7002A25D1621C8A
S1131DC0D2B2012A72DD9F1B7A0135D5F71A0D00B4
S1131DD064E7012200232A4086E73B00634A241A71
S1131DE013406FE700296CD1611CC8B201284EDD95
S1131DF0FF2949D09B195B080C0063E7FF2A41D0F7
S1131E000A0081E701269B1B89E7002C1CD0FF28D0
S1131E1021D08024E404524223431B2A00DD96E0AF
S1131E201C002025D440AA1A93405A1E93412343F0
S1131E30F31A04000D002DE7002F00D02EE7002236
S1131E400024A9E70C003DE7002B58D0D243002A18
S1131E50EED0FF28E1D13300FF240D0032E7FF2943
S1131E6010D0010078E7002B6ED0FF24002E00D1A3
S1131E7028E780225146D203114203D06146114221
S1131E8000D13300FF241DE7FF2400232CE7002C9E
S1131E90E9D1002B63D0002E00D113E79B195A011E
S1131EA000D43EE7314A0C0013400BE7002C1ED14E
S1131EB0002B2FD1002E4FD033000D0002E7012656
S1131EC055E7002C1FD1002B43D0C94300290BD068
S1131ED0FF2839D01B2944DC1C002027CC40791A68
S1131EE08B40591E8B4123439B19040040E7002B70
S1131EF01AD1002E24D180270022FF031BE73300D0
S1131F0004000D00DEE6FF281ED08024E4044942CC
S1131F102343DFE7002E00D1D4E69F1B7A0100D4CF
S1131F2037E7F31A0D00CDE6FF24002E00D1C9E6F1
S1131F3080225046D2031042A4D060461042A1D160
S1131F4033000D00FF24BDE63300FF24BAE601236D
S1131F506EE733000400B5E6002700221CE73300D7
S1131F60B0E60123C0E7C046FFFFFF7DFFFFFFFB94
S1131F7041024300C20F490A1B0E00207E2B0DDDD7
S1131F809D2B0CDC802000040143952B0ADC962059
S1131F90C31AD9404842002A00D108007047034BB5
S1131FA0D018FBE7963B9940F4E7C046FFFFFF7F5C
S1131FB010B5041E27D000F07BF89E231B1A962B25
S1131FC00ADC9622D21A94406402640ADBB26402E8
S1131FD0DB05600A184310BD992B17DC9922D21A2D
S1131FE0002A27DD94402200134C1440510704D0EA
S1131FF00F210A40042A00D00434620112D4A4013F
S1132000640ADBB2E3E700230024E0E7B9222100FD
S1132010D21A91400A00511E8A410521091ACC4066
S11320201443DBE7044B1C409F23A4011B1A640ADE
S1132030DBB2CCE72200D7E7FFFFFFFB8446081C96
S11320406146FFE71FB500F0B7F8002801D400216E
S1132050C8421FBD10B500F049F84042013010BD20
S113206010B500F0A9F8002801DB002010BD012004
S113207010BDC04610B500F09FF8002801DD002017
S113208010BD012010BDC04610B500F055F8002861
S113209001DC002010BD012010BDC04610B500F0C9
S11320A04BF8002801DA002010BD012010BDC04605
S11320B01C2101231B04984201D3000C10391B0A74
S11320C0984201D3000A08391B09984201D3000938
S11320D0043902A2105C40187047C046040302028F
S11320E001010101000000000000000070B5420081
S11320F045024E024C00C30F6D0A120E760A240EDE
S1132100C90F0120FF2A06D0FF2C03D0A24201D11F
S1132110B54206D070BD002DFCD1FF2CFAD1002EA3
S1132120F8D18B4206D00120002AF3D12800451EA5
S1132130A841EFE70020EDE7F0B5420045024C026C
S1132140C30F48006D0A120E640A000EC90FFF2A5D
S11321501ED0FF2821D0002A0AD16E426E41F6B269
S113216000280FD1002C0DD10020002D09D005E04E
S1132170002801D1002C01D08B4211D001215842FA
S11321800843F0BD002EF7D0012001390843F8E7D9
S1132190002DDED002204042F3E7002CDBD0F9E72B
S11321A08242EBDC04DBA542E8D80020A542E8D259
S11321B00121581E0843E4E7F0B542004D024C00EB
S11321C04602760A120EC30F6D0A240EC90FFF2AA7
S11321D016D0FF2C18D0002A0AD170427041C0B228
S11321E0002C15D0002805D0012001390843F0BD8A
S11321F0002C13D0994214D001205B421843F6E717
S11322000220002EF3D1E4E70220002DEFD1E2E713
S1132210002DE7D10020002EE9D0EDE7002DE9D113
S1132220EAE7A24206DCDFDBAE4203D80020AE427E
S1132230DAD3DCE7012049420843D8E770B5002629
S11322400C4D0D4C641BA410A64209D1002600F0CD
S1132250F9F80A4D0A4C641BA410A64205D170BDBE
S1132260B300EB5898470136EEE7B300EB589847B4
S11322700136F2E7502400005024000050240000EE
S113228054240000002310B59A4200D110BDCC5C48
S1132290C4540133F8E703008218934200D1704715
S11322A019700133F9E70023C25C0133002AFBD122
S11322B0581E70472E2E2F68616C2F7372632F681F
S11322C0616C5F6164635F73796E632E6300000009
S11322D02E2E2F68616C2F7372632F68616C5F639D
S11322E0616E5F6173796E632E6300002E2E2F681A
S11322F0616C2F7372632F68616C5F696F2E63006A
S11323002E2E2F68616C2F7372632F68616C5F735C
S113231070695F6D5F73796E632E63002E2E2F6874
S1132320616C2F7372632F68616C5F74656D705F8D
S113233073796E632E6300002E2E2F68616C2F73E9
S113234072632F68616C5F75736172745F61737916
S11323506E632E63000000002E2E2F68616C2F75B3
S113236074696C732F7372632F7574696C735F7205
S1132370696E676275666665722E6300000000050B
S11323800000001800000000000000000000000031
S113239000000000000000002E2E2F68706C2F61DA
S11323A064632F68706C5F6164632E6300000000D7
S11323B02E2E2F68706C2F736572636F6D2F68708B
S11323C06C5F736572636F6D2E63000052656C61A0
S11323D079204F4E0000000052656C6179207465CD
S11323E0737400004C4544204F4646004572726F9A
S11323F0723A204E6F207375636820636F6D6D6150
S11324006E640000241B0000741A0000741A00009B
S1132410721A0000161B0000161B00000C1B0000A3
S1132420721A0000161B00000C1B0000161B000093
S1132430721A00001C1B00001C1B00001C1B000067
S1132440AC1B0000F8B5C046F8BC08BC9E467047FB
S1132450E5000000F8B5C046F8BC08BC9E467047CD
S1072460BD000000B7
S11324640003002020030020240100203401002064
S11324743C0100200D0A596F7572206D65737361F8
S11324846765203A200000000000000000000000FE
S11324940000000000000000000000000000000034
S11324A40000000000000000000000000000000024
S11324B40000000000000000000000000000000014
S11324C40000000000000000000000000000000004
S11324D400000000000000000000000000000000F4
S11324E400000000000000000000000000000000E4
S11324F400000000000000000000000000000000D4
S113250400000000000000000000000000000000C3
S113251400000000000000000000000000000000B3
S113252400000000000000000000000000000000A3
S11325340000000000000000000000000000000093
S11325440000000000000000000000000000000083
S9030000FC
